{
  "contractName": "BNBCollection",
  "abi": [
    {
      "inputs": [],
      "stateMutability": "nonpayable",
      "type": "constructor"
    },
    {
      "anonymous": false,
      "inputs": [
        {
          "indexed": true,
          "internalType": "address",
          "name": "owner",
          "type": "address"
        },
        {
          "indexed": true,
          "internalType": "address",
          "name": "approved",
          "type": "address"
        },
        {
          "indexed": true,
          "internalType": "uint256",
          "name": "tokenId",
          "type": "uint256"
        }
      ],
      "name": "Approval",
      "type": "event"
    },
    {
      "anonymous": false,
      "inputs": [
        {
          "indexed": true,
          "internalType": "address",
          "name": "owner",
          "type": "address"
        },
        {
          "indexed": true,
          "internalType": "address",
          "name": "operator",
          "type": "address"
        },
        {
          "indexed": false,
          "internalType": "bool",
          "name": "approved",
          "type": "bool"
        }
      ],
      "name": "ApprovalForAll",
      "type": "event"
    },
    {
      "anonymous": false,
      "inputs": [
        {
          "indexed": true,
          "internalType": "address",
          "name": "minter",
          "type": "address"
        },
        {
          "indexed": false,
          "internalType": "uint256",
          "name": "id",
          "type": "uint256"
        },
        {
          "indexed": false,
          "internalType": "uint256",
          "name": "date",
          "type": "uint256"
        }
      ],
      "name": "Mint",
      "type": "event"
    },
    {
      "anonymous": false,
      "inputs": [
        {
          "indexed": true,
          "internalType": "address",
          "name": "previousOwner",
          "type": "address"
        },
        {
          "indexed": true,
          "internalType": "address",
          "name": "newOwner",
          "type": "address"
        }
      ],
      "name": "OwnershipTransferred",
      "type": "event"
    },
    {
      "anonymous": false,
      "inputs": [
        {
          "indexed": true,
          "internalType": "address",
          "name": "purchaser",
          "type": "address"
        },
        {
          "indexed": true,
          "internalType": "address",
          "name": "beneficiary",
          "type": "address"
        },
        {
          "indexed": false,
          "internalType": "uint256",
          "name": "value",
          "type": "uint256"
        },
        {
          "indexed": false,
          "internalType": "uint256",
          "name": "idToken",
          "type": "uint256"
        }
      ],
      "name": "TokenPurchase",
      "type": "event"
    },
    {
      "anonymous": false,
      "inputs": [
        {
          "indexed": true,
          "internalType": "address",
          "name": "from",
          "type": "address"
        },
        {
          "indexed": true,
          "internalType": "address",
          "name": "to",
          "type": "address"
        },
        {
          "indexed": true,
          "internalType": "uint256",
          "name": "tokenId",
          "type": "uint256"
        }
      ],
      "name": "Transfer",
      "type": "event"
    },
    {
      "anonymous": false,
      "inputs": [
        {
          "indexed": false,
          "internalType": "uint256",
          "name": "amount",
          "type": "uint256"
        },
        {
          "indexed": false,
          "internalType": "uint256",
          "name": "date",
          "type": "uint256"
        }
      ],
      "name": "WithdrawTime",
      "type": "event"
    },
    {
      "inputs": [],
      "name": "alreadySold",
      "outputs": [
        {
          "internalType": "uint256",
          "name": "",
          "type": "uint256"
        }
      ],
      "stateMutability": "view",
      "type": "function",
      "constant": true
    },
    {
      "inputs": [
        {
          "internalType": "address",
          "name": "to",
          "type": "address"
        },
        {
          "internalType": "uint256",
          "name": "tokenId",
          "type": "uint256"
        }
      ],
      "name": "approve",
      "outputs": [],
      "stateMutability": "nonpayable",
      "type": "function"
    },
    {
      "inputs": [
        {
          "internalType": "address",
          "name": "owner",
          "type": "address"
        }
      ],
      "name": "balanceOf",
      "outputs": [
        {
          "internalType": "uint256",
          "name": "",
          "type": "uint256"
        }
      ],
      "stateMutability": "view",
      "type": "function",
      "constant": true
    },
    {
      "inputs": [
        {
          "internalType": "uint256",
          "name": "tokenId",
          "type": "uint256"
        }
      ],
      "name": "getApproved",
      "outputs": [
        {
          "internalType": "address",
          "name": "",
          "type": "address"
        }
      ],
      "stateMutability": "view",
      "type": "function",
      "constant": true
    },
    {
      "inputs": [
        {
          "internalType": "address",
          "name": "owner",
          "type": "address"
        },
        {
          "internalType": "address",
          "name": "operator",
          "type": "address"
        }
      ],
      "name": "isApprovedForAll",
      "outputs": [
        {
          "internalType": "bool",
          "name": "",
          "type": "bool"
        }
      ],
      "stateMutability": "view",
      "type": "function",
      "constant": true
    },
    {
      "inputs": [],
      "name": "name",
      "outputs": [
        {
          "internalType": "string",
          "name": "",
          "type": "string"
        }
      ],
      "stateMutability": "view",
      "type": "function",
      "constant": true
    },
    {
      "inputs": [],
      "name": "onSale",
      "outputs": [
        {
          "internalType": "uint256",
          "name": "",
          "type": "uint256"
        }
      ],
      "stateMutability": "view",
      "type": "function",
      "constant": true
    },
    {
      "inputs": [],
      "name": "owner",
      "outputs": [
        {
          "internalType": "address",
          "name": "",
          "type": "address"
        }
      ],
      "stateMutability": "view",
      "type": "function",
      "constant": true
    },
    {
      "inputs": [
        {
          "internalType": "uint256",
          "name": "tokenId",
          "type": "uint256"
        }
      ],
      "name": "ownerOf",
      "outputs": [
        {
          "internalType": "address",
          "name": "",
          "type": "address"
        }
      ],
      "stateMutability": "view",
      "type": "function",
      "constant": true
    },
    {
      "inputs": [],
      "name": "renounceOwnership",
      "outputs": [],
      "stateMutability": "nonpayable",
      "type": "function"
    },
    {
      "inputs": [
        {
          "internalType": "address",
          "name": "from",
          "type": "address"
        },
        {
          "internalType": "address",
          "name": "to",
          "type": "address"
        },
        {
          "internalType": "uint256",
          "name": "tokenId",
          "type": "uint256"
        }
      ],
      "name": "safeTransferFrom",
      "outputs": [],
      "stateMutability": "nonpayable",
      "type": "function"
    },
    {
      "inputs": [
        {
          "internalType": "address",
          "name": "from",
          "type": "address"
        },
        {
          "internalType": "address",
          "name": "to",
          "type": "address"
        },
        {
          "internalType": "uint256",
          "name": "tokenId",
          "type": "uint256"
        },
        {
          "internalType": "bytes",
          "name": "_data",
          "type": "bytes"
        }
      ],
      "name": "safeTransferFrom",
      "outputs": [],
      "stateMutability": "nonpayable",
      "type": "function"
    },
    {
      "inputs": [],
      "name": "saleIsActive",
      "outputs": [
        {
          "internalType": "bool",
          "name": "",
          "type": "bool"
        }
      ],
      "stateMutability": "view",
      "type": "function",
      "constant": true
    },
    {
      "inputs": [
        {
          "internalType": "address",
          "name": "operator",
          "type": "address"
        },
        {
          "internalType": "bool",
          "name": "approved",
          "type": "bool"
        }
      ],
      "name": "setApprovalForAll",
      "outputs": [],
      "stateMutability": "nonpayable",
      "type": "function"
    },
    {
      "inputs": [
        {
          "internalType": "bytes4",
          "name": "interfaceId",
          "type": "bytes4"
        }
      ],
      "name": "supportsInterface",
      "outputs": [
        {
          "internalType": "bool",
          "name": "",
          "type": "bool"
        }
      ],
      "stateMutability": "view",
      "type": "function",
      "constant": true
    },
    {
      "inputs": [],
      "name": "symbol",
      "outputs": [
        {
          "internalType": "string",
          "name": "",
          "type": "string"
        }
      ],
      "stateMutability": "view",
      "type": "function",
      "constant": true
    },
    {
      "inputs": [
        {
          "internalType": "uint256",
          "name": "index",
          "type": "uint256"
        }
      ],
      "name": "tokenByIndex",
      "outputs": [
        {
          "internalType": "uint256",
          "name": "",
          "type": "uint256"
        }
      ],
      "stateMutability": "view",
      "type": "function",
      "constant": true
    },
    {
      "inputs": [
        {
          "internalType": "address",
          "name": "owner",
          "type": "address"
        },
        {
          "internalType": "uint256",
          "name": "index",
          "type": "uint256"
        }
      ],
      "name": "tokenOfOwnerByIndex",
      "outputs": [
        {
          "internalType": "uint256",
          "name": "",
          "type": "uint256"
        }
      ],
      "stateMutability": "view",
      "type": "function",
      "constant": true
    },
    {
      "inputs": [],
      "name": "tokenPrice",
      "outputs": [
        {
          "internalType": "uint256",
          "name": "",
          "type": "uint256"
        }
      ],
      "stateMutability": "view",
      "type": "function",
      "constant": true
    },
    {
      "inputs": [
        {
          "internalType": "uint256",
          "name": "",
          "type": "uint256"
        }
      ],
      "name": "tokenURIs",
      "outputs": [
        {
          "internalType": "string",
          "name": "",
          "type": "string"
        }
      ],
      "stateMutability": "view",
      "type": "function",
      "constant": true
    },
    {
      "inputs": [],
      "name": "totalSupply",
      "outputs": [
        {
          "internalType": "uint256",
          "name": "",
          "type": "uint256"
        }
      ],
      "stateMutability": "view",
      "type": "function",
      "constant": true
    },
    {
      "inputs": [
        {
          "internalType": "address",
          "name": "from",
          "type": "address"
        },
        {
          "internalType": "address",
          "name": "to",
          "type": "address"
        },
        {
          "internalType": "uint256",
          "name": "tokenId",
          "type": "uint256"
        }
      ],
      "name": "transferFrom",
      "outputs": [],
      "stateMutability": "nonpayable",
      "type": "function"
    },
    {
      "inputs": [
        {
          "internalType": "address",
          "name": "newOwner",
          "type": "address"
        }
      ],
      "name": "transferOwnership",
      "outputs": [],
      "stateMutability": "nonpayable",
      "type": "function"
    },
    {
      "inputs": [],
      "name": "withdraw",
      "outputs": [],
      "stateMutability": "nonpayable",
      "type": "function"
    },
    {
      "inputs": [
        {
          "internalType": "address",
          "name": "buyer",
          "type": "address"
        }
      ],
      "name": "saleMintToken",
      "outputs": [],
      "stateMutability": "payable",
      "type": "function",
      "payable": true
    },
    {
      "inputs": [
        {
          "internalType": "string",
          "name": "_tokenURI",
          "type": "string"
        }
      ],
      "name": "safeMint",
      "outputs": [],
      "stateMutability": "nonpayable",
      "type": "function"
    },
    {
      "inputs": [
        {
          "internalType": "address",
          "name": "minter",
          "type": "address"
        }
      ],
      "name": "setMinterApproved",
      "outputs": [],
      "stateMutability": "nonpayable",
      "type": "function"
    },
    {
      "inputs": [
        {
          "internalType": "address",
          "name": "minter",
          "type": "address"
        }
      ],
      "name": "setMinterDisapproved",
      "outputs": [],
      "stateMutability": "nonpayable",
      "type": "function"
    },
    {
      "inputs": [
        {
          "internalType": "address",
          "name": "owner",
          "type": "address"
        }
      ],
      "name": "tokensOfOwner",
      "outputs": [
        {
          "internalType": "uint256[]",
          "name": "",
          "type": "uint256[]"
        }
      ],
      "stateMutability": "view",
      "type": "function",
      "constant": true
    },
    {
      "inputs": [
        {
          "internalType": "uint256",
          "name": "_tokenPrice",
          "type": "uint256"
        }
      ],
      "name": "setTokenPrice",
      "outputs": [],
      "stateMutability": "nonpayable",
      "type": "function"
    },
    {
      "inputs": [],
      "name": "getBalance",
      "outputs": [
        {
          "internalType": "uint256",
          "name": "",
          "type": "uint256"
        }
      ],
      "stateMutability": "view",
      "type": "function",
      "constant": true
    },
    {
      "inputs": [
        {
          "internalType": "uint256",
          "name": "tokenId",
          "type": "uint256"
        }
      ],
      "name": "tokenURI",
      "outputs": [
        {
          "internalType": "string",
          "name": "",
          "type": "string"
        }
      ],
      "stateMutability": "view",
      "type": "function",
      "constant": true
    },
    {
      "inputs": [
        {
          "internalType": "uint256",
          "name": "_tokenId",
          "type": "uint256"
        },
        {
          "internalType": "string",
          "name": "_tokenURI",
          "type": "string"
        }
      ],
      "name": "_setTokenURI",
      "outputs": [],
      "stateMutability": "nonpayable",
      "type": "function"
    },
    {
      "inputs": [],
      "name": "flipSaleState",
      "outputs": [],
      "stateMutability": "nonpayable",
      "type": "function"
    },
    {
      "inputs": [],
      "name": "prepareSale",
      "outputs": [],
      "stateMutability": "nonpayable",
      "type": "function"
    }
  ],
  "bytecode": "0x608060405267016345785d8a00006011553480156200001d57600080fd5b506040518060400160405280601881526020017f4d616c616e66746472696e657220436f6c6c656374696f6e00000000000000008152506040518060400160405280600581526020017f4d4c4e46540000000000000000000000000000000000000000000000000000008152508160009080519060200190620000a29291906200020a565b508060019080519060200190620000bb9291906200020a565b505050620000de620000d26200013c60201b60201c565b6200014460201b60201c565b6001600b60003373ffffffffffffffffffffffffffffffffffffffff1673ffffffffffffffffffffffffffffffffffffffff16815260200190815260200160002060006101000a81548160ff0219169083151502179055506200031f565b600033905090565b6000600a60009054906101000a900473ffffffffffffffffffffffffffffffffffffffff16905081600a60006101000a81548173ffffffffffffffffffffffffffffffffffffffff021916908373ffffffffffffffffffffffffffffffffffffffff1602179055508173ffffffffffffffffffffffffffffffffffffffff168173ffffffffffffffffffffffffffffffffffffffff167f8be0079c531659141344cd1fd0a4f28419497f9722a3daafe3b4186f6b6457e060405160405180910390a35050565b8280546200021890620002e9565b90600052602060002090601f0160209004810192826200023c576000855562000288565b82601f106200025757805160ff191683800117855562000288565b8280016001018555821562000288579182015b82811115620002875782518255916020019190600101906200026a565b5b5090506200029791906200029b565b5090565b5b80821115620002b65760008160009055506001016200029c565b5090565b7f4e487b7100000000000000000000000000000000000000000000000000000000600052602260045260246000fd5b600060028204905060018216806200030257607f821691505b60208210811415620003195762000318620002ba565b5b50919050565b614744806200032f6000396000f3fe6080604052600436106102045760003560e01c80636352211e11610118578063931c8bc4116100a0578063b88d4fde1161006f578063b88d4fde14610732578063c87b56dd1461075b578063e985e9c514610798578063eb8d2444146107d5578063f2fde38b1461080057610204565b8063931c8bc41461069957806395d89b41146106c2578063a22cb465146106ed578063a9b3b0c11461071657610204565b806370a08231116100e757806370a08231146105b2578063715018a6146105ef5780637ff9b596146106065780638462151c146106315780638da5cb5b1461066e57610204565b80636352211e146104e6578063695850fb146105235780636a61e5fc1461054c5780636c8b703f1461057557610204565b80632d1f1b911161019b5780633ccfd60b1161016a5780633ccfd60b1461042757806342842e0e1461043e5780634d2db81f146104675780634f6ccce71461049257806350017e5e146104cf57610204565b80632d1f1b911461037f5780632f745c59146103a8578063326687b9146103e557806334918dfd1461041057610204565b8063095ea7b3116101d7578063095ea7b3146102d757806312065fe01461030057806318160ddd1461032b57806323b872dd1461035657610204565b8063015388681461020957806301ffc9a71461023257806306fdde031461026f578063081812fc1461029a575b600080fd5b34801561021557600080fd5b50610230600480360381019061022b9190613064565b610829565b005b34801561023e57600080fd5b5061025960048036038101906102549190613118565b610919565b6040516102669190613160565b60405180910390f35b34801561027b57600080fd5b50610284610993565b6040516102919190613203565b60405180910390f35b3480156102a657600080fd5b506102c160048036038101906102bc9190613225565b610a25565b6040516102ce9190613293565b60405180910390f35b3480156102e357600080fd5b506102fe60048036038101906102f991906132da565b610aaa565b005b34801561030c57600080fd5b50610315610bc2565b6040516103229190613329565b60405180910390f35b34801561033757600080fd5b50610340610c46565b60405161034d9190613329565b60405180910390f35b34801561036257600080fd5b5061037d60048036038101906103789190613344565b610c53565b005b34801561038b57600080fd5b506103a660048036038101906103a19190613397565b610cb3565b005b3480156103b457600080fd5b506103cf60048036038101906103ca91906132da565b610e17565b6040516103dc9190613329565b60405180910390f35b3480156103f157600080fd5b506103fa610ebc565b6040516104079190613329565b60405180910390f35b34801561041c57600080fd5b50610425610ec2565b005b34801561043357600080fd5b5061043c610f6a565b005b34801561044a57600080fd5b5061046560048036038101906104609190613344565b611076565b005b34801561047357600080fd5b5061047c611096565b6040516104899190613329565b60405180910390f35b34801561049e57600080fd5b506104b960048036038101906104b49190613225565b61109c565b6040516104c69190613329565b60405180910390f35b3480156104db57600080fd5b506104e461110d565b005b3480156104f257600080fd5b5061050d60048036038101906105089190613225565b6111a1565b60405161051a9190613293565b60405180910390f35b34801561052f57600080fd5b5061054a600480360381019061054591906133c4565b611253565b005b34801561055857600080fd5b50610573600480360381019061056e9190613225565b6113d3565b005b34801561058157600080fd5b5061059c60048036038101906105979190613225565b611459565b6040516105a99190613203565b60405180910390f35b3480156105be57600080fd5b506105d960048036038101906105d49190613397565b611505565b6040516105e69190613329565b60405180910390f35b3480156105fb57600080fd5b506106046115bd565b005b34801561061257600080fd5b5061061b611645565b6040516106289190613329565b60405180910390f35b34801561063d57600080fd5b5061065860048036038101906106539190613397565b61164b565b60405161066591906134cb565b60405180910390f35b34801561067a57600080fd5b506106836116f9565b6040516106909190613293565b60405180910390f35b3480156106a557600080fd5b506106c060048036038101906106bb9190613397565b611723565b005b3480156106ce57600080fd5b506106d7611886565b6040516106e49190613203565b60405180910390f35b3480156106f957600080fd5b50610714600480360381019061070f9190613519565b611918565b005b610730600480360381019061072b9190613397565b61192e565b005b34801561073e57600080fd5b50610759600480360381019061075491906135fa565b611b00565b005b34801561076757600080fd5b50610782600480360381019061077d9190613225565b611b62565b60405161078f9190613203565b60405180910390f35b3480156107a457600080fd5b506107bf60048036038101906107ba919061367d565b611c4f565b6040516107cc9190613160565b60405180910390f35b3480156107e157600080fd5b506107ea611ce3565b6040516107f79190613160565b60405180910390f35b34801561080c57600080fd5b5061082760048036038101906108229190613397565b611cf6565b005b610831611dee565b73ffffffffffffffffffffffffffffffffffffffff1661084f6116f9565b73ffffffffffffffffffffffffffffffffffffffff16146108a5576040517f08c379a000000000000000000000000000000000000000000000000000000000815260040161089c90613709565b60405180910390fd5b6108ae82611df6565b6108ed576040517f08c379a00000000000000000000000000000000000000000000000000000000081526004016108e49061379b565b60405180910390fd5b80600d60008481526020019081526020016000209080519060200190610914929190612e31565b505050565b60007f780e9d63000000000000000000000000000000000000000000000000000000007bffffffffffffffffffffffffffffffffffffffffffffffffffffffff1916827bffffffffffffffffffffffffffffffffffffffffffffffffffffffff1916148061098c575061098b82611e62565b5b9050919050565b6060600080546109a2906137ea565b80601f01602080910402602001604051908101604052809291908181526020018280546109ce906137ea565b8015610a1b5780601f106109f057610100808354040283529160200191610a1b565b820191906000526020600020905b8154815290600101906020018083116109fe57829003601f168201915b5050505050905090565b6000610a3082611df6565b610a6f576040517f08c379a0000000000000000000000000000000000000000000000000000000008152600401610a669061388e565b60405180910390fd5b6004600083815260200190815260200160002060009054906101000a900473ffffffffffffffffffffffffffffffffffffffff169050919050565b6000610ab5826111a1565b90508073ffffffffffffffffffffffffffffffffffffffff168373ffffffffffffffffffffffffffffffffffffffff161415610b26576040517f08c379a0000000000000000000000000000000000000000000000000000000008152600401610b1d90613920565b60405180910390fd5b8073ffffffffffffffffffffffffffffffffffffffff16610b45611dee565b73ffffffffffffffffffffffffffffffffffffffff161480610b745750610b7381610b6e611dee565b611c4f565b5b610bb3576040517f08c379a0000000000000000000000000000000000000000000000000000000008152600401610baa906139b2565b60405180910390fd5b610bbd8383611f44565b505050565b6000610bcc611dee565b73ffffffffffffffffffffffffffffffffffffffff16610bea6116f9565b73ffffffffffffffffffffffffffffffffffffffff1614610c40576040517f08c379a0000000000000000000000000000000000000000000000000000000008152600401610c3790613709565b60405180910390fd5b47905090565b6000600880549050905090565b610c64610c5e611dee565b82611ffd565b610ca3576040517f08c379a0000000000000000000000000000000000000000000000000000000008152600401610c9a90613a44565b60405180910390fd5b610cae8383836120db565b505050565b610cbb611dee565b73ffffffffffffffffffffffffffffffffffffffff16610cd96116f9565b73ffffffffffffffffffffffffffffffffffffffff1614610d2f576040517f08c379a0000000000000000000000000000000000000000000000000000000008152600401610d2690613709565b60405180910390fd5b600b60008273ffffffffffffffffffffffffffffffffffffffff1673ffffffffffffffffffffffffffffffffffffffff16815260200190815260200160002060009054906101000a900460ff1615610dbc576040517f08c379a0000000000000000000000000000000000000000000000000000000008152600401610db390613ad6565b60405180910390fd5b6001600b60008373ffffffffffffffffffffffffffffffffffffffff1673ffffffffffffffffffffffffffffffffffffffff16815260200190815260200160002060006101000a81548160ff02191690831515021790555050565b6000610e2283611505565b8210610e63576040517f08c379a0000000000000000000000000000000000000000000000000000000008152600401610e5a90613b68565b60405180910390fd5b600660008473ffffffffffffffffffffffffffffffffffffffff1673ffffffffffffffffffffffffffffffffffffffff168152602001908152602001600020600083815260200190815260200160002054905092915050565b600f5481565b610eca611dee565b73ffffffffffffffffffffffffffffffffffffffff16610ee86116f9565b73ffffffffffffffffffffffffffffffffffffffff1614610f3e576040517f08c379a0000000000000000000000000000000000000000000000000000000008152600401610f3590613709565b60405180910390fd5b601060009054906101000a900460ff1615601060006101000a81548160ff021916908315150217905550565b610f72611dee565b73ffffffffffffffffffffffffffffffffffffffff16610f906116f9565b73ffffffffffffffffffffffffffffffffffffffff1614610fe6576040517f08c379a0000000000000000000000000000000000000000000000000000000008152600401610fdd90613709565b60405180910390fd5b60004790503373ffffffffffffffffffffffffffffffffffffffff166108fc829081150290604051600060405180830381858888f19350505050158015611031573d6000803e3d6000fd5b5061103a610ec2565b7f340eda84c45ce2835fc1d07babdc92122b7d0c5ebf24b5065984e2d2f38dfbcf814260405161106b929190613b88565b60405180910390a150565b61109183838360405180602001604052806000815250611b00565b505050565b600e5481565b60006110a6610c46565b82106110e7576040517f08c379a00000000000000000000000000000000000000000000000000000000081526004016110de90613c23565b60405180910390fd5b600882815481106110fb576110fa613c43565b5b90600052602060002001549050919050565b611115611dee565b73ffffffffffffffffffffffffffffffffffffffff166111336116f9565b73ffffffffffffffffffffffffffffffffffffffff1614611189576040517f08c379a000000000000000000000000000000000000000000000000000000000815260040161118090613709565b60405180910390fd5b6111996111946116f9565b611505565b600f81905550565b6000806002600084815260200190815260200160002060009054906101000a900473ffffffffffffffffffffffffffffffffffffffff169050600073ffffffffffffffffffffffffffffffffffffffff168173ffffffffffffffffffffffffffffffffffffffff16141561124a576040517f08c379a000000000000000000000000000000000000000000000000000000000815260040161124190613ce4565b60405180910390fd5b80915050919050565b600b60003373ffffffffffffffffffffffffffffffffffffffff1673ffffffffffffffffffffffffffffffffffffffff16815260200190815260200160002060009054906101000a900460ff16806112b4575060006112b133611505565b14155b6112f3576040517f08c379a00000000000000000000000000000000000000000000000000000000081526004016112ea90613d76565b60405180910390fd5b60006112fd610c46565b9050600c8290806001815401808255809150506001900390600052602060002001600090919091909150908051906020019061133a929190612e31565b50600060018261134a9190613dc5565b905082600d60008381526020019081526020016000209080519060200190611373929190612e31565b5061137e3382612337565b3373ffffffffffffffffffffffffffffffffffffffff167f4c209b5fc8ad50758f13e2e1088ba56a560dff690a1c6fef26394f4c03821c4f82426040516113c6929190613b88565b60405180910390a2505050565b6113db611dee565b73ffffffffffffffffffffffffffffffffffffffff166113f96116f9565b73ffffffffffffffffffffffffffffffffffffffff161461144f576040517f08c379a000000000000000000000000000000000000000000000000000000000815260040161144690613709565b60405180910390fd5b8060118190555050565b600c818154811061146957600080fd5b906000526020600020016000915090508054611484906137ea565b80601f01602080910402602001604051908101604052809291908181526020018280546114b0906137ea565b80156114fd5780601f106114d2576101008083540402835291602001916114fd565b820191906000526020600020905b8154815290600101906020018083116114e057829003601f168201915b505050505081565b60008073ffffffffffffffffffffffffffffffffffffffff168273ffffffffffffffffffffffffffffffffffffffff161415611576576040517f08c379a000000000000000000000000000000000000000000000000000000000815260040161156d90613e8d565b60405180910390fd5b600360008373ffffffffffffffffffffffffffffffffffffffff1673ffffffffffffffffffffffffffffffffffffffff168152602001908152602001600020549050919050565b6115c5611dee565b73ffffffffffffffffffffffffffffffffffffffff166115e36116f9565b73ffffffffffffffffffffffffffffffffffffffff1614611639576040517f08c379a000000000000000000000000000000000000000000000000000000000815260040161163090613709565b60405180910390fd5b6116436000612355565b565b60115481565b6060600061165883611505565b905060008167ffffffffffffffff81111561167657611675612f39565b5b6040519080825280602002602001820160405280156116a45781602001602082028036833780820191505090505b50905060005b828110156116ee576116bc8582610e17565b8282815181106116cf576116ce613c43565b5b60200260200101818152505080806116e690613ead565b9150506116aa565b508092505050919050565b6000600a60009054906101000a900473ffffffffffffffffffffffffffffffffffffffff16905090565b61172b611dee565b73ffffffffffffffffffffffffffffffffffffffff166117496116f9565b73ffffffffffffffffffffffffffffffffffffffff161461179f576040517f08c379a000000000000000000000000000000000000000000000000000000000815260040161179690613709565b60405180910390fd5b600b60008273ffffffffffffffffffffffffffffffffffffffff1673ffffffffffffffffffffffffffffffffffffffff16815260200190815260200160002060009054906101000a900460ff1661182b576040517f08c379a000000000000000000000000000000000000000000000000000000000815260040161182290613f68565b60405180910390fd5b6000600b60008373ffffffffffffffffffffffffffffffffffffffff1673ffffffffffffffffffffffffffffffffffffffff16815260200190815260200160002060006101000a81548160ff02191690831515021790555050565b606060018054611895906137ea565b80601f01602080910402602001604051908101604052809291908181526020018280546118c1906137ea565b801561190e5780601f106118e35761010080835404028352916020019161190e565b820191906000526020600020905b8154815290600101906020018083116118f157829003601f168201915b5050505050905090565b61192a611923611dee565b838361241b565b5050565b601060009054906101000a900460ff1661197d576040517f08c379a000000000000000000000000000000000000000000000000000000000815260040161197490613ffa565b60405180910390fd5b6000600f5414156119c3576040517f08c379a00000000000000000000000000000000000000000000000000000000081526004016119ba90614066565b60405180910390fd5b601154341015611a08576040517f08c379a00000000000000000000000000000000000000000000000000000000081526004016119ff906140f8565b60405180910390fd5b6000611a1a611a156116f9565b61164b565b9050611a49611a276116f9565b8383600081518110611a3c57611a3b613c43565b5b60200260200101516120db565b6001600f54611a589190614118565b600f819055506001600e54611a6d9190613dc5565b600e819055508173ffffffffffffffffffffffffffffffffffffffff16611a926116f9565b73ffffffffffffffffffffffffffffffffffffffff167f623b3804fa71d67900d064613da8f94b9617215ee90799290593e1745087ad183484600081518110611ade57611add613c43565b5b6020026020010151604051611af4929190613b88565b60405180910390a35050565b611b11611b0b611dee565b83611ffd565b611b50576040517f08c379a0000000000000000000000000000000000000000000000000000000008152600401611b4790613a44565b60405180910390fd5b611b5c84848484612588565b50505050565b6060611b6d82611df6565b611bac576040517f08c379a0000000000000000000000000000000000000000000000000000000008152600401611ba3906141be565b60405180910390fd5b600d60008381526020019081526020016000208054611bca906137ea565b80601f0160208091040260200160405190810160405280929190818152602001828054611bf6906137ea565b8015611c435780601f10611c1857610100808354040283529160200191611c43565b820191906000526020600020905b815481529060010190602001808311611c2657829003601f168201915b50505050509050919050565b6000600560008473ffffffffffffffffffffffffffffffffffffffff1673ffffffffffffffffffffffffffffffffffffffff16815260200190815260200160002060008373ffffffffffffffffffffffffffffffffffffffff1673ffffffffffffffffffffffffffffffffffffffff16815260200190815260200160002060009054906101000a900460ff16905092915050565b601060009054906101000a900460ff1681565b611cfe611dee565b73ffffffffffffffffffffffffffffffffffffffff16611d1c6116f9565b73ffffffffffffffffffffffffffffffffffffffff1614611d72576040517f08c379a0000000000000000000000000000000000000000000000000000000008152600401611d6990613709565b60405180910390fd5b600073ffffffffffffffffffffffffffffffffffffffff168173ffffffffffffffffffffffffffffffffffffffff161415611de2576040517f08c379a0000000000000000000000000000000000000000000000000000000008152600401611dd990614250565b60405180910390fd5b611deb81612355565b50565b600033905090565b60008073ffffffffffffffffffffffffffffffffffffffff166002600084815260200190815260200160002060009054906101000a900473ffffffffffffffffffffffffffffffffffffffff1673ffffffffffffffffffffffffffffffffffffffff1614159050919050565b60007f80ac58cd000000000000000000000000000000000000000000000000000000007bffffffffffffffffffffffffffffffffffffffffffffffffffffffff1916827bffffffffffffffffffffffffffffffffffffffffffffffffffffffff19161480611f2d57507f5b5e139f000000000000000000000000000000000000000000000000000000007bffffffffffffffffffffffffffffffffffffffffffffffffffffffff1916827bffffffffffffffffffffffffffffffffffffffffffffffffffffffff1916145b80611f3d5750611f3c826125e4565b5b9050919050565b816004600083815260200190815260200160002060006101000a81548173ffffffffffffffffffffffffffffffffffffffff021916908373ffffffffffffffffffffffffffffffffffffffff160217905550808273ffffffffffffffffffffffffffffffffffffffff16611fb7836111a1565b73ffffffffffffffffffffffffffffffffffffffff167f8c5be1e5ebec7d5bd14f71427d1e84f3dd0314c0f7b2291e5b200ac8c7c3b92560405160405180910390a45050565b600061200882611df6565b612047576040517f08c379a000000000000000000000000000000000000000000000000000000000815260040161203e906142e2565b60405180910390fd5b6000612052836111a1565b90508073ffffffffffffffffffffffffffffffffffffffff168473ffffffffffffffffffffffffffffffffffffffff1614806120c157508373ffffffffffffffffffffffffffffffffffffffff166120a984610a25565b73ffffffffffffffffffffffffffffffffffffffff16145b806120d257506120d18185611c4f565b5b91505092915050565b8273ffffffffffffffffffffffffffffffffffffffff166120fb826111a1565b73ffffffffffffffffffffffffffffffffffffffff1614612151576040517f08c379a000000000000000000000000000000000000000000000000000000000815260040161214890614374565b60405180910390fd5b600073ffffffffffffffffffffffffffffffffffffffff168273ffffffffffffffffffffffffffffffffffffffff1614156121c1576040517f08c379a00000000000000000000000000000000000000000000000000000000081526004016121b890614406565b60405180910390fd5b6121cc83838361264e565b6121d7600082611f44565b6001600360008573ffffffffffffffffffffffffffffffffffffffff1673ffffffffffffffffffffffffffffffffffffffff16815260200190815260200160002060008282546122279190614118565b925050819055506001600360008473ffffffffffffffffffffffffffffffffffffffff1673ffffffffffffffffffffffffffffffffffffffff168152602001908152602001600020600082825461227e9190613dc5565b92505081905550816002600083815260200190815260200160002060006101000a81548173ffffffffffffffffffffffffffffffffffffffff021916908373ffffffffffffffffffffffffffffffffffffffff160217905550808273ffffffffffffffffffffffffffffffffffffffff168473ffffffffffffffffffffffffffffffffffffffff167fddf252ad1be2c89b69c2b068fc378daa952ba7f163c4a11628f55a4df523b3ef60405160405180910390a4505050565b612351828260405180602001604052806000815250612762565b5050565b6000600a60009054906101000a900473ffffffffffffffffffffffffffffffffffffffff16905081600a60006101000a81548173ffffffffffffffffffffffffffffffffffffffff021916908373ffffffffffffffffffffffffffffffffffffffff1602179055508173ffffffffffffffffffffffffffffffffffffffff168173ffffffffffffffffffffffffffffffffffffffff167f8be0079c531659141344cd1fd0a4f28419497f9722a3daafe3b4186f6b6457e060405160405180910390a35050565b8173ffffffffffffffffffffffffffffffffffffffff168373ffffffffffffffffffffffffffffffffffffffff16141561248a576040517f08c379a000000000000000000000000000000000000000000000000000000000815260040161248190614472565b60405180910390fd5b80600560008573ffffffffffffffffffffffffffffffffffffffff1673ffffffffffffffffffffffffffffffffffffffff16815260200190815260200160002060008473ffffffffffffffffffffffffffffffffffffffff1673ffffffffffffffffffffffffffffffffffffffff16815260200190815260200160002060006101000a81548160ff0219169083151502179055508173ffffffffffffffffffffffffffffffffffffffff168373ffffffffffffffffffffffffffffffffffffffff167f17307eab39ab6107e8899845ad3d59bd9653f200f220920489ca2b5937696c318360405161257b9190613160565b60405180910390a3505050565b6125938484846120db565b61259f848484846127bd565b6125de576040517f08c379a00000000000000000000000000000000000000000000000000000000081526004016125d590614504565b60405180910390fd5b50505050565b60007f01ffc9a7000000000000000000000000000000000000000000000000000000007bffffffffffffffffffffffffffffffffffffffffffffffffffffffff1916827bffffffffffffffffffffffffffffffffffffffffffffffffffffffff1916149050919050565b612659838383612945565b600073ffffffffffffffffffffffffffffffffffffffff168373ffffffffffffffffffffffffffffffffffffffff16141561269c576126978161294a565b6126db565b8173ffffffffffffffffffffffffffffffffffffffff168373ffffffffffffffffffffffffffffffffffffffff16146126da576126d98382612993565b5b5b600073ffffffffffffffffffffffffffffffffffffffff168273ffffffffffffffffffffffffffffffffffffffff16141561271e5761271981612b00565b61275d565b8273ffffffffffffffffffffffffffffffffffffffff168273ffffffffffffffffffffffffffffffffffffffff161461275c5761275b8282612bd1565b5b5b505050565b61276c8383612c50565b61277960008484846127bd565b6127b8576040517f08c379a00000000000000000000000000000000000000000000000000000000081526004016127af90614504565b60405180910390fd5b505050565b60006127de8473ffffffffffffffffffffffffffffffffffffffff16612e1e565b15612938578373ffffffffffffffffffffffffffffffffffffffff1663150b7a02612807611dee565b8786866040518563ffffffff1660e01b81526004016128299493929190614579565b6020604051808303816000875af192505050801561286557506040513d601f19601f8201168201806040525081019061286291906145da565b60015b6128e8573d8060008114612895576040519150601f19603f3d011682016040523d82523d6000602084013e61289a565b606091505b506000815114156128e0576040517f08c379a00000000000000000000000000000000000000000000000000000000081526004016128d790614504565b60405180910390fd5b805181602001fd5b63150b7a0260e01b7bffffffffffffffffffffffffffffffffffffffffffffffffffffffff1916817bffffffffffffffffffffffffffffffffffffffffffffffffffffffff19161491505061293d565b600190505b949350505050565b505050565b6008805490506009600083815260200190815260200160002081905550600881908060018154018082558091505060019003906000526020600020016000909190919091505550565b600060016129a084611505565b6129aa9190614118565b9050600060076000848152602001908152602001600020549050818114612a8f576000600660008673ffffffffffffffffffffffffffffffffffffffff1673ffffffffffffffffffffffffffffffffffffffff168152602001908152602001600020600084815260200190815260200160002054905080600660008773ffffffffffffffffffffffffffffffffffffffff1673ffffffffffffffffffffffffffffffffffffffff168152602001908152602001600020600084815260200190815260200160002081905550816007600083815260200190815260200160002081905550505b6007600084815260200190815260200160002060009055600660008573ffffffffffffffffffffffffffffffffffffffff1673ffffffffffffffffffffffffffffffffffffffff16815260200190815260200160002060008381526020019081526020016000206000905550505050565b60006001600880549050612b149190614118565b9050600060096000848152602001908152602001600020549050600060088381548110612b4457612b43613c43565b5b906000526020600020015490508060088381548110612b6657612b65613c43565b5b906000526020600020018190555081600960008381526020019081526020016000208190555060096000858152602001908152602001600020600090556008805480612bb557612bb4614607565b5b6001900381819060005260206000200160009055905550505050565b6000612bdc83611505565b905081600660008573ffffffffffffffffffffffffffffffffffffffff1673ffffffffffffffffffffffffffffffffffffffff168152602001908152602001600020600083815260200190815260200160002081905550806007600084815260200190815260200160002081905550505050565b600073ffffffffffffffffffffffffffffffffffffffff168273ffffffffffffffffffffffffffffffffffffffff161415612cc0576040517f08c379a0000000000000000000000000000000000000000000000000000000008152600401612cb790614682565b60405180910390fd5b612cc981611df6565b15612d09576040517f08c379a0000000000000000000000000000000000000000000000000000000008152600401612d00906146ee565b60405180910390fd5b612d156000838361264e565b6001600360008473ffffffffffffffffffffffffffffffffffffffff1673ffffffffffffffffffffffffffffffffffffffff1681526020019081526020016000206000828254612d659190613dc5565b92505081905550816002600083815260200190815260200160002060006101000a81548173ffffffffffffffffffffffffffffffffffffffff021916908373ffffffffffffffffffffffffffffffffffffffff160217905550808273ffffffffffffffffffffffffffffffffffffffff16600073ffffffffffffffffffffffffffffffffffffffff167fddf252ad1be2c89b69c2b068fc378daa952ba7f163c4a11628f55a4df523b3ef60405160405180910390a45050565b600080823b905060008111915050919050565b828054612e3d906137ea565b90600052602060002090601f016020900481019282612e5f5760008555612ea6565b82601f10612e7857805160ff1916838001178555612ea6565b82800160010185558215612ea6579182015b82811115612ea5578251825591602001919060010190612e8a565b5b509050612eb39190612eb7565b5090565b5b80821115612ed0576000816000905550600101612eb8565b5090565b6000604051905090565b600080fd5b600080fd5b6000819050919050565b612efb81612ee8565b8114612f0657600080fd5b50565b600081359050612f1881612ef2565b92915050565b600080fd5b600080fd5b6000601f19601f8301169050919050565b7f4e487b7100000000000000000000000000000000000000000000000000000000600052604160045260246000fd5b612f7182612f28565b810181811067ffffffffffffffff82111715612f9057612f8f612f39565b5b80604052505050565b6000612fa3612ed4565b9050612faf8282612f68565b919050565b600067ffffffffffffffff821115612fcf57612fce612f39565b5b612fd882612f28565b9050602081019050919050565b82818337600083830152505050565b600061300761300284612fb4565b612f99565b90508281526020810184848401111561302357613022612f23565b5b61302e848285612fe5565b509392505050565b600082601f83011261304b5761304a612f1e565b5b813561305b848260208601612ff4565b91505092915050565b6000806040838503121561307b5761307a612ede565b5b600061308985828601612f09565b925050602083013567ffffffffffffffff8111156130aa576130a9612ee3565b5b6130b685828601613036565b9150509250929050565b60007fffffffff0000000000000000000000000000000000000000000000000000000082169050919050565b6130f5816130c0565b811461310057600080fd5b50565b600081359050613112816130ec565b92915050565b60006020828403121561312e5761312d612ede565b5b600061313c84828501613103565b91505092915050565b60008115159050919050565b61315a81613145565b82525050565b60006020820190506131756000830184613151565b92915050565b600081519050919050565b600082825260208201905092915050565b60005b838110156131b557808201518184015260208101905061319a565b838111156131c4576000848401525b50505050565b60006131d58261317b565b6131df8185613186565b93506131ef818560208601613197565b6131f881612f28565b840191505092915050565b6000602082019050818103600083015261321d81846131ca565b905092915050565b60006020828403121561323b5761323a612ede565b5b600061324984828501612f09565b91505092915050565b600073ffffffffffffffffffffffffffffffffffffffff82169050919050565b600061327d82613252565b9050919050565b61328d81613272565b82525050565b60006020820190506132a86000830184613284565b92915050565b6132b781613272565b81146132c257600080fd5b50565b6000813590506132d4816132ae565b92915050565b600080604083850312156132f1576132f0612ede565b5b60006132ff858286016132c5565b925050602061331085828601612f09565b9150509250929050565b61332381612ee8565b82525050565b600060208201905061333e600083018461331a565b92915050565b60008060006060848603121561335d5761335c612ede565b5b600061336b868287016132c5565b935050602061337c868287016132c5565b925050604061338d86828701612f09565b9150509250925092565b6000602082840312156133ad576133ac612ede565b5b60006133bb848285016132c5565b91505092915050565b6000602082840312156133da576133d9612ede565b5b600082013567ffffffffffffffff8111156133f8576133f7612ee3565b5b61340484828501613036565b91505092915050565b600081519050919050565b600082825260208201905092915050565b6000819050602082019050919050565b61344281612ee8565b82525050565b60006134548383613439565b60208301905092915050565b6000602082019050919050565b60006134788261340d565b6134828185613418565b935061348d83613429565b8060005b838110156134be5781516134a58882613448565b97506134b083613460565b925050600181019050613491565b5085935050505092915050565b600060208201905081810360008301526134e5818461346d565b905092915050565b6134f681613145565b811461350157600080fd5b50565b600081359050613513816134ed565b92915050565b600080604083850312156135305761352f612ede565b5b600061353e858286016132c5565b925050602061354f85828601613504565b9150509250929050565b600067ffffffffffffffff82111561357457613573612f39565b5b61357d82612f28565b9050602081019050919050565b600061359d61359884613559565b612f99565b9050828152602081018484840111156135b9576135b8612f23565b5b6135c4848285612fe5565b509392505050565b600082601f8301126135e1576135e0612f1e565b5b81356135f184826020860161358a565b91505092915050565b6000806000806080858703121561361457613613612ede565b5b6000613622878288016132c5565b9450506020613633878288016132c5565b935050604061364487828801612f09565b925050606085013567ffffffffffffffff81111561366557613664612ee3565b5b613671878288016135cc565b91505092959194509250565b6000806040838503121561369457613693612ede565b5b60006136a2858286016132c5565b92505060206136b3858286016132c5565b9150509250929050565b7f4f776e61626c653a2063616c6c6572206973206e6f7420746865206f776e6572600082015250565b60006136f3602083613186565b91506136fe826136bd565b602082019050919050565b60006020820190508181036000830152613722816136e6565b9050919050565b7f45524337323155524953746f726167653a2055524920736574206f66206e6f6e60008201527f6578697374656e7420746f6b656e000000000000000000000000000000000000602082015250565b6000613785602e83613186565b915061379082613729565b604082019050919050565b600060208201905081810360008301526137b481613778565b9050919050565b7f4e487b7100000000000000000000000000000000000000000000000000000000600052602260045260246000fd5b6000600282049050600182168061380257607f821691505b60208210811415613816576138156137bb565b5b50919050565b7f4552433732313a20617070726f76656420717565727920666f72206e6f6e657860008201527f697374656e7420746f6b656e0000000000000000000000000000000000000000602082015250565b6000613878602c83613186565b91506138838261381c565b604082019050919050565b600060208201905081810360008301526138a78161386b565b9050919050565b7f4552433732313a20617070726f76616c20746f2063757272656e74206f776e6560008201527f7200000000000000000000000000000000000000000000000000000000000000602082015250565b600061390a602183613186565b9150613915826138ae565b604082019050919050565b60006020820190508181036000830152613939816138fd565b9050919050565b7f4552433732313a20617070726f76652063616c6c6572206973206e6f74206f7760008201527f6e6572206e6f7220617070726f76656420666f7220616c6c0000000000000000602082015250565b600061399c603883613186565b91506139a782613940565b604082019050919050565b600060208201905081810360008301526139cb8161398f565b9050919050565b7f4552433732313a207472616e736665722063616c6c6572206973206e6f74206f60008201527f776e6572206e6f7220617070726f766564000000000000000000000000000000602082015250565b6000613a2e603183613186565b9150613a39826139d2565b604082019050919050565b60006020820190508181036000830152613a5d81613a21565b9050919050565b7f61646472657373206d696e74657220616c6c6f77656420666f72206d696e746960008201527f6e67000000000000000000000000000000000000000000000000000000000000602082015250565b6000613ac0602283613186565b9150613acb82613a64565b604082019050919050565b60006020820190508181036000830152613aef81613ab3565b9050919050565b7f455243373231456e756d657261626c653a206f776e657220696e646578206f7560008201527f74206f6620626f756e6473000000000000000000000000000000000000000000602082015250565b6000613b52602b83613186565b9150613b5d82613af6565b604082019050919050565b60006020820190508181036000830152613b8181613b45565b9050919050565b6000604082019050613b9d600083018561331a565b613baa602083018461331a565b9392505050565b7f455243373231456e756d657261626c653a20676c6f62616c20696e646578206f60008201527f7574206f6620626f756e64730000000000000000000000000000000000000000602082015250565b6000613c0d602c83613186565b9150613c1882613bb1565b604082019050919050565b60006020820190508181036000830152613c3c81613c00565b9050919050565b7f4e487b7100000000000000000000000000000000000000000000000000000000600052603260045260246000fd5b7f4552433732313a206f776e657220717565727920666f72206e6f6e657869737460008201527f656e7420746f6b656e0000000000000000000000000000000000000000000000602082015250565b6000613cce602983613186565b9150613cd982613c72565b604082019050919050565b60006020820190508181036000830152613cfd81613cc1565b9050919050565b7f596f7520646f6e27742061726520616c6c6f77656420666f72206d696e74696e60008201527f6700000000000000000000000000000000000000000000000000000000000000602082015250565b6000613d60602183613186565b9150613d6b82613d04565b604082019050919050565b60006020820190508181036000830152613d8f81613d53565b9050919050565b7f4e487b7100000000000000000000000000000000000000000000000000000000600052601160045260246000fd5b6000613dd082612ee8565b9150613ddb83612ee8565b9250827fffffffffffffffffffffffffffffffffffffffffffffffffffffffffffffffff03821115613e1057613e0f613d96565b5b828201905092915050565b7f4552433732313a2062616c616e636520717565727920666f7220746865207a6560008201527f726f206164647265737300000000000000000000000000000000000000000000602082015250565b6000613e77602a83613186565b9150613e8282613e1b565b604082019050919050565b60006020820190508181036000830152613ea681613e6a565b9050919050565b6000613eb882612ee8565b91507fffffffffffffffffffffffffffffffffffffffffffffffffffffffffffffffff821415613eeb57613eea613d96565b5b600182019050919050565b7f61646472657373206d696e746572206e6f7420616c6c6f77656420666f72206d60008201527f696e74696e670000000000000000000000000000000000000000000000000000602082015250565b6000613f52602683613186565b9150613f5d82613ef6565b604082019050919050565b60006020820190508181036000830152613f8181613f45565b9050919050565b7f53616c65206d7573742062652061637469766520746f2062757920546f6b656e60008201527f7300000000000000000000000000000000000000000000000000000000000000602082015250565b6000613fe4602183613186565b9150613fef82613f88565b604082019050919050565b6000602082019050818103600083015261401381613fd7565b9050919050565b7f546865726520617265206e6f20746f6b656e7320746f20627579000000000000600082015250565b6000614050601a83613186565b915061405b8261401a565b602082019050919050565b6000602082019050818103600083015261407f81614043565b9050919050565b7f76616c75652073656e74206e6565647320746f2062652061746c65617374207360008201527f616c652070726963650000000000000000000000000000000000000000000000602082015250565b60006140e2602983613186565b91506140ed82614086565b604082019050919050565b60006020820190508181036000830152614111816140d5565b9050919050565b600061412382612ee8565b915061412e83612ee8565b92508282101561414157614140613d96565b5b828203905092915050565b7f45524337323155524953746f726167653a2055524920717565727920666f722060008201527f6e6f6e6578697374656e7420746f6b656e000000000000000000000000000000602082015250565b60006141a8603183613186565b91506141b38261414c565b604082019050919050565b600060208201905081810360008301526141d78161419b565b9050919050565b7f4f776e61626c653a206e6577206f776e657220697320746865207a65726f206160008201527f6464726573730000000000000000000000000000000000000000000000000000602082015250565b600061423a602683613186565b9150614245826141de565b604082019050919050565b600060208201905081810360008301526142698161422d565b9050919050565b7f4552433732313a206f70657261746f7220717565727920666f72206e6f6e657860008201527f697374656e7420746f6b656e0000000000000000000000000000000000000000602082015250565b60006142cc602c83613186565b91506142d782614270565b604082019050919050565b600060208201905081810360008301526142fb816142bf565b9050919050565b7f4552433732313a207472616e73666572206f6620746f6b656e2074686174206960008201527f73206e6f74206f776e0000000000000000000000000000000000000000000000602082015250565b600061435e602983613186565b915061436982614302565b604082019050919050565b6000602082019050818103600083015261438d81614351565b9050919050565b7f4552433732313a207472616e7366657220746f20746865207a65726f2061646460008201527f7265737300000000000000000000000000000000000000000000000000000000602082015250565b60006143f0602483613186565b91506143fb82614394565b604082019050919050565b6000602082019050818103600083015261441f816143e3565b9050919050565b7f4552433732313a20617070726f766520746f2063616c6c657200000000000000600082015250565b600061445c601983613186565b915061446782614426565b602082019050919050565b6000602082019050818103600083015261448b8161444f565b9050919050565b7f4552433732313a207472616e7366657220746f206e6f6e20455243373231526560008201527f63656976657220696d706c656d656e7465720000000000000000000000000000602082015250565b60006144ee603283613186565b91506144f982614492565b604082019050919050565b6000602082019050818103600083015261451d816144e1565b9050919050565b600081519050919050565b600082825260208201905092915050565b600061454b82614524565b614555818561452f565b9350614565818560208601613197565b61456e81612f28565b840191505092915050565b600060808201905061458e6000830187613284565b61459b6020830186613284565b6145a8604083018561331a565b81810360608301526145ba8184614540565b905095945050505050565b6000815190506145d4816130ec565b92915050565b6000602082840312156145f0576145ef612ede565b5b60006145fe848285016145c5565b91505092915050565b7f4e487b7100000000000000000000000000000000000000000000000000000000600052603160045260246000fd5b7f4552433732313a206d696e7420746f20746865207a65726f2061646472657373600082015250565b600061466c602083613186565b915061467782614636565b602082019050919050565b6000602082019050818103600083015261469b8161465f565b9050919050565b7f4552433732313a20746f6b656e20616c7265616479206d696e74656400000000600082015250565b60006146d8601c83613186565b91506146e3826146a2565b602082019050919050565b60006020820190508181036000830152614707816146cb565b905091905056fea26469706673582212203f32f7521a7d89966c003f4e49e81b7c8170e304972cca23a2ed665d3af284ef64736f6c634300080b0033",
  "immutableReferences": {},
  "source": "///SPDX-License-Identifier: UNLICENSED\r\npragma solidity ^0.8.0;\r\n\r\n/**\r\n * dev: https://cainuriel.github.io/\r\n /$$      /$$           /$$                      /$$$$$$   /$$                    /$$           /$$                              \r\n| $$$    /$$$          | $$                     /$$__  $$ | $$                   | $$          |__/                              \r\n| $$$$  /$$$$  /$$$$$$ | $$  /$$$$$$  /$$$$$$$ | $$  \\__//$$$$$$   /$$$$$$$  /$$$$$$$  /$$$$$$  /$$ /$$$$$$$   /$$$$$$   /$$$$$$ \r\n| $$ $$/$$ $$ |____  $$| $$ |____  $$| $$__  $$| $$$$   |_  $$_/  /$$_____/ /$$__  $$ /$$__  $$| $$| $$__  $$ /$$__  $$ /$$__  $$\r\n| $$  $$$| $$  /$$$$$$$| $$  /$$$$$$$| $$  \\ $$| $$_/     | $$   |  $$$$$$ | $$  | $$| $$  \\__/| $$| $$  \\ $$| $$$$$$$$| $$  \\__/\r\n| $$\\  $ | $$ /$$__  $$| $$ /$$__  $$| $$  | $$| $$       | $$ /$$\\____  $$| $$  | $$| $$      | $$| $$  | $$| $$_____/| $$      \r\n| $$ \\/  | $$|  $$$$$$$| $$|  $$$$$$$| $$  | $$| $$       |  $$$$//$$$$$$$/|  $$$$$$$| $$      | $$| $$  | $$|  $$$$$$$| $$      \r\n|__/     |__/ \\_______/|__/ \\_______/|__/  |__/|__/        \\___/ |_______/  \\_______/|__/      |__/|__/  |__/ \\_______/|__/      \r\n * \r\n **/\r\n\r\nimport \"@openzeppelin/contracts/token/ERC721/extensions/ERC721Enumerable.sol\";\r\nimport \"@openzeppelin/contracts/access/Ownable.sol\";\r\n\r\n// 0xFd1aF1fe38d7Fe5e29497313cE8c6be6343CD17c in testnet\r\n\r\ncontract BNBCollection is ERC721Enumerable, Ownable  \r\n{   \r\n    \r\n\r\n    mapping(address => bool) private  _minters;\r\n    string[] public tokenURIs; // to listing\r\n    mapping(uint => string) _tokenIdToTokenURI;\r\n    uint256 public alreadySold;\r\n    uint256 public onSale;\r\n    bool public saleIsActive;\r\n     uint256 public tokenPrice = 100000000000000000; //0.1 BNB\r\n\r\n    \r\n      /**\r\n   * Event for token purchase logging\r\n   * @param purchaser who paid for the tokens\r\n   * @param beneficiary who got the tokens\r\n   * @param value weis paid for purchase\r\n   * @param idToken NFT purchased\r\n   */\r\n  event TokenPurchase(\r\n    address indexed purchaser,\r\n    address indexed beneficiary,\r\n    uint256 value,\r\n    uint256 idToken\r\n  );\r\n  \r\n   /**\r\n   * Event for token purchase logging\r\n   * @param minter who minted tokens\r\n   * @param id of token minted\r\n   */\r\n  event Mint(\r\n    address indexed minter,\r\n    uint256 id,\r\n    uint256 date\r\n  );\r\n  \r\n   /**\r\n   * Event for token purchase logging\r\n   * @param amount total sale balance\r\n   * @param date collection date\r\n   */\r\n  event WithdrawTime(\r\n    uint256 amount,\r\n    uint256 date\r\n  );\r\n    \r\n    constructor() \r\n    ERC721(\"Malanftdriner Collection\", \"MLNFT\") \r\n    {\r\n        _minters[msg.sender] = true;\r\n\r\n    }\r\n\r\n    function withdraw() public onlyOwner \r\n    {\r\n        uint256 amount = address(this).balance;\r\n        payable(msg.sender).transfer(amount);\r\n        flipSaleState();\r\n        emit WithdrawTime(amount, block.timestamp);\r\n        \r\n    }\r\n    \r\n         function saleMintToken(address buyer) public payable \r\n    {\r\n          \r\n        require(saleIsActive, \"Sale must be active to buy Tokens\");\r\n        require(onSale != 0, \"There are no tokens to buy\");\r\n        require(msg.value >= tokenPrice, \"value sent needs to be atleast sale price\");\r\n         uint256[] memory tokenId = tokensOfOwner(owner());\r\n        _transfer(owner(), buyer, tokenId[0]);\r\n        onSale = onSale - 1;\r\n        alreadySold = alreadySold + 1;\r\n\r\n       emit TokenPurchase(owner(), buyer, msg.value, tokenId[0]);\r\n    }\r\n\r\n\r\n        function safeMint(string memory _tokenURI) public  \r\n        {\r\n        require(_minters[msg.sender] || balanceOf(msg.sender) != 0, \"You don't are allowed for minting\");\r\n        uint256 supply = totalSupply();\r\n         tokenURIs.push(_tokenURI);\r\n        uint _id = supply + 1;\r\n        _tokenIdToTokenURI[_id] = _tokenURI;\r\n\r\n        _safeMint(msg.sender, _id);\r\n\r\n        emit Mint(msg.sender, _id, block.timestamp);\r\n\r\n        }\r\n\r\n           /**\r\n         * @dev approve an account for mint\r\n         */\r\n         function setMinterApproved(address minter) public onlyOwner \r\n    {   require(!_minters[minter], \"address minter allowed for minting\");\r\n        _minters[minter] = true;\r\n    }\r\n    \r\n        /**\r\n         * @dev disapprove an account for mint\r\n         */\r\n         function setMinterDisapproved(address minter) public onlyOwner \r\n    {\r\n         require(_minters[minter], \"address minter not allowed for minting\");\r\n        _minters[minter] = false;\r\n    }\r\n    \r\n      /**\r\n     * @dev show all the tokens of the owner.\r\n     */\r\n    function tokensOfOwner(address owner) public view returns (uint256[] memory)\r\n    {\r\n        uint256 ownerTokenCount = balanceOf(owner);\r\n        uint256[] memory tokenIds = new uint256[](ownerTokenCount);\r\n\r\n        for (uint256 i; i < ownerTokenCount; i++) {\r\n            tokenIds[i] = tokenOfOwnerByIndex(owner, i);\r\n        }\r\n        return tokenIds;\r\n    }\r\n    \r\n     function setTokenPrice(uint256 _tokenPrice) public onlyOwner \r\n    {\r\n        tokenPrice = _tokenPrice;\r\n    }\r\n\r\n    function getBalance() public view onlyOwner returns(uint256)  \r\n    {\r\n        return address(this).balance;\r\n    }\r\n    \r\n\r\n    function tokenURI(uint256 tokenId) public view override returns (string memory) \r\n    {\r\n        require(_exists(tokenId), \"ERC721URIStorage: URI query for nonexistent token\");\r\n\r\n            return _tokenIdToTokenURI[tokenId];\r\n    }\r\n\r\n    /**\r\n     * @dev Sets `tokenURI` as the tokenURI of `tokenId`.\r\n     *\r\n     * Requirements:\r\n     *\r\n     * - `tokenId` must exist.\r\n     */\r\n    function _setTokenURI(uint256 _tokenId, string memory _tokenURI) public onlyOwner\r\n    {\r\n        require(_exists(_tokenId), \"ERC721URIStorage: URI set of nonexistent token\");\r\n        _tokenIdToTokenURI[_tokenId] = _tokenURI;\r\n    }\r\n    \r\n      /*\r\n    * Pause sale if active, make active if paused\r\n    */\r\n    function flipSaleState() public onlyOwner \r\n    {\r\n        saleIsActive = !saleIsActive;\r\n    }\r\n\r\n    /*\r\n    *  Preparation amount of Tokens for sale in malandriner app. Only owner can sale.\r\n    */\r\n    function prepareSale() public onlyOwner \r\n    {   onSale = balanceOf(owner());\r\n        \r\n    }\r\n\r\n}",
  "sourcePath": "C:\\Users\\cainu\\Documents\\Programacion\\solidity\\2021\\BNBMarketplace\\src\\contracts\\BNBCollection.sol",
  "compiler": {
    "name": "solc",
    "version": "0.8.11+commit.d7f03943.Emscripten.clang"
  },
  "schemaVersion": "3.4.3",
  "updatedAt": "2022-02-04T17:26:15.954Z",
  "networkType": "ethereum",
  "devdoc": {
    "events": {
      "Mint(address,uint256,uint256)": {
        "params": {
          "id": "of token minted",
          "minter": "who minted tokens"
        }
      },
      "TokenPurchase(address,address,uint256,uint256)": {
        "params": {
          "beneficiary": "who got the tokens",
          "idToken": "NFT purchased",
          "purchaser": "who paid for the tokens",
          "value": "weis paid for purchase"
        }
      },
      "WithdrawTime(uint256,uint256)": {
        "params": {
          "amount": "total sale balance",
          "date": "collection date"
        }
      }
    },
    "kind": "dev",
    "methods": {
      "_setTokenURI(uint256,string)": {
        "details": "Sets `tokenURI` as the tokenURI of `tokenId`. Requirements: - `tokenId` must exist."
      },
      "approve(address,uint256)": {
        "details": "See {IERC721-approve}."
      },
      "balanceOf(address)": {
        "details": "See {IERC721-balanceOf}."
      },
      "getApproved(uint256)": {
        "details": "See {IERC721-getApproved}."
      },
      "isApprovedForAll(address,address)": {
        "details": "See {IERC721-isApprovedForAll}."
      },
      "name()": {
        "details": "See {IERC721Metadata-name}."
      },
      "owner()": {
        "details": "Returns the address of the current owner."
      },
      "ownerOf(uint256)": {
        "details": "See {IERC721-ownerOf}."
      },
      "renounceOwnership()": {
        "details": "Leaves the contract without owner. It will not be possible to call `onlyOwner` functions anymore. Can only be called by the current owner. NOTE: Renouncing ownership will leave the contract without an owner, thereby removing any functionality that is only available to the owner."
      },
      "safeTransferFrom(address,address,uint256)": {
        "details": "See {IERC721-safeTransferFrom}."
      },
      "safeTransferFrom(address,address,uint256,bytes)": {
        "details": "See {IERC721-safeTransferFrom}."
      },
      "setApprovalForAll(address,bool)": {
        "details": "See {IERC721-setApprovalForAll}."
      },
      "setMinterApproved(address)": {
        "details": "approve an account for mint"
      },
      "setMinterDisapproved(address)": {
        "details": "disapprove an account for mint"
      },
      "supportsInterface(bytes4)": {
        "details": "See {IERC165-supportsInterface}."
      },
      "symbol()": {
        "details": "See {IERC721Metadata-symbol}."
      },
      "tokenByIndex(uint256)": {
        "details": "See {IERC721Enumerable-tokenByIndex}."
      },
      "tokenOfOwnerByIndex(address,uint256)": {
        "details": "See {IERC721Enumerable-tokenOfOwnerByIndex}."
      },
      "tokenURI(uint256)": {
        "details": "See {IERC721Metadata-tokenURI}."
      },
      "tokensOfOwner(address)": {
        "details": "show all the tokens of the owner."
      },
      "totalSupply()": {
        "details": "See {IERC721Enumerable-totalSupply}."
      },
      "transferFrom(address,address,uint256)": {
        "details": "See {IERC721-transferFrom}."
      },
      "transferOwnership(address)": {
        "details": "Transfers ownership of the contract to a new account (`newOwner`). Can only be called by the current owner."
      }
    },
    "version": 1
  },
  "userdoc": {
    "events": {
      "Mint(address,uint256,uint256)": {
        "notice": "Event for token purchase logging"
      },
      "TokenPurchase(address,address,uint256,uint256)": {
        "notice": "Event for token purchase logging"
      },
      "WithdrawTime(uint256,uint256)": {
        "notice": "Event for token purchase logging"
      }
    },
    "kind": "user",
    "methods": {},
    "version": 1
  }
}