{
  "contractName": "BNBCollection",
  "abi": [
    {
      "inputs": [],
      "stateMutability": "nonpayable",
      "type": "constructor"
    },
    {
      "anonymous": false,
      "inputs": [
        {
          "indexed": true,
          "internalType": "address",
          "name": "owner",
          "type": "address"
        },
        {
          "indexed": true,
          "internalType": "address",
          "name": "approved",
          "type": "address"
        },
        {
          "indexed": true,
          "internalType": "uint256",
          "name": "tokenId",
          "type": "uint256"
        }
      ],
      "name": "Approval",
      "type": "event"
    },
    {
      "anonymous": false,
      "inputs": [
        {
          "indexed": true,
          "internalType": "address",
          "name": "owner",
          "type": "address"
        },
        {
          "indexed": true,
          "internalType": "address",
          "name": "operator",
          "type": "address"
        },
        {
          "indexed": false,
          "internalType": "bool",
          "name": "approved",
          "type": "bool"
        }
      ],
      "name": "ApprovalForAll",
      "type": "event"
    },
    {
      "anonymous": false,
      "inputs": [
        {
          "indexed": true,
          "internalType": "address",
          "name": "previousOwner",
          "type": "address"
        },
        {
          "indexed": true,
          "internalType": "address",
          "name": "newOwner",
          "type": "address"
        }
      ],
      "name": "OwnershipTransferred",
      "type": "event"
    },
    {
      "anonymous": false,
      "inputs": [
        {
          "indexed": true,
          "internalType": "address",
          "name": "purchaser",
          "type": "address"
        },
        {
          "indexed": true,
          "internalType": "address",
          "name": "beneficiary",
          "type": "address"
        },
        {
          "indexed": false,
          "internalType": "uint256",
          "name": "value",
          "type": "uint256"
        },
        {
          "indexed": false,
          "internalType": "uint256",
          "name": "idToken",
          "type": "uint256"
        }
      ],
      "name": "TokenPurchase",
      "type": "event"
    },
    {
      "anonymous": false,
      "inputs": [
        {
          "indexed": true,
          "internalType": "address",
          "name": "from",
          "type": "address"
        },
        {
          "indexed": true,
          "internalType": "address",
          "name": "to",
          "type": "address"
        },
        {
          "indexed": true,
          "internalType": "uint256",
          "name": "tokenId",
          "type": "uint256"
        }
      ],
      "name": "Transfer",
      "type": "event"
    },
    {
      "anonymous": false,
      "inputs": [
        {
          "indexed": false,
          "internalType": "uint256",
          "name": "amount",
          "type": "uint256"
        },
        {
          "indexed": false,
          "internalType": "uint256",
          "name": "date",
          "type": "uint256"
        }
      ],
      "name": "WithdrawTime",
      "type": "event"
    },
    {
      "inputs": [],
      "name": "alreadySold",
      "outputs": [
        {
          "internalType": "uint256",
          "name": "",
          "type": "uint256"
        }
      ],
      "stateMutability": "view",
      "type": "function",
      "constant": true
    },
    {
      "inputs": [
        {
          "internalType": "address",
          "name": "to",
          "type": "address"
        },
        {
          "internalType": "uint256",
          "name": "tokenId",
          "type": "uint256"
        }
      ],
      "name": "approve",
      "outputs": [],
      "stateMutability": "nonpayable",
      "type": "function"
    },
    {
      "inputs": [
        {
          "internalType": "address",
          "name": "owner",
          "type": "address"
        }
      ],
      "name": "balanceOf",
      "outputs": [
        {
          "internalType": "uint256",
          "name": "",
          "type": "uint256"
        }
      ],
      "stateMutability": "view",
      "type": "function",
      "constant": true
    },
    {
      "inputs": [
        {
          "internalType": "uint256",
          "name": "tokenId",
          "type": "uint256"
        }
      ],
      "name": "getApproved",
      "outputs": [
        {
          "internalType": "address",
          "name": "",
          "type": "address"
        }
      ],
      "stateMutability": "view",
      "type": "function",
      "constant": true
    },
    {
      "inputs": [
        {
          "internalType": "address",
          "name": "owner",
          "type": "address"
        },
        {
          "internalType": "address",
          "name": "operator",
          "type": "address"
        }
      ],
      "name": "isApprovedForAll",
      "outputs": [
        {
          "internalType": "bool",
          "name": "",
          "type": "bool"
        }
      ],
      "stateMutability": "view",
      "type": "function",
      "constant": true
    },
    {
      "inputs": [],
      "name": "name",
      "outputs": [
        {
          "internalType": "string",
          "name": "",
          "type": "string"
        }
      ],
      "stateMutability": "view",
      "type": "function",
      "constant": true
    },
    {
      "inputs": [],
      "name": "onSale",
      "outputs": [
        {
          "internalType": "uint256",
          "name": "",
          "type": "uint256"
        }
      ],
      "stateMutability": "view",
      "type": "function",
      "constant": true
    },
    {
      "inputs": [],
      "name": "owner",
      "outputs": [
        {
          "internalType": "address",
          "name": "",
          "type": "address"
        }
      ],
      "stateMutability": "view",
      "type": "function",
      "constant": true
    },
    {
      "inputs": [
        {
          "internalType": "uint256",
          "name": "tokenId",
          "type": "uint256"
        }
      ],
      "name": "ownerOf",
      "outputs": [
        {
          "internalType": "address",
          "name": "",
          "type": "address"
        }
      ],
      "stateMutability": "view",
      "type": "function",
      "constant": true
    },
    {
      "inputs": [],
      "name": "renounceOwnership",
      "outputs": [],
      "stateMutability": "nonpayable",
      "type": "function"
    },
    {
      "inputs": [
        {
          "internalType": "address",
          "name": "from",
          "type": "address"
        },
        {
          "internalType": "address",
          "name": "to",
          "type": "address"
        },
        {
          "internalType": "uint256",
          "name": "tokenId",
          "type": "uint256"
        }
      ],
      "name": "safeTransferFrom",
      "outputs": [],
      "stateMutability": "nonpayable",
      "type": "function"
    },
    {
      "inputs": [
        {
          "internalType": "address",
          "name": "from",
          "type": "address"
        },
        {
          "internalType": "address",
          "name": "to",
          "type": "address"
        },
        {
          "internalType": "uint256",
          "name": "tokenId",
          "type": "uint256"
        },
        {
          "internalType": "bytes",
          "name": "_data",
          "type": "bytes"
        }
      ],
      "name": "safeTransferFrom",
      "outputs": [],
      "stateMutability": "nonpayable",
      "type": "function"
    },
    {
      "inputs": [],
      "name": "saleIsActive",
      "outputs": [
        {
          "internalType": "bool",
          "name": "",
          "type": "bool"
        }
      ],
      "stateMutability": "view",
      "type": "function",
      "constant": true
    },
    {
      "inputs": [
        {
          "internalType": "address",
          "name": "operator",
          "type": "address"
        },
        {
          "internalType": "bool",
          "name": "approved",
          "type": "bool"
        }
      ],
      "name": "setApprovalForAll",
      "outputs": [],
      "stateMutability": "nonpayable",
      "type": "function"
    },
    {
      "inputs": [],
      "name": "symbol",
      "outputs": [
        {
          "internalType": "string",
          "name": "",
          "type": "string"
        }
      ],
      "stateMutability": "view",
      "type": "function",
      "constant": true
    },
    {
      "inputs": [
        {
          "internalType": "uint256",
          "name": "index",
          "type": "uint256"
        }
      ],
      "name": "tokenByIndex",
      "outputs": [
        {
          "internalType": "uint256",
          "name": "",
          "type": "uint256"
        }
      ],
      "stateMutability": "view",
      "type": "function",
      "constant": true
    },
    {
      "inputs": [
        {
          "internalType": "address",
          "name": "owner",
          "type": "address"
        },
        {
          "internalType": "uint256",
          "name": "index",
          "type": "uint256"
        }
      ],
      "name": "tokenOfOwnerByIndex",
      "outputs": [
        {
          "internalType": "uint256",
          "name": "",
          "type": "uint256"
        }
      ],
      "stateMutability": "view",
      "type": "function",
      "constant": true
    },
    {
      "inputs": [],
      "name": "tokenPrice",
      "outputs": [
        {
          "internalType": "uint256",
          "name": "",
          "type": "uint256"
        }
      ],
      "stateMutability": "view",
      "type": "function",
      "constant": true
    },
    {
      "inputs": [
        {
          "internalType": "uint256",
          "name": "",
          "type": "uint256"
        }
      ],
      "name": "tokenURIs",
      "outputs": [
        {
          "internalType": "string",
          "name": "",
          "type": "string"
        }
      ],
      "stateMutability": "view",
      "type": "function",
      "constant": true
    },
    {
      "inputs": [],
      "name": "totalSupply",
      "outputs": [
        {
          "internalType": "uint256",
          "name": "",
          "type": "uint256"
        }
      ],
      "stateMutability": "view",
      "type": "function",
      "constant": true
    },
    {
      "inputs": [
        {
          "internalType": "address",
          "name": "from",
          "type": "address"
        },
        {
          "internalType": "address",
          "name": "to",
          "type": "address"
        },
        {
          "internalType": "uint256",
          "name": "tokenId",
          "type": "uint256"
        }
      ],
      "name": "transferFrom",
      "outputs": [],
      "stateMutability": "nonpayable",
      "type": "function"
    },
    {
      "inputs": [
        {
          "internalType": "address",
          "name": "newOwner",
          "type": "address"
        }
      ],
      "name": "transferOwnership",
      "outputs": [],
      "stateMutability": "nonpayable",
      "type": "function"
    },
    {
      "inputs": [
        {
          "internalType": "bytes4",
          "name": "interfaceId",
          "type": "bytes4"
        }
      ],
      "name": "supportsInterface",
      "outputs": [
        {
          "internalType": "bool",
          "name": "",
          "type": "bool"
        }
      ],
      "stateMutability": "view",
      "type": "function",
      "constant": true
    },
    {
      "inputs": [
        {
          "internalType": "uint256",
          "name": "tokenId",
          "type": "uint256"
        }
      ],
      "name": "tokenURI",
      "outputs": [
        {
          "internalType": "string",
          "name": "",
          "type": "string"
        }
      ],
      "stateMutability": "view",
      "type": "function",
      "constant": true
    },
    {
      "inputs": [
        {
          "internalType": "string",
          "name": "_tokenURI",
          "type": "string"
        }
      ],
      "name": "safeMint",
      "outputs": [],
      "stateMutability": "nonpayable",
      "type": "function"
    },
    {
      "inputs": [
        {
          "internalType": "address",
          "name": "buyer",
          "type": "address"
        }
      ],
      "name": "saleMintToken",
      "outputs": [],
      "stateMutability": "payable",
      "type": "function",
      "payable": true
    },
    {
      "inputs": [],
      "name": "flipSaleState",
      "outputs": [],
      "stateMutability": "nonpayable",
      "type": "function"
    },
    {
      "inputs": [],
      "name": "prepareSale",
      "outputs": [],
      "stateMutability": "nonpayable",
      "type": "function"
    },
    {
      "inputs": [],
      "name": "withdraw",
      "outputs": [],
      "stateMutability": "nonpayable",
      "type": "function"
    },
    {
      "inputs": [
        {
          "internalType": "address",
          "name": "owner",
          "type": "address"
        }
      ],
      "name": "tokensOfOwner",
      "outputs": [
        {
          "internalType": "uint256[]",
          "name": "",
          "type": "uint256[]"
        }
      ],
      "stateMutability": "view",
      "type": "function",
      "constant": true
    }
  ],
  "bytecode": "0x6080604052670429d069189e00006011553480156200001d57600080fd5b506040518060400160405280601881526020017f4d616c616e66746472696e657220436f6c6c656374696f6e00000000000000008152506040518060400160405280600581526020017f4d4c4e46540000000000000000000000000000000000000000000000000000008152508160009080519060200190620000a2929190620001b2565b508060019080519060200190620000bb929190620001b2565b505050620000de620000d2620000e460201b60201c565b620000ec60201b60201c565b620002c7565b600033905090565b6000600a60009054906101000a900473ffffffffffffffffffffffffffffffffffffffff16905081600a60006101000a81548173ffffffffffffffffffffffffffffffffffffffff021916908373ffffffffffffffffffffffffffffffffffffffff1602179055508173ffffffffffffffffffffffffffffffffffffffff168173ffffffffffffffffffffffffffffffffffffffff167f8be0079c531659141344cd1fd0a4f28419497f9722a3daafe3b4186f6b6457e060405160405180910390a35050565b828054620001c09062000291565b90600052602060002090601f016020900481019282620001e4576000855562000230565b82601f10620001ff57805160ff191683800117855562000230565b8280016001018555821562000230579182015b828111156200022f57825182559160200191906001019062000212565b5b5090506200023f919062000243565b5090565b5b808211156200025e57600081600090555060010162000244565b5090565b7f4e487b7100000000000000000000000000000000000000000000000000000000600052602260045260246000fd5b60006002820490506001821680620002aa57607f821691505b60208210811415620002c157620002c062000262565b5b50919050565b613fc580620002d76000396000f3fe6080604052600436106101cd5760003560e01c8063695850fb116100f757806395d89b4111610095578063c87b56dd11610064578063c87b56dd14610655578063e985e9c514610692578063eb8d2444146106cf578063f2fde38b146106fa576101cd565b806395d89b41146105bc578063a22cb465146105e7578063a9b3b0c114610610578063b88d4fde1461062c576101cd565b8063715018a6116100d1578063715018a6146105125780637ff9b596146105295780638462151c146105545780638da5cb5b14610591576101cd565b8063695850fb1461046f5780636c8b703f1461049857806370a08231146104d5576101cd565b8063326687b91161016f5780634d2db81f1161013e5780634d2db81f146103b35780634f6ccce7146103de57806350017e5e1461041b5780636352211e14610432576101cd565b8063326687b91461033157806334918dfd1461035c5780633ccfd60b1461037357806342842e0e1461038a576101cd565b8063095ea7b3116101ab578063095ea7b31461027757806318160ddd146102a057806323b872dd146102cb5780632f745c59146102f4576101cd565b806301ffc9a7146101d257806306fdde031461020f578063081812fc1461023a575b600080fd5b3480156101de57600080fd5b506101f960048036038101906101f491906129a6565b610723565b60405161020691906129ee565b60405180910390f35b34801561021b57600080fd5b50610224610735565b6040516102319190612aa2565b60405180910390f35b34801561024657600080fd5b50610261600480360381019061025c9190612afa565b6107c7565b60405161026e9190612b68565b60405180910390f35b34801561028357600080fd5b5061029e60048036038101906102999190612baf565b61084c565b005b3480156102ac57600080fd5b506102b5610964565b6040516102c29190612bfe565b60405180910390f35b3480156102d757600080fd5b506102f260048036038101906102ed9190612c19565b610971565b005b34801561030057600080fd5b5061031b60048036038101906103169190612baf565b6109d1565b6040516103289190612bfe565b60405180910390f35b34801561033d57600080fd5b50610346610a76565b6040516103539190612bfe565b60405180910390f35b34801561036857600080fd5b50610371610a7c565b005b34801561037f57600080fd5b50610388610b24565b005b34801561039657600080fd5b506103b160048036038101906103ac9190612c19565b610c30565b005b3480156103bf57600080fd5b506103c8610c50565b6040516103d59190612bfe565b60405180910390f35b3480156103ea57600080fd5b5061040560048036038101906104009190612afa565b610c56565b6040516104129190612bfe565b60405180910390f35b34801561042757600080fd5b50610430610cc7565b005b34801561043e57600080fd5b5061045960048036038101906104549190612afa565b610d64565b6040516104669190612b68565b60405180910390f35b34801561047b57600080fd5b5061049660048036038101906104919190612da1565b610e16565b005b3480156104a457600080fd5b506104bf60048036038101906104ba9190612afa565b610fb1565b6040516104cc9190612aa2565b60405180910390f35b3480156104e157600080fd5b506104fc60048036038101906104f79190612dea565b61105d565b6040516105099190612bfe565b60405180910390f35b34801561051e57600080fd5b50610527611115565b005b34801561053557600080fd5b5061053e61119d565b60405161054b9190612bfe565b60405180910390f35b34801561056057600080fd5b5061057b60048036038101906105769190612dea565b6111a3565b6040516105889190612ed5565b60405180910390f35b34801561059d57600080fd5b506105a6611251565b6040516105b39190612b68565b60405180910390f35b3480156105c857600080fd5b506105d161127b565b6040516105de9190612aa2565b60405180910390f35b3480156105f357600080fd5b5061060e60048036038101906106099190612f23565b61130d565b005b61062a60048036038101906106259190612dea565b611323565b005b34801561063857600080fd5b50610653600480360381019061064e9190613004565b6114dc565b005b34801561066157600080fd5b5061067c60048036038101906106779190612afa565b61153e565b6040516106899190612aa2565b60405180910390f35b34801561069e57600080fd5b506106b960048036038101906106b49190613087565b61162b565b6040516106c691906129ee565b60405180910390f35b3480156106db57600080fd5b506106e46116bf565b6040516106f191906129ee565b60405180910390f35b34801561070657600080fd5b50610721600480360381019061071c9190612dea565b6116d2565b005b600061072e826117ca565b9050919050565b606060008054610744906130f6565b80601f0160208091040260200160405190810160405280929190818152602001828054610770906130f6565b80156107bd5780601f10610792576101008083540402835291602001916107bd565b820191906000526020600020905b8154815290600101906020018083116107a057829003601f168201915b5050505050905090565b60006107d282611844565b610811576040517f08c379a00000000000000000000000000000000000000000000000000000000081526004016108089061319a565b60405180910390fd5b6004600083815260200190815260200160002060009054906101000a900473ffffffffffffffffffffffffffffffffffffffff169050919050565b600061085782610d64565b90508073ffffffffffffffffffffffffffffffffffffffff168373ffffffffffffffffffffffffffffffffffffffff1614156108c8576040517f08c379a00000000000000000000000000000000000000000000000000000000081526004016108bf9061322c565b60405180910390fd5b8073ffffffffffffffffffffffffffffffffffffffff166108e76118b0565b73ffffffffffffffffffffffffffffffffffffffff1614806109165750610915816109106118b0565b61162b565b5b610955576040517f08c379a000000000000000000000000000000000000000000000000000000000815260040161094c906132be565b60405180910390fd5b61095f83836118b8565b505050565b6000600880549050905090565b61098261097c6118b0565b82611971565b6109c1576040517f08c379a00000000000000000000000000000000000000000000000000000000081526004016109b890613350565b60405180910390fd5b6109cc838383611a4f565b505050565b60006109dc8361105d565b8210610a1d576040517f08c379a0000000000000000000000000000000000000000000000000000000008152600401610a14906133e2565b60405180910390fd5b600660008473ffffffffffffffffffffffffffffffffffffffff1673ffffffffffffffffffffffffffffffffffffffff168152602001908152602001600020600083815260200190815260200160002054905092915050565b600f5481565b610a846118b0565b73ffffffffffffffffffffffffffffffffffffffff16610aa2611251565b73ffffffffffffffffffffffffffffffffffffffff1614610af8576040517f08c379a0000000000000000000000000000000000000000000000000000000008152600401610aef9061344e565b60405180910390fd5b601060009054906101000a900460ff1615601060006101000a81548160ff021916908315150217905550565b610b2c6118b0565b73ffffffffffffffffffffffffffffffffffffffff16610b4a611251565b73ffffffffffffffffffffffffffffffffffffffff1614610ba0576040517f08c379a0000000000000000000000000000000000000000000000000000000008152600401610b979061344e565b60405180910390fd5b60004790503373ffffffffffffffffffffffffffffffffffffffff166108fc829081150290604051600060405180830381858888f19350505050158015610beb573d6000803e3d6000fd5b50610bf4610a7c565b7f340eda84c45ce2835fc1d07babdc92122b7d0c5ebf24b5065984e2d2f38dfbcf8142604051610c2592919061346e565b60405180910390a150565b610c4b838383604051806020016040528060008152506114dc565b505050565b600e5481565b6000610c60610964565b8210610ca1576040517f08c379a0000000000000000000000000000000000000000000000000000000008152600401610c9890613509565b60405180910390fd5b60088281548110610cb557610cb4613529565b5b90600052602060002001549050919050565b610ccf6118b0565b73ffffffffffffffffffffffffffffffffffffffff16610ced611251565b73ffffffffffffffffffffffffffffffffffffffff1614610d43576040517f08c379a0000000000000000000000000000000000000000000000000000000008152600401610d3a9061344e565b60405180910390fd5b6000600b805490509050600e5481610d5b9190613587565b600f8190555050565b6000806002600084815260200190815260200160002060009054906101000a900473ffffffffffffffffffffffffffffffffffffffff169050600073ffffffffffffffffffffffffffffffffffffffff168173ffffffffffffffffffffffffffffffffffffffff161415610e0d576040517f08c379a0000000000000000000000000000000000000000000000000000000008152600401610e049061362d565b60405180910390fd5b80915050919050565b610e1e6118b0565b73ffffffffffffffffffffffffffffffffffffffff16610e3c611251565b73ffffffffffffffffffffffffffffffffffffffff1614610e92576040517f08c379a0000000000000000000000000000000000000000000000000000000008152600401610e899061344e565b60405180910390fd5b600c81604051610ea29190613689565b908152602001604051809103902060009054906101000a900460ff1615610efe576040517f08c379a0000000000000000000000000000000000000000000000000000000008152600401610ef5906136ec565b60405180910390fd5b600b81908060018154018082558091505060019003906000526020600020016000909190919091509080519060200190610f39929190612897565b506000600b80549050905081600d60008381526020019081526020016000209080519060200190610f6b929190612897565b50610f763382611cab565b6001600c83604051610f889190613689565b908152602001604051809103902060006101000a81548160ff0219169083151502179055505050565b600b8181548110610fc157600080fd5b906000526020600020016000915090508054610fdc906130f6565b80601f0160208091040260200160405190810160405280929190818152602001828054611008906130f6565b80156110555780601f1061102a57610100808354040283529160200191611055565b820191906000526020600020905b81548152906001019060200180831161103857829003601f168201915b505050505081565b60008073ffffffffffffffffffffffffffffffffffffffff168273ffffffffffffffffffffffffffffffffffffffff1614156110ce576040517f08c379a00000000000000000000000000000000000000000000000000000000081526004016110c59061377e565b60405180910390fd5b600360008373ffffffffffffffffffffffffffffffffffffffff1673ffffffffffffffffffffffffffffffffffffffff168152602001908152602001600020549050919050565b61111d6118b0565b73ffffffffffffffffffffffffffffffffffffffff1661113b611251565b73ffffffffffffffffffffffffffffffffffffffff1614611191576040517f08c379a00000000000000000000000000000000000000000000000000000000081526004016111889061344e565b60405180910390fd5b61119b6000611cc9565b565b60115481565b606060006111b08361105d565b905060008167ffffffffffffffff8111156111ce576111cd612c76565b5b6040519080825280602002602001820160405280156111fc5781602001602082028036833780820191505090505b50905060005b828110156112465761121485826109d1565b82828151811061122757611226613529565b5b602002602001018181525050808061123e9061379e565b915050611202565b508092505050919050565b6000600a60009054906101000a900473ffffffffffffffffffffffffffffffffffffffff16905090565b60606001805461128a906130f6565b80601f01602080910402602001604051908101604052809291908181526020018280546112b6906130f6565b80156113035780601f106112d857610100808354040283529160200191611303565b820191906000526020600020905b8154815290600101906020018083116112e657829003601f168201915b5050505050905090565b61131f6113186118b0565b8383611d8f565b5050565b601060009054906101000a900460ff16611372576040517f08c379a000000000000000000000000000000000000000000000000000000000815260040161136990613859565b60405180910390fd5b6000600f5414156113b8576040517f08c379a00000000000000000000000000000000000000000000000000000000081526004016113af906138c5565b60405180910390fd5b6011543410156113fd576040517f08c379a00000000000000000000000000000000000000000000000000000000081526004016113f490613957565b60405180910390fd5b6000600f5461140a610964565b6114149190613587565b9050611434611421611251565b8360018461142f9190613977565b611a4f565b8173ffffffffffffffffffffffffffffffffffffffff16611453611251565b73ffffffffffffffffffffffffffffffffffffffff167f623b3804fa71d67900d064613da8f94b9617215ee90799290593e1745087ad18346001856114989190613977565b6040516114a692919061346e565b60405180910390a36001600f546114bd9190613587565b600f819055506001600e546114d29190613977565b600e819055505050565b6114ed6114e76118b0565b83611971565b61152c576040517f08c379a000000000000000000000000000000000000000000000000000000000815260040161152390613350565b60405180910390fd5b61153884848484611efc565b50505050565b606061154982611844565b611588576040517f08c379a000000000000000000000000000000000000000000000000000000000815260040161157f90613a3f565b60405180910390fd5b600d600083815260200190815260200160002080546115a6906130f6565b80601f01602080910402602001604051908101604052809291908181526020018280546115d2906130f6565b801561161f5780601f106115f45761010080835404028352916020019161161f565b820191906000526020600020905b81548152906001019060200180831161160257829003601f168201915b50505050509050919050565b6000600560008473ffffffffffffffffffffffffffffffffffffffff1673ffffffffffffffffffffffffffffffffffffffff16815260200190815260200160002060008373ffffffffffffffffffffffffffffffffffffffff1673ffffffffffffffffffffffffffffffffffffffff16815260200190815260200160002060009054906101000a900460ff16905092915050565b601060009054906101000a900460ff1681565b6116da6118b0565b73ffffffffffffffffffffffffffffffffffffffff166116f8611251565b73ffffffffffffffffffffffffffffffffffffffff161461174e576040517f08c379a00000000000000000000000000000000000000000000000000000000081526004016117459061344e565b60405180910390fd5b600073ffffffffffffffffffffffffffffffffffffffff168173ffffffffffffffffffffffffffffffffffffffff1614156117be576040517f08c379a00000000000000000000000000000000000000000000000000000000081526004016117b590613ad1565b60405180910390fd5b6117c781611cc9565b50565b60007f780e9d63000000000000000000000000000000000000000000000000000000007bffffffffffffffffffffffffffffffffffffffffffffffffffffffff1916827bffffffffffffffffffffffffffffffffffffffffffffffffffffffff1916148061183d575061183c82611f58565b5b9050919050565b60008073ffffffffffffffffffffffffffffffffffffffff166002600084815260200190815260200160002060009054906101000a900473ffffffffffffffffffffffffffffffffffffffff1673ffffffffffffffffffffffffffffffffffffffff1614159050919050565b600033905090565b816004600083815260200190815260200160002060006101000a81548173ffffffffffffffffffffffffffffffffffffffff021916908373ffffffffffffffffffffffffffffffffffffffff160217905550808273ffffffffffffffffffffffffffffffffffffffff1661192b83610d64565b73ffffffffffffffffffffffffffffffffffffffff167f8c5be1e5ebec7d5bd14f71427d1e84f3dd0314c0f7b2291e5b200ac8c7c3b92560405160405180910390a45050565b600061197c82611844565b6119bb576040517f08c379a00000000000000000000000000000000000000000000000000000000081526004016119b290613b63565b60405180910390fd5b60006119c683610d64565b90508073ffffffffffffffffffffffffffffffffffffffff168473ffffffffffffffffffffffffffffffffffffffff161480611a3557508373ffffffffffffffffffffffffffffffffffffffff16611a1d846107c7565b73ffffffffffffffffffffffffffffffffffffffff16145b80611a465750611a45818561162b565b5b91505092915050565b8273ffffffffffffffffffffffffffffffffffffffff16611a6f82610d64565b73ffffffffffffffffffffffffffffffffffffffff1614611ac5576040517f08c379a0000000000000000000000000000000000000000000000000000000008152600401611abc90613bf5565b60405180910390fd5b600073ffffffffffffffffffffffffffffffffffffffff168273ffffffffffffffffffffffffffffffffffffffff161415611b35576040517f08c379a0000000000000000000000000000000000000000000000000000000008152600401611b2c90613c87565b60405180910390fd5b611b4083838361203a565b611b4b6000826118b8565b6001600360008573ffffffffffffffffffffffffffffffffffffffff1673ffffffffffffffffffffffffffffffffffffffff1681526020019081526020016000206000828254611b9b9190613587565b925050819055506001600360008473ffffffffffffffffffffffffffffffffffffffff1673ffffffffffffffffffffffffffffffffffffffff1681526020019081526020016000206000828254611bf29190613977565b92505081905550816002600083815260200190815260200160002060006101000a81548173ffffffffffffffffffffffffffffffffffffffff021916908373ffffffffffffffffffffffffffffffffffffffff160217905550808273ffffffffffffffffffffffffffffffffffffffff168473ffffffffffffffffffffffffffffffffffffffff167fddf252ad1be2c89b69c2b068fc378daa952ba7f163c4a11628f55a4df523b3ef60405160405180910390a4505050565b611cc582826040518060200160405280600081525061204a565b5050565b6000600a60009054906101000a900473ffffffffffffffffffffffffffffffffffffffff16905081600a60006101000a81548173ffffffffffffffffffffffffffffffffffffffff021916908373ffffffffffffffffffffffffffffffffffffffff1602179055508173ffffffffffffffffffffffffffffffffffffffff168173ffffffffffffffffffffffffffffffffffffffff167f8be0079c531659141344cd1fd0a4f28419497f9722a3daafe3b4186f6b6457e060405160405180910390a35050565b8173ffffffffffffffffffffffffffffffffffffffff168373ffffffffffffffffffffffffffffffffffffffff161415611dfe576040517f08c379a0000000000000000000000000000000000000000000000000000000008152600401611df590613cf3565b60405180910390fd5b80600560008573ffffffffffffffffffffffffffffffffffffffff1673ffffffffffffffffffffffffffffffffffffffff16815260200190815260200160002060008473ffffffffffffffffffffffffffffffffffffffff1673ffffffffffffffffffffffffffffffffffffffff16815260200190815260200160002060006101000a81548160ff0219169083151502179055508173ffffffffffffffffffffffffffffffffffffffff168373ffffffffffffffffffffffffffffffffffffffff167f17307eab39ab6107e8899845ad3d59bd9653f200f220920489ca2b5937696c3183604051611eef91906129ee565b60405180910390a3505050565b611f07848484611a4f565b611f13848484846120a5565b611f52576040517f08c379a0000000000000000000000000000000000000000000000000000000008152600401611f4990613d85565b60405180910390fd5b50505050565b60007f80ac58cd000000000000000000000000000000000000000000000000000000007bffffffffffffffffffffffffffffffffffffffffffffffffffffffff1916827bffffffffffffffffffffffffffffffffffffffffffffffffffffffff1916148061202357507f5b5e139f000000000000000000000000000000000000000000000000000000007bffffffffffffffffffffffffffffffffffffffffffffffffffffffff1916827bffffffffffffffffffffffffffffffffffffffffffffffffffffffff1916145b8061203357506120328261222d565b5b9050919050565b612045838383612297565b505050565b61205483836123ab565b61206160008484846120a5565b6120a0576040517f08c379a000000000000000000000000000000000000000000000000000000000815260040161209790613d85565b60405180910390fd5b505050565b60006120c68473ffffffffffffffffffffffffffffffffffffffff16612579565b15612220578373ffffffffffffffffffffffffffffffffffffffff1663150b7a026120ef6118b0565b8786866040518563ffffffff1660e01b81526004016121119493929190613dfa565b6020604051808303816000875af192505050801561214d57506040513d601f19601f8201168201806040525081019061214a9190613e5b565b60015b6121d0573d806000811461217d576040519150601f19603f3d011682016040523d82523d6000602084013e612182565b606091505b506000815114156121c8576040517f08c379a00000000000000000000000000000000000000000000000000000000081526004016121bf90613d85565b60405180910390fd5b805181602001fd5b63150b7a0260e01b7bffffffffffffffffffffffffffffffffffffffffffffffffffffffff1916817bffffffffffffffffffffffffffffffffffffffffffffffffffffffff191614915050612225565b600190505b949350505050565b60007f01ffc9a7000000000000000000000000000000000000000000000000000000007bffffffffffffffffffffffffffffffffffffffffffffffffffffffff1916827bffffffffffffffffffffffffffffffffffffffffffffffffffffffff1916149050919050565b6122a283838361258c565b600073ffffffffffffffffffffffffffffffffffffffff168373ffffffffffffffffffffffffffffffffffffffff1614156122e5576122e081612591565b612324565b8173ffffffffffffffffffffffffffffffffffffffff168373ffffffffffffffffffffffffffffffffffffffff16146123235761232283826125da565b5b5b600073ffffffffffffffffffffffffffffffffffffffff168273ffffffffffffffffffffffffffffffffffffffff1614156123675761236281612747565b6123a6565b8273ffffffffffffffffffffffffffffffffffffffff168273ffffffffffffffffffffffffffffffffffffffff16146123a5576123a48282612818565b5b5b505050565b600073ffffffffffffffffffffffffffffffffffffffff168273ffffffffffffffffffffffffffffffffffffffff16141561241b576040517f08c379a000000000000000000000000000000000000000000000000000000000815260040161241290613ed4565b60405180910390fd5b61242481611844565b15612464576040517f08c379a000000000000000000000000000000000000000000000000000000000815260040161245b90613f40565b60405180910390fd5b6124706000838361203a565b6001600360008473ffffffffffffffffffffffffffffffffffffffff1673ffffffffffffffffffffffffffffffffffffffff16815260200190815260200160002060008282546124c09190613977565b92505081905550816002600083815260200190815260200160002060006101000a81548173ffffffffffffffffffffffffffffffffffffffff021916908373ffffffffffffffffffffffffffffffffffffffff160217905550808273ffffffffffffffffffffffffffffffffffffffff16600073ffffffffffffffffffffffffffffffffffffffff167fddf252ad1be2c89b69c2b068fc378daa952ba7f163c4a11628f55a4df523b3ef60405160405180910390a45050565b600080823b905060008111915050919050565b505050565b6008805490506009600083815260200190815260200160002081905550600881908060018154018082558091505060019003906000526020600020016000909190919091505550565b600060016125e78461105d565b6125f19190613587565b90506000600760008481526020019081526020016000205490508181146126d6576000600660008673ffffffffffffffffffffffffffffffffffffffff1673ffffffffffffffffffffffffffffffffffffffff168152602001908152602001600020600084815260200190815260200160002054905080600660008773ffffffffffffffffffffffffffffffffffffffff1673ffffffffffffffffffffffffffffffffffffffff168152602001908152602001600020600084815260200190815260200160002081905550816007600083815260200190815260200160002081905550505b6007600084815260200190815260200160002060009055600660008573ffffffffffffffffffffffffffffffffffffffff1673ffffffffffffffffffffffffffffffffffffffff16815260200190815260200160002060008381526020019081526020016000206000905550505050565b6000600160088054905061275b9190613587565b905060006009600084815260200190815260200160002054905060006008838154811061278b5761278a613529565b5b9060005260206000200154905080600883815481106127ad576127ac613529565b5b9060005260206000200181905550816009600083815260200190815260200160002081905550600960008581526020019081526020016000206000905560088054806127fc576127fb613f60565b5b6001900381819060005260206000200160009055905550505050565b60006128238361105d565b905081600660008573ffffffffffffffffffffffffffffffffffffffff1673ffffffffffffffffffffffffffffffffffffffff168152602001908152602001600020600083815260200190815260200160002081905550806007600084815260200190815260200160002081905550505050565b8280546128a3906130f6565b90600052602060002090601f0160209004810192826128c5576000855561290c565b82601f106128de57805160ff191683800117855561290c565b8280016001018555821561290c579182015b8281111561290b5782518255916020019190600101906128f0565b5b509050612919919061291d565b5090565b5b8082111561293657600081600090555060010161291e565b5090565b6000604051905090565b600080fd5b600080fd5b60007fffffffff0000000000000000000000000000000000000000000000000000000082169050919050565b6129838161294e565b811461298e57600080fd5b50565b6000813590506129a08161297a565b92915050565b6000602082840312156129bc576129bb612944565b5b60006129ca84828501612991565b91505092915050565b60008115159050919050565b6129e8816129d3565b82525050565b6000602082019050612a0360008301846129df565b92915050565b600081519050919050565b600082825260208201905092915050565b60005b83811015612a43578082015181840152602081019050612a28565b83811115612a52576000848401525b50505050565b6000601f19601f8301169050919050565b6000612a7482612a09565b612a7e8185612a14565b9350612a8e818560208601612a25565b612a9781612a58565b840191505092915050565b60006020820190508181036000830152612abc8184612a69565b905092915050565b6000819050919050565b612ad781612ac4565b8114612ae257600080fd5b50565b600081359050612af481612ace565b92915050565b600060208284031215612b1057612b0f612944565b5b6000612b1e84828501612ae5565b91505092915050565b600073ffffffffffffffffffffffffffffffffffffffff82169050919050565b6000612b5282612b27565b9050919050565b612b6281612b47565b82525050565b6000602082019050612b7d6000830184612b59565b92915050565b612b8c81612b47565b8114612b9757600080fd5b50565b600081359050612ba981612b83565b92915050565b60008060408385031215612bc657612bc5612944565b5b6000612bd485828601612b9a565b9250506020612be585828601612ae5565b9150509250929050565b612bf881612ac4565b82525050565b6000602082019050612c136000830184612bef565b92915050565b600080600060608486031215612c3257612c31612944565b5b6000612c4086828701612b9a565b9350506020612c5186828701612b9a565b9250506040612c6286828701612ae5565b9150509250925092565b600080fd5b600080fd5b7f4e487b7100000000000000000000000000000000000000000000000000000000600052604160045260246000fd5b612cae82612a58565b810181811067ffffffffffffffff82111715612ccd57612ccc612c76565b5b80604052505050565b6000612ce061293a565b9050612cec8282612ca5565b919050565b600067ffffffffffffffff821115612d0c57612d0b612c76565b5b612d1582612a58565b9050602081019050919050565b82818337600083830152505050565b6000612d44612d3f84612cf1565b612cd6565b905082815260208101848484011115612d6057612d5f612c71565b5b612d6b848285612d22565b509392505050565b600082601f830112612d8857612d87612c6c565b5b8135612d98848260208601612d31565b91505092915050565b600060208284031215612db757612db6612944565b5b600082013567ffffffffffffffff811115612dd557612dd4612949565b5b612de184828501612d73565b91505092915050565b600060208284031215612e0057612dff612944565b5b6000612e0e84828501612b9a565b91505092915050565b600081519050919050565b600082825260208201905092915050565b6000819050602082019050919050565b612e4c81612ac4565b82525050565b6000612e5e8383612e43565b60208301905092915050565b6000602082019050919050565b6000612e8282612e17565b612e8c8185612e22565b9350612e9783612e33565b8060005b83811015612ec8578151612eaf8882612e52565b9750612eba83612e6a565b925050600181019050612e9b565b5085935050505092915050565b60006020820190508181036000830152612eef8184612e77565b905092915050565b612f00816129d3565b8114612f0b57600080fd5b50565b600081359050612f1d81612ef7565b92915050565b60008060408385031215612f3a57612f39612944565b5b6000612f4885828601612b9a565b9250506020612f5985828601612f0e565b9150509250929050565b600067ffffffffffffffff821115612f7e57612f7d612c76565b5b612f8782612a58565b9050602081019050919050565b6000612fa7612fa284612f63565b612cd6565b905082815260208101848484011115612fc357612fc2612c71565b5b612fce848285612d22565b509392505050565b600082601f830112612feb57612fea612c6c565b5b8135612ffb848260208601612f94565b91505092915050565b6000806000806080858703121561301e5761301d612944565b5b600061302c87828801612b9a565b945050602061303d87828801612b9a565b935050604061304e87828801612ae5565b925050606085013567ffffffffffffffff81111561306f5761306e612949565b5b61307b87828801612fd6565b91505092959194509250565b6000806040838503121561309e5761309d612944565b5b60006130ac85828601612b9a565b92505060206130bd85828601612b9a565b9150509250929050565b7f4e487b7100000000000000000000000000000000000000000000000000000000600052602260045260246000fd5b6000600282049050600182168061310e57607f821691505b60208210811415613122576131216130c7565b5b50919050565b7f4552433732313a20617070726f76656420717565727920666f72206e6f6e657860008201527f697374656e7420746f6b656e0000000000000000000000000000000000000000602082015250565b6000613184602c83612a14565b915061318f82613128565b604082019050919050565b600060208201905081810360008301526131b381613177565b9050919050565b7f4552433732313a20617070726f76616c20746f2063757272656e74206f776e6560008201527f7200000000000000000000000000000000000000000000000000000000000000602082015250565b6000613216602183612a14565b9150613221826131ba565b604082019050919050565b6000602082019050818103600083015261324581613209565b9050919050565b7f4552433732313a20617070726f76652063616c6c6572206973206e6f74206f7760008201527f6e6572206e6f7220617070726f76656420666f7220616c6c0000000000000000602082015250565b60006132a8603883612a14565b91506132b38261324c565b604082019050919050565b600060208201905081810360008301526132d78161329b565b9050919050565b7f4552433732313a207472616e736665722063616c6c6572206973206e6f74206f60008201527f776e6572206e6f7220617070726f766564000000000000000000000000000000602082015250565b600061333a603183612a14565b9150613345826132de565b604082019050919050565b600060208201905081810360008301526133698161332d565b9050919050565b7f455243373231456e756d657261626c653a206f776e657220696e646578206f7560008201527f74206f6620626f756e6473000000000000000000000000000000000000000000602082015250565b60006133cc602b83612a14565b91506133d782613370565b604082019050919050565b600060208201905081810360008301526133fb816133bf565b9050919050565b7f4f776e61626c653a2063616c6c6572206973206e6f7420746865206f776e6572600082015250565b6000613438602083612a14565b915061344382613402565b602082019050919050565b600060208201905081810360008301526134678161342b565b9050919050565b60006040820190506134836000830185612bef565b6134906020830184612bef565b9392505050565b7f455243373231456e756d657261626c653a20676c6f62616c20696e646578206f60008201527f7574206f6620626f756e64730000000000000000000000000000000000000000602082015250565b60006134f3602c83612a14565b91506134fe82613497565b604082019050919050565b60006020820190508181036000830152613522816134e6565b9050919050565b7f4e487b7100000000000000000000000000000000000000000000000000000000600052603260045260246000fd5b7f4e487b7100000000000000000000000000000000000000000000000000000000600052601160045260246000fd5b600061359282612ac4565b915061359d83612ac4565b9250828210156135b0576135af613558565b5b828203905092915050565b7f4552433732313a206f776e657220717565727920666f72206e6f6e657869737460008201527f656e7420746f6b656e0000000000000000000000000000000000000000000000602082015250565b6000613617602983612a14565b9150613622826135bb565b604082019050919050565b600060208201905081810360008301526136468161360a565b9050919050565b600081905092915050565b600061366382612a09565b61366d818561364d565b935061367d818560208601612a25565b80840191505092915050565b60006136958284613658565b915081905092915050565b7f54686520746f6b656e205552492073686f756c6420626520756e697175650000600082015250565b60006136d6601e83612a14565b91506136e1826136a0565b602082019050919050565b60006020820190508181036000830152613705816136c9565b9050919050565b7f4552433732313a2062616c616e636520717565727920666f7220746865207a6560008201527f726f206164647265737300000000000000000000000000000000000000000000602082015250565b6000613768602a83612a14565b91506137738261370c565b604082019050919050565b600060208201905081810360008301526137978161375b565b9050919050565b60006137a982612ac4565b91507fffffffffffffffffffffffffffffffffffffffffffffffffffffffffffffffff8214156137dc576137db613558565b5b600182019050919050565b7f53616c65206d7573742062652061637469766520746f2062757920546f6b656e60008201527f7300000000000000000000000000000000000000000000000000000000000000602082015250565b6000613843602183612a14565b915061384e826137e7565b604082019050919050565b6000602082019050818103600083015261387281613836565b9050919050565b7f546865726520617265206e6f20746f6b656e7320746f20627579000000000000600082015250565b60006138af601a83612a14565b91506138ba82613879565b602082019050919050565b600060208201905081810360008301526138de816138a2565b9050919050565b7f76616c75652073656e74206e6565647320746f2062652061746c65617374207360008201527f616c652070726963650000000000000000000000000000000000000000000000602082015250565b6000613941602983612a14565b915061394c826138e5565b604082019050919050565b6000602082019050818103600083015261397081613934565b9050919050565b600061398282612ac4565b915061398d83612ac4565b9250827fffffffffffffffffffffffffffffffffffffffffffffffffffffffffffffffff038211156139c2576139c1613558565b5b828201905092915050565b7f4552433732314d657461646174613a2055524920717565727920666f72206e6f60008201527f6e6578697374656e7420746f6b656e0000000000000000000000000000000000602082015250565b6000613a29602f83612a14565b9150613a34826139cd565b604082019050919050565b60006020820190508181036000830152613a5881613a1c565b9050919050565b7f4f776e61626c653a206e6577206f776e657220697320746865207a65726f206160008201527f6464726573730000000000000000000000000000000000000000000000000000602082015250565b6000613abb602683612a14565b9150613ac682613a5f565b604082019050919050565b60006020820190508181036000830152613aea81613aae565b9050919050565b7f4552433732313a206f70657261746f7220717565727920666f72206e6f6e657860008201527f697374656e7420746f6b656e0000000000000000000000000000000000000000602082015250565b6000613b4d602c83612a14565b9150613b5882613af1565b604082019050919050565b60006020820190508181036000830152613b7c81613b40565b9050919050565b7f4552433732313a207472616e73666572206f6620746f6b656e2074686174206960008201527f73206e6f74206f776e0000000000000000000000000000000000000000000000602082015250565b6000613bdf602983612a14565b9150613bea82613b83565b604082019050919050565b60006020820190508181036000830152613c0e81613bd2565b9050919050565b7f4552433732313a207472616e7366657220746f20746865207a65726f2061646460008201527f7265737300000000000000000000000000000000000000000000000000000000602082015250565b6000613c71602483612a14565b9150613c7c82613c15565b604082019050919050565b60006020820190508181036000830152613ca081613c64565b9050919050565b7f4552433732313a20617070726f766520746f2063616c6c657200000000000000600082015250565b6000613cdd601983612a14565b9150613ce882613ca7565b602082019050919050565b60006020820190508181036000830152613d0c81613cd0565b9050919050565b7f4552433732313a207472616e7366657220746f206e6f6e20455243373231526560008201527f63656976657220696d706c656d656e7465720000000000000000000000000000602082015250565b6000613d6f603283612a14565b9150613d7a82613d13565b604082019050919050565b60006020820190508181036000830152613d9e81613d62565b9050919050565b600081519050919050565b600082825260208201905092915050565b6000613dcc82613da5565b613dd68185613db0565b9350613de6818560208601612a25565b613def81612a58565b840191505092915050565b6000608082019050613e0f6000830187612b59565b613e1c6020830186612b59565b613e296040830185612bef565b8181036060830152613e3b8184613dc1565b905095945050505050565b600081519050613e558161297a565b92915050565b600060208284031215613e7157613e70612944565b5b6000613e7f84828501613e46565b91505092915050565b7f4552433732313a206d696e7420746f20746865207a65726f2061646472657373600082015250565b6000613ebe602083612a14565b9150613ec982613e88565b602082019050919050565b60006020820190508181036000830152613eed81613eb1565b9050919050565b7f4552433732313a20746f6b656e20616c7265616479206d696e74656400000000600082015250565b6000613f2a601c83612a14565b9150613f3582613ef4565b602082019050919050565b60006020820190508181036000830152613f5981613f1d565b9050919050565b7f4e487b7100000000000000000000000000000000000000000000000000000000600052603160045260246000fdfea264697066735822122067746a8d20387fbb919007ca898fdab193ec6aeff70843a17669d6ca78e489dc64736f6c634300080b0033",
  "immutableReferences": {},
  "source": "// SPDX-License-Identifier: MIT\r\npragma solidity ^0.8.0;\r\n\r\nimport \"@openzeppelin/contracts/token/ERC721/ERC721.sol\";\r\nimport \"@openzeppelin/contracts/token/ERC721/extensions/ERC721Enumerable.sol\";\r\nimport \"@openzeppelin/contracts/access/Ownable.sol\";\r\n\r\ncontract BNBCollection is ERC721, ERC721Enumerable, Ownable {\r\n\r\n  string[] public tokenURIs;\r\n  mapping(string => bool) _tokenURIExists;\r\n  mapping(uint => string) _tokenIdToTokenURI;\r\n  uint256 public alreadySold;\r\n  uint256 public onSale;\r\n   bool public saleIsActive;\r\n  uint256 public tokenPrice = 300000000000000000; //0.3 BNB\r\n         /**\r\n   * Event for token purchase logging\r\n   * @param purchaser who paid for the tokens\r\n   * @param beneficiary who got the tokens\r\n   * @param value weis paid for purchase\r\n   * @param idToken NFT purchased\r\n   */\r\n  event TokenPurchase(\r\n    address indexed purchaser,\r\n    address indexed beneficiary,\r\n    uint256 value,\r\n    uint256 idToken\r\n  );\r\n\r\n     /**\r\n   * Event for token purchase logging\r\n   * @param amount total sale balance\r\n   * @param date collection date\r\n   */\r\n  event WithdrawTime(\r\n    uint256 amount,\r\n    uint256 date\r\n  );\r\n\r\n  constructor() \r\n    ERC721(\"Malanftdriner Collection\", \"MLNFT\") \r\n  {\r\n  }\r\n//\r\n  function _beforeTokenTransfer(address from, address to, uint256 tokenId) internal override(ERC721, ERC721Enumerable) {\r\n    super._beforeTokenTransfer(from, to, tokenId);\r\n  }\r\n//\r\n  function supportsInterface(bytes4 interfaceId) public view override(ERC721, ERC721Enumerable) returns (bool) {\r\n    return super.supportsInterface(interfaceId);\r\n  }\r\n//\r\n  function tokenURI(uint256 tokenId) public override view returns (string memory) {\r\n    require(_exists(tokenId), 'ERC721Metadata: URI query for nonexistent token');\r\n    return _tokenIdToTokenURI[tokenId];\r\n  }\r\n//\r\n  function safeMint(string memory _tokenURI) public onlyOwner {\r\n    require(!_tokenURIExists[_tokenURI], 'The token URI should be unique');\r\n    tokenURIs.push(_tokenURI);    \r\n    uint _id = tokenURIs.length;\r\n    _tokenIdToTokenURI[_id] = _tokenURI;\r\n    _safeMint(msg.sender, _id);\r\n    _tokenURIExists[_tokenURI] = true;\r\n  }\r\n\r\n      function saleMintToken(address buyer) public payable \r\n    {\r\n          \r\n    require(saleIsActive, \"Sale must be active to buy Tokens\");\r\n    require(onSale != 0, \"There are no tokens to buy\");\r\n    require(msg.value >= tokenPrice, \"value sent needs to be atleast sale price\");\r\n        uint256 id = totalSupply() - onSale;\r\n        _transfer(owner(), buyer, id + 1);\r\n        emit TokenPurchase(owner(), buyer, msg.value, id + 1);\r\n        onSale = onSale - 1;\r\n        alreadySold = alreadySold + 1;\r\n    }\r\n\r\n          /*\r\n    * Pause sale if active, make active if paused\r\n    */\r\n    function flipSaleState() public onlyOwner \r\n    {   \r\n        saleIsActive = !saleIsActive;\r\n    }\r\n\r\n          /*\r\n    *  calculation of NFTs that will be for sale\r\n    */\r\n    function prepareSale() public onlyOwner \r\n    {   uint256 supply = tokenURIs.length;\r\n        onSale = supply - alreadySold;\r\n    }\r\n\r\n        function withdraw() public onlyOwner \r\n    {\r\n        uint256 amount = address(this).balance;\r\n        payable(msg.sender).transfer(amount);\r\n        flipSaleState();\r\n        emit WithdrawTime(amount, block.timestamp);\r\n        \r\n    }\r\n\r\n          /**\r\n     * @dev show all the tokens of the owner.\r\n     */\r\n    function tokensOfOwner(address owner) public view returns (uint256[] memory)\r\n    {\r\n        uint256 ownerTokenCount = balanceOf(owner);\r\n        uint256[] memory tokenIds = new uint256[](ownerTokenCount);\r\n\r\n        for (uint256 i; i < ownerTokenCount; i++) {\r\n            tokenIds[i] = tokenOfOwnerByIndex(owner, i);\r\n        }\r\n        return tokenIds;\r\n    }\r\n    \r\n}",
  "sourcePath": "C:\\Users\\cainu\\Documents\\Programacion\\solidity\\2021\\BNBMarketplace\\src\\contracts\\BNBCollection.sol",
  "compiler": {
    "name": "solc",
    "version": "0.8.11+commit.d7f03943.Emscripten.clang"
  },
  "schemaVersion": "3.4.3",
  "updatedAt": "2022-01-25T19:57:26.111Z",
  "networkType": "ethereum",
  "devdoc": {
    "events": {
      "TokenPurchase(address,address,uint256,uint256)": {
        "params": {
          "beneficiary": "who got the tokens",
          "idToken": "NFT purchased",
          "purchaser": "who paid for the tokens",
          "value": "weis paid for purchase"
        }
      },
      "WithdrawTime(uint256,uint256)": {
        "params": {
          "amount": "total sale balance",
          "date": "collection date"
        }
      }
    },
    "kind": "dev",
    "methods": {
      "approve(address,uint256)": {
        "details": "See {IERC721-approve}."
      },
      "balanceOf(address)": {
        "details": "See {IERC721-balanceOf}."
      },
      "getApproved(uint256)": {
        "details": "See {IERC721-getApproved}."
      },
      "isApprovedForAll(address,address)": {
        "details": "See {IERC721-isApprovedForAll}."
      },
      "name()": {
        "details": "See {IERC721Metadata-name}."
      },
      "owner()": {
        "details": "Returns the address of the current owner."
      },
      "ownerOf(uint256)": {
        "details": "See {IERC721-ownerOf}."
      },
      "renounceOwnership()": {
        "details": "Leaves the contract without owner. It will not be possible to call `onlyOwner` functions anymore. Can only be called by the current owner. NOTE: Renouncing ownership will leave the contract without an owner, thereby removing any functionality that is only available to the owner."
      },
      "safeTransferFrom(address,address,uint256)": {
        "details": "See {IERC721-safeTransferFrom}."
      },
      "safeTransferFrom(address,address,uint256,bytes)": {
        "details": "See {IERC721-safeTransferFrom}."
      },
      "setApprovalForAll(address,bool)": {
        "details": "See {IERC721-setApprovalForAll}."
      },
      "symbol()": {
        "details": "See {IERC721Metadata-symbol}."
      },
      "tokenByIndex(uint256)": {
        "details": "See {IERC721Enumerable-tokenByIndex}."
      },
      "tokenOfOwnerByIndex(address,uint256)": {
        "details": "See {IERC721Enumerable-tokenOfOwnerByIndex}."
      },
      "tokenURI(uint256)": {
        "details": "See {IERC721Metadata-tokenURI}."
      },
      "tokensOfOwner(address)": {
        "details": "show all the tokens of the owner."
      },
      "totalSupply()": {
        "details": "See {IERC721Enumerable-totalSupply}."
      },
      "transferFrom(address,address,uint256)": {
        "details": "See {IERC721-transferFrom}."
      },
      "transferOwnership(address)": {
        "details": "Transfers ownership of the contract to a new account (`newOwner`). Can only be called by the current owner."
      }
    },
    "version": 1
  },
  "userdoc": {
    "events": {
      "TokenPurchase(address,address,uint256,uint256)": {
        "notice": "Event for token purchase logging"
      },
      "WithdrawTime(uint256,uint256)": {
        "notice": "Event for token purchase logging"
      }
    },
    "kind": "user",
    "methods": {},
    "version": 1
  }
}