{
  "contractName": "BNBCollection",
  "abi": [
    {
      "inputs": [],
      "stateMutability": "nonpayable",
      "type": "constructor"
    },
    {
      "anonymous": false,
      "inputs": [
        {
          "indexed": true,
          "internalType": "address",
          "name": "owner",
          "type": "address"
        },
        {
          "indexed": true,
          "internalType": "address",
          "name": "approved",
          "type": "address"
        },
        {
          "indexed": true,
          "internalType": "uint256",
          "name": "tokenId",
          "type": "uint256"
        }
      ],
      "name": "Approval",
      "type": "event"
    },
    {
      "anonymous": false,
      "inputs": [
        {
          "indexed": true,
          "internalType": "address",
          "name": "owner",
          "type": "address"
        },
        {
          "indexed": true,
          "internalType": "address",
          "name": "operator",
          "type": "address"
        },
        {
          "indexed": false,
          "internalType": "bool",
          "name": "approved",
          "type": "bool"
        }
      ],
      "name": "ApprovalForAll",
      "type": "event"
    },
    {
      "anonymous": false,
      "inputs": [
        {
          "indexed": true,
          "internalType": "address",
          "name": "minter",
          "type": "address"
        },
        {
          "indexed": false,
          "internalType": "uint256",
          "name": "id",
          "type": "uint256"
        },
        {
          "indexed": false,
          "internalType": "uint256",
          "name": "date",
          "type": "uint256"
        }
      ],
      "name": "Mint",
      "type": "event"
    },
    {
      "anonymous": false,
      "inputs": [
        {
          "indexed": true,
          "internalType": "address",
          "name": "previousOwner",
          "type": "address"
        },
        {
          "indexed": true,
          "internalType": "address",
          "name": "newOwner",
          "type": "address"
        }
      ],
      "name": "OwnershipTransferred",
      "type": "event"
    },
    {
      "anonymous": false,
      "inputs": [
        {
          "indexed": true,
          "internalType": "address",
          "name": "purchaser",
          "type": "address"
        },
        {
          "indexed": true,
          "internalType": "address",
          "name": "beneficiary",
          "type": "address"
        },
        {
          "indexed": false,
          "internalType": "uint256",
          "name": "value",
          "type": "uint256"
        },
        {
          "indexed": false,
          "internalType": "uint256",
          "name": "idToken",
          "type": "uint256"
        }
      ],
      "name": "TokenPurchase",
      "type": "event"
    },
    {
      "anonymous": false,
      "inputs": [
        {
          "indexed": true,
          "internalType": "address",
          "name": "from",
          "type": "address"
        },
        {
          "indexed": true,
          "internalType": "address",
          "name": "to",
          "type": "address"
        },
        {
          "indexed": true,
          "internalType": "uint256",
          "name": "tokenId",
          "type": "uint256"
        }
      ],
      "name": "Transfer",
      "type": "event"
    },
    {
      "anonymous": false,
      "inputs": [
        {
          "indexed": false,
          "internalType": "uint256",
          "name": "amount",
          "type": "uint256"
        },
        {
          "indexed": false,
          "internalType": "uint256",
          "name": "date",
          "type": "uint256"
        }
      ],
      "name": "WithdrawTime",
      "type": "event"
    },
    {
      "inputs": [],
      "name": "alreadySold",
      "outputs": [
        {
          "internalType": "uint256",
          "name": "",
          "type": "uint256"
        }
      ],
      "stateMutability": "view",
      "type": "function",
      "constant": true
    },
    {
      "inputs": [
        {
          "internalType": "address",
          "name": "to",
          "type": "address"
        },
        {
          "internalType": "uint256",
          "name": "tokenId",
          "type": "uint256"
        }
      ],
      "name": "approve",
      "outputs": [],
      "stateMutability": "nonpayable",
      "type": "function"
    },
    {
      "inputs": [
        {
          "internalType": "address",
          "name": "owner",
          "type": "address"
        }
      ],
      "name": "balanceOf",
      "outputs": [
        {
          "internalType": "uint256",
          "name": "",
          "type": "uint256"
        }
      ],
      "stateMutability": "view",
      "type": "function",
      "constant": true
    },
    {
      "inputs": [
        {
          "internalType": "uint256",
          "name": "tokenId",
          "type": "uint256"
        }
      ],
      "name": "getApproved",
      "outputs": [
        {
          "internalType": "address",
          "name": "",
          "type": "address"
        }
      ],
      "stateMutability": "view",
      "type": "function",
      "constant": true
    },
    {
      "inputs": [
        {
          "internalType": "address",
          "name": "owner",
          "type": "address"
        },
        {
          "internalType": "address",
          "name": "operator",
          "type": "address"
        }
      ],
      "name": "isApprovedForAll",
      "outputs": [
        {
          "internalType": "bool",
          "name": "",
          "type": "bool"
        }
      ],
      "stateMutability": "view",
      "type": "function",
      "constant": true
    },
    {
      "inputs": [],
      "name": "name",
      "outputs": [
        {
          "internalType": "string",
          "name": "",
          "type": "string"
        }
      ],
      "stateMutability": "view",
      "type": "function",
      "constant": true
    },
    {
      "inputs": [],
      "name": "onSale",
      "outputs": [
        {
          "internalType": "uint256",
          "name": "",
          "type": "uint256"
        }
      ],
      "stateMutability": "view",
      "type": "function",
      "constant": true
    },
    {
      "inputs": [],
      "name": "owner",
      "outputs": [
        {
          "internalType": "address",
          "name": "",
          "type": "address"
        }
      ],
      "stateMutability": "view",
      "type": "function",
      "constant": true
    },
    {
      "inputs": [
        {
          "internalType": "uint256",
          "name": "tokenId",
          "type": "uint256"
        }
      ],
      "name": "ownerOf",
      "outputs": [
        {
          "internalType": "address",
          "name": "",
          "type": "address"
        }
      ],
      "stateMutability": "view",
      "type": "function",
      "constant": true
    },
    {
      "inputs": [],
      "name": "renounceOwnership",
      "outputs": [],
      "stateMutability": "nonpayable",
      "type": "function"
    },
    {
      "inputs": [
        {
          "internalType": "address",
          "name": "from",
          "type": "address"
        },
        {
          "internalType": "address",
          "name": "to",
          "type": "address"
        },
        {
          "internalType": "uint256",
          "name": "tokenId",
          "type": "uint256"
        }
      ],
      "name": "safeTransferFrom",
      "outputs": [],
      "stateMutability": "nonpayable",
      "type": "function"
    },
    {
      "inputs": [
        {
          "internalType": "address",
          "name": "from",
          "type": "address"
        },
        {
          "internalType": "address",
          "name": "to",
          "type": "address"
        },
        {
          "internalType": "uint256",
          "name": "tokenId",
          "type": "uint256"
        },
        {
          "internalType": "bytes",
          "name": "_data",
          "type": "bytes"
        }
      ],
      "name": "safeTransferFrom",
      "outputs": [],
      "stateMutability": "nonpayable",
      "type": "function"
    },
    {
      "inputs": [],
      "name": "saleIsActive",
      "outputs": [
        {
          "internalType": "bool",
          "name": "",
          "type": "bool"
        }
      ],
      "stateMutability": "view",
      "type": "function",
      "constant": true
    },
    {
      "inputs": [
        {
          "internalType": "address",
          "name": "operator",
          "type": "address"
        },
        {
          "internalType": "bool",
          "name": "approved",
          "type": "bool"
        }
      ],
      "name": "setApprovalForAll",
      "outputs": [],
      "stateMutability": "nonpayable",
      "type": "function"
    },
    {
      "inputs": [
        {
          "internalType": "bytes4",
          "name": "interfaceId",
          "type": "bytes4"
        }
      ],
      "name": "supportsInterface",
      "outputs": [
        {
          "internalType": "bool",
          "name": "",
          "type": "bool"
        }
      ],
      "stateMutability": "view",
      "type": "function",
      "constant": true
    },
    {
      "inputs": [],
      "name": "symbol",
      "outputs": [
        {
          "internalType": "string",
          "name": "",
          "type": "string"
        }
      ],
      "stateMutability": "view",
      "type": "function",
      "constant": true
    },
    {
      "inputs": [
        {
          "internalType": "uint256",
          "name": "index",
          "type": "uint256"
        }
      ],
      "name": "tokenByIndex",
      "outputs": [
        {
          "internalType": "uint256",
          "name": "",
          "type": "uint256"
        }
      ],
      "stateMutability": "view",
      "type": "function",
      "constant": true
    },
    {
      "inputs": [
        {
          "internalType": "address",
          "name": "owner",
          "type": "address"
        },
        {
          "internalType": "uint256",
          "name": "index",
          "type": "uint256"
        }
      ],
      "name": "tokenOfOwnerByIndex",
      "outputs": [
        {
          "internalType": "uint256",
          "name": "",
          "type": "uint256"
        }
      ],
      "stateMutability": "view",
      "type": "function",
      "constant": true
    },
    {
      "inputs": [],
      "name": "tokenPrice",
      "outputs": [
        {
          "internalType": "uint256",
          "name": "",
          "type": "uint256"
        }
      ],
      "stateMutability": "view",
      "type": "function",
      "constant": true
    },
    {
      "inputs": [],
      "name": "totalSupply",
      "outputs": [
        {
          "internalType": "uint256",
          "name": "",
          "type": "uint256"
        }
      ],
      "stateMutability": "view",
      "type": "function",
      "constant": true
    },
    {
      "inputs": [
        {
          "internalType": "address",
          "name": "from",
          "type": "address"
        },
        {
          "internalType": "address",
          "name": "to",
          "type": "address"
        },
        {
          "internalType": "uint256",
          "name": "tokenId",
          "type": "uint256"
        }
      ],
      "name": "transferFrom",
      "outputs": [],
      "stateMutability": "nonpayable",
      "type": "function"
    },
    {
      "inputs": [
        {
          "internalType": "address",
          "name": "newOwner",
          "type": "address"
        }
      ],
      "name": "transferOwnership",
      "outputs": [],
      "stateMutability": "nonpayable",
      "type": "function"
    },
    {
      "inputs": [],
      "name": "withdraw",
      "outputs": [],
      "stateMutability": "nonpayable",
      "type": "function"
    },
    {
      "inputs": [
        {
          "internalType": "address",
          "name": "buyer",
          "type": "address"
        }
      ],
      "name": "saleMintToken",
      "outputs": [],
      "stateMutability": "payable",
      "type": "function",
      "payable": true
    },
    {
      "inputs": [
        {
          "internalType": "string",
          "name": "_tokenURI",
          "type": "string"
        }
      ],
      "name": "safeMint",
      "outputs": [],
      "stateMutability": "nonpayable",
      "type": "function"
    },
    {
      "inputs": [
        {
          "internalType": "address",
          "name": "minter",
          "type": "address"
        }
      ],
      "name": "setMinterApproved",
      "outputs": [],
      "stateMutability": "nonpayable",
      "type": "function"
    },
    {
      "inputs": [
        {
          "internalType": "address",
          "name": "minter",
          "type": "address"
        }
      ],
      "name": "setMinterDisapproved",
      "outputs": [],
      "stateMutability": "nonpayable",
      "type": "function"
    },
    {
      "inputs": [
        {
          "internalType": "address",
          "name": "owner",
          "type": "address"
        }
      ],
      "name": "tokensOfOwner",
      "outputs": [
        {
          "internalType": "uint256[]",
          "name": "",
          "type": "uint256[]"
        }
      ],
      "stateMutability": "view",
      "type": "function",
      "constant": true
    },
    {
      "inputs": [
        {
          "internalType": "uint256",
          "name": "_tokenPrice",
          "type": "uint256"
        }
      ],
      "name": "setTokenPrice",
      "outputs": [],
      "stateMutability": "nonpayable",
      "type": "function"
    },
    {
      "inputs": [],
      "name": "getBalance",
      "outputs": [
        {
          "internalType": "uint256",
          "name": "",
          "type": "uint256"
        }
      ],
      "stateMutability": "view",
      "type": "function",
      "constant": true
    },
    {
      "inputs": [
        {
          "internalType": "uint256",
          "name": "tokenId",
          "type": "uint256"
        }
      ],
      "name": "tokenURI",
      "outputs": [
        {
          "internalType": "string",
          "name": "",
          "type": "string"
        }
      ],
      "stateMutability": "view",
      "type": "function",
      "constant": true
    },
    {
      "inputs": [
        {
          "internalType": "uint256",
          "name": "_tokenId",
          "type": "uint256"
        },
        {
          "internalType": "string",
          "name": "_tokenURI",
          "type": "string"
        }
      ],
      "name": "_setTokenURI",
      "outputs": [],
      "stateMutability": "nonpayable",
      "type": "function"
    },
    {
      "inputs": [],
      "name": "flipSaleState",
      "outputs": [],
      "stateMutability": "nonpayable",
      "type": "function"
    },
    {
      "inputs": [],
      "name": "prepareSale",
      "outputs": [],
      "stateMutability": "nonpayable",
      "type": "function"
    }
  ],
  "bytecode": "0x6080604052670429d069189e00006010553480156200001d57600080fd5b506040518060400160405280601881526020017f4d616c616e66746472696e657220436f6c6c656374696f6e00000000000000008152506040518060400160405280600581526020017f4d4c4e46540000000000000000000000000000000000000000000000000000008152508160009080519060200190620000a29291906200020a565b508060019080519060200190620000bb9291906200020a565b505050620000de620000d26200013c60201b60201c565b6200014460201b60201c565b6001600b60003373ffffffffffffffffffffffffffffffffffffffff1673ffffffffffffffffffffffffffffffffffffffff16815260200190815260200160002060006101000a81548160ff0219169083151502179055506200031f565b600033905090565b6000600a60009054906101000a900473ffffffffffffffffffffffffffffffffffffffff16905081600a60006101000a81548173ffffffffffffffffffffffffffffffffffffffff021916908373ffffffffffffffffffffffffffffffffffffffff1602179055508173ffffffffffffffffffffffffffffffffffffffff168173ffffffffffffffffffffffffffffffffffffffff167f8be0079c531659141344cd1fd0a4f28419497f9722a3daafe3b4186f6b6457e060405160405180910390a35050565b8280546200021890620002e9565b90600052602060002090601f0160209004810192826200023c576000855562000288565b82601f106200025757805160ff191683800117855562000288565b8280016001018555821562000288579182015b82811115620002875782518255916020019190600101906200026a565b5b5090506200029791906200029b565b5090565b5b80821115620002b65760008160009055506001016200029c565b5090565b7f4e487b7100000000000000000000000000000000000000000000000000000000600052602260045260246000fd5b600060028204905060018216806200030257607f821691505b60208210811415620003195762000318620002ba565b5b50919050565b614614806200032f6000396000f3fe6080604052600436106101f95760003560e01c80636352211e1161010d578063931c8bc4116100a0578063b88d4fde1161006f578063b88d4fde146106ea578063c87b56dd14610713578063e985e9c514610750578063eb8d24441461078d578063f2fde38b146107b8576101f9565b8063931c8bc41461065157806395d89b411461067a578063a22cb465146106a5578063a9b3b0c1146106ce576101f9565b8063715018a6116100dc578063715018a6146105a75780637ff9b596146105be5780638462151c146105e95780638da5cb5b14610626576101f9565b80636352211e146104db578063695850fb146105185780636a61e5fc1461054157806370a082311461056a576101f9565b80632d1f1b91116101905780633ccfd60b1161015f5780633ccfd60b1461041c57806342842e0e146104335780634d2db81f1461045c5780634f6ccce71461048757806350017e5e146104c4576101f9565b80632d1f1b91146103745780632f745c591461039d578063326687b9146103da57806334918dfd14610405576101f9565b8063095ea7b3116101cc578063095ea7b3146102cc57806312065fe0146102f557806318160ddd1461032057806323b872dd1461034b576101f9565b806301538868146101fe57806301ffc9a71461022757806306fdde0314610264578063081812fc1461028f575b600080fd5b34801561020a57600080fd5b5061022560048036038101906102209190612f34565b6107e1565b005b34801561023357600080fd5b5061024e60048036038101906102499190612fe8565b6108d1565b60405161025b9190613030565b60405180910390f35b34801561027057600080fd5b5061027961094b565b60405161028691906130d3565b60405180910390f35b34801561029b57600080fd5b506102b660048036038101906102b191906130f5565b6109dd565b6040516102c39190613163565b60405180910390f35b3480156102d857600080fd5b506102f360048036038101906102ee91906131aa565b610a62565b005b34801561030157600080fd5b5061030a610b7a565b60405161031791906131f9565b60405180910390f35b34801561032c57600080fd5b50610335610bfe565b60405161034291906131f9565b60405180910390f35b34801561035757600080fd5b50610372600480360381019061036d9190613214565b610c0b565b005b34801561038057600080fd5b5061039b60048036038101906103969190613267565b610c6b565b005b3480156103a957600080fd5b506103c460048036038101906103bf91906131aa565b610dcf565b6040516103d191906131f9565b60405180910390f35b3480156103e657600080fd5b506103ef610e74565b6040516103fc91906131f9565b60405180910390f35b34801561041157600080fd5b5061041a610e7a565b005b34801561042857600080fd5b50610431610f22565b005b34801561043f57600080fd5b5061045a60048036038101906104559190613214565b61102e565b005b34801561046857600080fd5b5061047161104e565b60405161047e91906131f9565b60405180910390f35b34801561049357600080fd5b506104ae60048036038101906104a991906130f5565b611054565b6040516104bb91906131f9565b60405180910390f35b3480156104d057600080fd5b506104d96110c5565b005b3480156104e757600080fd5b5061050260048036038101906104fd91906130f5565b611159565b60405161050f9190613163565b60405180910390f35b34801561052457600080fd5b5061053f600480360381019061053a9190613294565b61120b565b005b34801561054d57600080fd5b50610568600480360381019061056391906130f5565b61134f565b005b34801561057657600080fd5b50610591600480360381019061058c9190613267565b6113d5565b60405161059e91906131f9565b60405180910390f35b3480156105b357600080fd5b506105bc61148d565b005b3480156105ca57600080fd5b506105d3611515565b6040516105e091906131f9565b60405180910390f35b3480156105f557600080fd5b50610610600480360381019061060b9190613267565b61151b565b60405161061d919061339b565b60405180910390f35b34801561063257600080fd5b5061063b6115c9565b6040516106489190613163565b60405180910390f35b34801561065d57600080fd5b5061067860048036038101906106739190613267565b6115f3565b005b34801561068657600080fd5b5061068f611756565b60405161069c91906130d3565b60405180910390f35b3480156106b157600080fd5b506106cc60048036038101906106c791906133e9565b6117e8565b005b6106e860048036038101906106e39190613267565b6117fe565b005b3480156106f657600080fd5b50610711600480360381019061070c91906134ca565b6119d0565b005b34801561071f57600080fd5b5061073a600480360381019061073591906130f5565b611a32565b60405161074791906130d3565b60405180910390f35b34801561075c57600080fd5b506107776004803603810190610772919061354d565b611b1f565b6040516107849190613030565b60405180910390f35b34801561079957600080fd5b506107a2611bb3565b6040516107af9190613030565b60405180910390f35b3480156107c457600080fd5b506107df60048036038101906107da9190613267565b611bc6565b005b6107e9611cbe565b73ffffffffffffffffffffffffffffffffffffffff166108076115c9565b73ffffffffffffffffffffffffffffffffffffffff161461085d576040517f08c379a0000000000000000000000000000000000000000000000000000000008152600401610854906135d9565b60405180910390fd5b61086682611cc6565b6108a5576040517f08c379a000000000000000000000000000000000000000000000000000000000815260040161089c9061366b565b60405180910390fd5b80600c600084815260200190815260200160002090805190602001906108cc929190612d01565b505050565b60007f780e9d63000000000000000000000000000000000000000000000000000000007bffffffffffffffffffffffffffffffffffffffffffffffffffffffff1916827bffffffffffffffffffffffffffffffffffffffffffffffffffffffff19161480610944575061094382611d32565b5b9050919050565b60606000805461095a906136ba565b80601f0160208091040260200160405190810160405280929190818152602001828054610986906136ba565b80156109d35780601f106109a8576101008083540402835291602001916109d3565b820191906000526020600020905b8154815290600101906020018083116109b657829003601f168201915b5050505050905090565b60006109e882611cc6565b610a27576040517f08c379a0000000000000000000000000000000000000000000000000000000008152600401610a1e9061375e565b60405180910390fd5b6004600083815260200190815260200160002060009054906101000a900473ffffffffffffffffffffffffffffffffffffffff169050919050565b6000610a6d82611159565b90508073ffffffffffffffffffffffffffffffffffffffff168373ffffffffffffffffffffffffffffffffffffffff161415610ade576040517f08c379a0000000000000000000000000000000000000000000000000000000008152600401610ad5906137f0565b60405180910390fd5b8073ffffffffffffffffffffffffffffffffffffffff16610afd611cbe565b73ffffffffffffffffffffffffffffffffffffffff161480610b2c5750610b2b81610b26611cbe565b611b1f565b5b610b6b576040517f08c379a0000000000000000000000000000000000000000000000000000000008152600401610b6290613882565b60405180910390fd5b610b758383611e14565b505050565b6000610b84611cbe565b73ffffffffffffffffffffffffffffffffffffffff16610ba26115c9565b73ffffffffffffffffffffffffffffffffffffffff1614610bf8576040517f08c379a0000000000000000000000000000000000000000000000000000000008152600401610bef906135d9565b60405180910390fd5b47905090565b6000600880549050905090565b610c1c610c16611cbe565b82611ecd565b610c5b576040517f08c379a0000000000000000000000000000000000000000000000000000000008152600401610c5290613914565b60405180910390fd5b610c66838383611fab565b505050565b610c73611cbe565b73ffffffffffffffffffffffffffffffffffffffff16610c916115c9565b73ffffffffffffffffffffffffffffffffffffffff1614610ce7576040517f08c379a0000000000000000000000000000000000000000000000000000000008152600401610cde906135d9565b60405180910390fd5b600b60008273ffffffffffffffffffffffffffffffffffffffff1673ffffffffffffffffffffffffffffffffffffffff16815260200190815260200160002060009054906101000a900460ff1615610d74576040517f08c379a0000000000000000000000000000000000000000000000000000000008152600401610d6b906139a6565b60405180910390fd5b6001600b60008373ffffffffffffffffffffffffffffffffffffffff1673ffffffffffffffffffffffffffffffffffffffff16815260200190815260200160002060006101000a81548160ff02191690831515021790555050565b6000610dda836113d5565b8210610e1b576040517f08c379a0000000000000000000000000000000000000000000000000000000008152600401610e1290613a38565b60405180910390fd5b600660008473ffffffffffffffffffffffffffffffffffffffff1673ffffffffffffffffffffffffffffffffffffffff168152602001908152602001600020600083815260200190815260200160002054905092915050565b600e5481565b610e82611cbe565b73ffffffffffffffffffffffffffffffffffffffff16610ea06115c9565b73ffffffffffffffffffffffffffffffffffffffff1614610ef6576040517f08c379a0000000000000000000000000000000000000000000000000000000008152600401610eed906135d9565b60405180910390fd5b600f60009054906101000a900460ff1615600f60006101000a81548160ff021916908315150217905550565b610f2a611cbe565b73ffffffffffffffffffffffffffffffffffffffff16610f486115c9565b73ffffffffffffffffffffffffffffffffffffffff1614610f9e576040517f08c379a0000000000000000000000000000000000000000000000000000000008152600401610f95906135d9565b60405180910390fd5b60004790503373ffffffffffffffffffffffffffffffffffffffff166108fc829081150290604051600060405180830381858888f19350505050158015610fe9573d6000803e3d6000fd5b50610ff2610e7a565b7f340eda84c45ce2835fc1d07babdc92122b7d0c5ebf24b5065984e2d2f38dfbcf8142604051611023929190613a58565b60405180910390a150565b611049838383604051806020016040528060008152506119d0565b505050565b600d5481565b600061105e610bfe565b821061109f576040517f08c379a000000000000000000000000000000000000000000000000000000000815260040161109690613af3565b60405180910390fd5b600882815481106110b3576110b2613b13565b5b90600052602060002001549050919050565b6110cd611cbe565b73ffffffffffffffffffffffffffffffffffffffff166110eb6115c9565b73ffffffffffffffffffffffffffffffffffffffff1614611141576040517f08c379a0000000000000000000000000000000000000000000000000000000008152600401611138906135d9565b60405180910390fd5b61115161114c6115c9565b6113d5565b600e81905550565b6000806002600084815260200190815260200160002060009054906101000a900473ffffffffffffffffffffffffffffffffffffffff169050600073ffffffffffffffffffffffffffffffffffffffff168173ffffffffffffffffffffffffffffffffffffffff161415611202576040517f08c379a00000000000000000000000000000000000000000000000000000000081526004016111f990613bb4565b60405180910390fd5b80915050919050565b600b60003373ffffffffffffffffffffffffffffffffffffffff1673ffffffffffffffffffffffffffffffffffffffff16815260200190815260200160002060009054906101000a900460ff168061126c57506000611269336113d5565b14155b6112ab576040517f08c379a00000000000000000000000000000000000000000000000000000000081526004016112a290613c46565b60405180910390fd5b60006112b5610bfe565b905060006001826112c69190613c95565b905082600c600083815260200190815260200160002090805190602001906112ef929190612d01565b506112fa3382612207565b3373ffffffffffffffffffffffffffffffffffffffff167f4c209b5fc8ad50758f13e2e1088ba56a560dff690a1c6fef26394f4c03821c4f8242604051611342929190613a58565b60405180910390a2505050565b611357611cbe565b73ffffffffffffffffffffffffffffffffffffffff166113756115c9565b73ffffffffffffffffffffffffffffffffffffffff16146113cb576040517f08c379a00000000000000000000000000000000000000000000000000000000081526004016113c2906135d9565b60405180910390fd5b8060108190555050565b60008073ffffffffffffffffffffffffffffffffffffffff168273ffffffffffffffffffffffffffffffffffffffff161415611446576040517f08c379a000000000000000000000000000000000000000000000000000000000815260040161143d90613d5d565b60405180910390fd5b600360008373ffffffffffffffffffffffffffffffffffffffff1673ffffffffffffffffffffffffffffffffffffffff168152602001908152602001600020549050919050565b611495611cbe565b73ffffffffffffffffffffffffffffffffffffffff166114b36115c9565b73ffffffffffffffffffffffffffffffffffffffff1614611509576040517f08c379a0000000000000000000000000000000000000000000000000000000008152600401611500906135d9565b60405180910390fd5b6115136000612225565b565b60105481565b60606000611528836113d5565b905060008167ffffffffffffffff81111561154657611545612e09565b5b6040519080825280602002602001820160405280156115745781602001602082028036833780820191505090505b50905060005b828110156115be5761158c8582610dcf565b82828151811061159f5761159e613b13565b5b60200260200101818152505080806115b690613d7d565b91505061157a565b508092505050919050565b6000600a60009054906101000a900473ffffffffffffffffffffffffffffffffffffffff16905090565b6115fb611cbe565b73ffffffffffffffffffffffffffffffffffffffff166116196115c9565b73ffffffffffffffffffffffffffffffffffffffff161461166f576040517f08c379a0000000000000000000000000000000000000000000000000000000008152600401611666906135d9565b60405180910390fd5b600b60008273ffffffffffffffffffffffffffffffffffffffff1673ffffffffffffffffffffffffffffffffffffffff16815260200190815260200160002060009054906101000a900460ff166116fb576040517f08c379a00000000000000000000000000000000000000000000000000000000081526004016116f290613e38565b60405180910390fd5b6000600b60008373ffffffffffffffffffffffffffffffffffffffff1673ffffffffffffffffffffffffffffffffffffffff16815260200190815260200160002060006101000a81548160ff02191690831515021790555050565b606060018054611765906136ba565b80601f0160208091040260200160405190810160405280929190818152602001828054611791906136ba565b80156117de5780601f106117b3576101008083540402835291602001916117de565b820191906000526020600020905b8154815290600101906020018083116117c157829003601f168201915b5050505050905090565b6117fa6117f3611cbe565b83836122eb565b5050565b600f60009054906101000a900460ff1661184d576040517f08c379a000000000000000000000000000000000000000000000000000000000815260040161184490613eca565b60405180910390fd5b6000600e541415611893576040517f08c379a000000000000000000000000000000000000000000000000000000000815260040161188a90613f36565b60405180910390fd5b6010543410156118d8576040517f08c379a00000000000000000000000000000000000000000000000000000000081526004016118cf90613fc8565b60405180910390fd5b60006118ea6118e56115c9565b61151b565b90506119196118f76115c9565b838360008151811061190c5761190b613b13565b5b6020026020010151611fab565b6001600e546119289190613fe8565b600e819055506001600d5461193d9190613c95565b600d819055508173ffffffffffffffffffffffffffffffffffffffff166119626115c9565b73ffffffffffffffffffffffffffffffffffffffff167f623b3804fa71d67900d064613da8f94b9617215ee90799290593e1745087ad1834846000815181106119ae576119ad613b13565b5b60200260200101516040516119c4929190613a58565b60405180910390a35050565b6119e16119db611cbe565b83611ecd565b611a20576040517f08c379a0000000000000000000000000000000000000000000000000000000008152600401611a1790613914565b60405180910390fd5b611a2c84848484612458565b50505050565b6060611a3d82611cc6565b611a7c576040517f08c379a0000000000000000000000000000000000000000000000000000000008152600401611a739061408e565b60405180910390fd5b600c60008381526020019081526020016000208054611a9a906136ba565b80601f0160208091040260200160405190810160405280929190818152602001828054611ac6906136ba565b8015611b135780601f10611ae857610100808354040283529160200191611b13565b820191906000526020600020905b815481529060010190602001808311611af657829003601f168201915b50505050509050919050565b6000600560008473ffffffffffffffffffffffffffffffffffffffff1673ffffffffffffffffffffffffffffffffffffffff16815260200190815260200160002060008373ffffffffffffffffffffffffffffffffffffffff1673ffffffffffffffffffffffffffffffffffffffff16815260200190815260200160002060009054906101000a900460ff16905092915050565b600f60009054906101000a900460ff1681565b611bce611cbe565b73ffffffffffffffffffffffffffffffffffffffff16611bec6115c9565b73ffffffffffffffffffffffffffffffffffffffff1614611c42576040517f08c379a0000000000000000000000000000000000000000000000000000000008152600401611c39906135d9565b60405180910390fd5b600073ffffffffffffffffffffffffffffffffffffffff168173ffffffffffffffffffffffffffffffffffffffff161415611cb2576040517f08c379a0000000000000000000000000000000000000000000000000000000008152600401611ca990614120565b60405180910390fd5b611cbb81612225565b50565b600033905090565b60008073ffffffffffffffffffffffffffffffffffffffff166002600084815260200190815260200160002060009054906101000a900473ffffffffffffffffffffffffffffffffffffffff1673ffffffffffffffffffffffffffffffffffffffff1614159050919050565b60007f80ac58cd000000000000000000000000000000000000000000000000000000007bffffffffffffffffffffffffffffffffffffffffffffffffffffffff1916827bffffffffffffffffffffffffffffffffffffffffffffffffffffffff19161480611dfd57507f5b5e139f000000000000000000000000000000000000000000000000000000007bffffffffffffffffffffffffffffffffffffffffffffffffffffffff1916827bffffffffffffffffffffffffffffffffffffffffffffffffffffffff1916145b80611e0d5750611e0c826124b4565b5b9050919050565b816004600083815260200190815260200160002060006101000a81548173ffffffffffffffffffffffffffffffffffffffff021916908373ffffffffffffffffffffffffffffffffffffffff160217905550808273ffffffffffffffffffffffffffffffffffffffff16611e8783611159565b73ffffffffffffffffffffffffffffffffffffffff167f8c5be1e5ebec7d5bd14f71427d1e84f3dd0314c0f7b2291e5b200ac8c7c3b92560405160405180910390a45050565b6000611ed882611cc6565b611f17576040517f08c379a0000000000000000000000000000000000000000000000000000000008152600401611f0e906141b2565b60405180910390fd5b6000611f2283611159565b90508073ffffffffffffffffffffffffffffffffffffffff168473ffffffffffffffffffffffffffffffffffffffff161480611f9157508373ffffffffffffffffffffffffffffffffffffffff16611f79846109dd565b73ffffffffffffffffffffffffffffffffffffffff16145b80611fa25750611fa18185611b1f565b5b91505092915050565b8273ffffffffffffffffffffffffffffffffffffffff16611fcb82611159565b73ffffffffffffffffffffffffffffffffffffffff1614612021576040517f08c379a000000000000000000000000000000000000000000000000000000000815260040161201890614244565b60405180910390fd5b600073ffffffffffffffffffffffffffffffffffffffff168273ffffffffffffffffffffffffffffffffffffffff161415612091576040517f08c379a0000000000000000000000000000000000000000000000000000000008152600401612088906142d6565b60405180910390fd5b61209c83838361251e565b6120a7600082611e14565b6001600360008573ffffffffffffffffffffffffffffffffffffffff1673ffffffffffffffffffffffffffffffffffffffff16815260200190815260200160002060008282546120f79190613fe8565b925050819055506001600360008473ffffffffffffffffffffffffffffffffffffffff1673ffffffffffffffffffffffffffffffffffffffff168152602001908152602001600020600082825461214e9190613c95565b92505081905550816002600083815260200190815260200160002060006101000a81548173ffffffffffffffffffffffffffffffffffffffff021916908373ffffffffffffffffffffffffffffffffffffffff160217905550808273ffffffffffffffffffffffffffffffffffffffff168473ffffffffffffffffffffffffffffffffffffffff167fddf252ad1be2c89b69c2b068fc378daa952ba7f163c4a11628f55a4df523b3ef60405160405180910390a4505050565b612221828260405180602001604052806000815250612632565b5050565b6000600a60009054906101000a900473ffffffffffffffffffffffffffffffffffffffff16905081600a60006101000a81548173ffffffffffffffffffffffffffffffffffffffff021916908373ffffffffffffffffffffffffffffffffffffffff1602179055508173ffffffffffffffffffffffffffffffffffffffff168173ffffffffffffffffffffffffffffffffffffffff167f8be0079c531659141344cd1fd0a4f28419497f9722a3daafe3b4186f6b6457e060405160405180910390a35050565b8173ffffffffffffffffffffffffffffffffffffffff168373ffffffffffffffffffffffffffffffffffffffff16141561235a576040517f08c379a000000000000000000000000000000000000000000000000000000000815260040161235190614342565b60405180910390fd5b80600560008573ffffffffffffffffffffffffffffffffffffffff1673ffffffffffffffffffffffffffffffffffffffff16815260200190815260200160002060008473ffffffffffffffffffffffffffffffffffffffff1673ffffffffffffffffffffffffffffffffffffffff16815260200190815260200160002060006101000a81548160ff0219169083151502179055508173ffffffffffffffffffffffffffffffffffffffff168373ffffffffffffffffffffffffffffffffffffffff167f17307eab39ab6107e8899845ad3d59bd9653f200f220920489ca2b5937696c318360405161244b9190613030565b60405180910390a3505050565b612463848484611fab565b61246f8484848461268d565b6124ae576040517f08c379a00000000000000000000000000000000000000000000000000000000081526004016124a5906143d4565b60405180910390fd5b50505050565b60007f01ffc9a7000000000000000000000000000000000000000000000000000000007bffffffffffffffffffffffffffffffffffffffffffffffffffffffff1916827bffffffffffffffffffffffffffffffffffffffffffffffffffffffff1916149050919050565b612529838383612815565b600073ffffffffffffffffffffffffffffffffffffffff168373ffffffffffffffffffffffffffffffffffffffff16141561256c576125678161281a565b6125ab565b8173ffffffffffffffffffffffffffffffffffffffff168373ffffffffffffffffffffffffffffffffffffffff16146125aa576125a98382612863565b5b5b600073ffffffffffffffffffffffffffffffffffffffff168273ffffffffffffffffffffffffffffffffffffffff1614156125ee576125e9816129d0565b61262d565b8273ffffffffffffffffffffffffffffffffffffffff168273ffffffffffffffffffffffffffffffffffffffff161461262c5761262b8282612aa1565b5b5b505050565b61263c8383612b20565b612649600084848461268d565b612688576040517f08c379a000000000000000000000000000000000000000000000000000000000815260040161267f906143d4565b60405180910390fd5b505050565b60006126ae8473ffffffffffffffffffffffffffffffffffffffff16612cee565b15612808578373ffffffffffffffffffffffffffffffffffffffff1663150b7a026126d7611cbe565b8786866040518563ffffffff1660e01b81526004016126f99493929190614449565b6020604051808303816000875af192505050801561273557506040513d601f19601f8201168201806040525081019061273291906144aa565b60015b6127b8573d8060008114612765576040519150601f19603f3d011682016040523d82523d6000602084013e61276a565b606091505b506000815114156127b0576040517f08c379a00000000000000000000000000000000000000000000000000000000081526004016127a7906143d4565b60405180910390fd5b805181602001fd5b63150b7a0260e01b7bffffffffffffffffffffffffffffffffffffffffffffffffffffffff1916817bffffffffffffffffffffffffffffffffffffffffffffffffffffffff19161491505061280d565b600190505b949350505050565b505050565b6008805490506009600083815260200190815260200160002081905550600881908060018154018082558091505060019003906000526020600020016000909190919091505550565b60006001612870846113d5565b61287a9190613fe8565b905060006007600084815260200190815260200160002054905081811461295f576000600660008673ffffffffffffffffffffffffffffffffffffffff1673ffffffffffffffffffffffffffffffffffffffff168152602001908152602001600020600084815260200190815260200160002054905080600660008773ffffffffffffffffffffffffffffffffffffffff1673ffffffffffffffffffffffffffffffffffffffff168152602001908152602001600020600084815260200190815260200160002081905550816007600083815260200190815260200160002081905550505b6007600084815260200190815260200160002060009055600660008573ffffffffffffffffffffffffffffffffffffffff1673ffffffffffffffffffffffffffffffffffffffff16815260200190815260200160002060008381526020019081526020016000206000905550505050565b600060016008805490506129e49190613fe8565b9050600060096000848152602001908152602001600020549050600060088381548110612a1457612a13613b13565b5b906000526020600020015490508060088381548110612a3657612a35613b13565b5b906000526020600020018190555081600960008381526020019081526020016000208190555060096000858152602001908152602001600020600090556008805480612a8557612a846144d7565b5b6001900381819060005260206000200160009055905550505050565b6000612aac836113d5565b905081600660008573ffffffffffffffffffffffffffffffffffffffff1673ffffffffffffffffffffffffffffffffffffffff168152602001908152602001600020600083815260200190815260200160002081905550806007600084815260200190815260200160002081905550505050565b600073ffffffffffffffffffffffffffffffffffffffff168273ffffffffffffffffffffffffffffffffffffffff161415612b90576040517f08c379a0000000000000000000000000000000000000000000000000000000008152600401612b8790614552565b60405180910390fd5b612b9981611cc6565b15612bd9576040517f08c379a0000000000000000000000000000000000000000000000000000000008152600401612bd0906145be565b60405180910390fd5b612be56000838361251e565b6001600360008473ffffffffffffffffffffffffffffffffffffffff1673ffffffffffffffffffffffffffffffffffffffff1681526020019081526020016000206000828254612c359190613c95565b92505081905550816002600083815260200190815260200160002060006101000a81548173ffffffffffffffffffffffffffffffffffffffff021916908373ffffffffffffffffffffffffffffffffffffffff160217905550808273ffffffffffffffffffffffffffffffffffffffff16600073ffffffffffffffffffffffffffffffffffffffff167fddf252ad1be2c89b69c2b068fc378daa952ba7f163c4a11628f55a4df523b3ef60405160405180910390a45050565b600080823b905060008111915050919050565b828054612d0d906136ba565b90600052602060002090601f016020900481019282612d2f5760008555612d76565b82601f10612d4857805160ff1916838001178555612d76565b82800160010185558215612d76579182015b82811115612d75578251825591602001919060010190612d5a565b5b509050612d839190612d87565b5090565b5b80821115612da0576000816000905550600101612d88565b5090565b6000604051905090565b600080fd5b600080fd5b6000819050919050565b612dcb81612db8565b8114612dd657600080fd5b50565b600081359050612de881612dc2565b92915050565b600080fd5b600080fd5b6000601f19601f8301169050919050565b7f4e487b7100000000000000000000000000000000000000000000000000000000600052604160045260246000fd5b612e4182612df8565b810181811067ffffffffffffffff82111715612e6057612e5f612e09565b5b80604052505050565b6000612e73612da4565b9050612e7f8282612e38565b919050565b600067ffffffffffffffff821115612e9f57612e9e612e09565b5b612ea882612df8565b9050602081019050919050565b82818337600083830152505050565b6000612ed7612ed284612e84565b612e69565b905082815260208101848484011115612ef357612ef2612df3565b5b612efe848285612eb5565b509392505050565b600082601f830112612f1b57612f1a612dee565b5b8135612f2b848260208601612ec4565b91505092915050565b60008060408385031215612f4b57612f4a612dae565b5b6000612f5985828601612dd9565b925050602083013567ffffffffffffffff811115612f7a57612f79612db3565b5b612f8685828601612f06565b9150509250929050565b60007fffffffff0000000000000000000000000000000000000000000000000000000082169050919050565b612fc581612f90565b8114612fd057600080fd5b50565b600081359050612fe281612fbc565b92915050565b600060208284031215612ffe57612ffd612dae565b5b600061300c84828501612fd3565b91505092915050565b60008115159050919050565b61302a81613015565b82525050565b60006020820190506130456000830184613021565b92915050565b600081519050919050565b600082825260208201905092915050565b60005b8381101561308557808201518184015260208101905061306a565b83811115613094576000848401525b50505050565b60006130a58261304b565b6130af8185613056565b93506130bf818560208601613067565b6130c881612df8565b840191505092915050565b600060208201905081810360008301526130ed818461309a565b905092915050565b60006020828403121561310b5761310a612dae565b5b600061311984828501612dd9565b91505092915050565b600073ffffffffffffffffffffffffffffffffffffffff82169050919050565b600061314d82613122565b9050919050565b61315d81613142565b82525050565b60006020820190506131786000830184613154565b92915050565b61318781613142565b811461319257600080fd5b50565b6000813590506131a48161317e565b92915050565b600080604083850312156131c1576131c0612dae565b5b60006131cf85828601613195565b92505060206131e085828601612dd9565b9150509250929050565b6131f381612db8565b82525050565b600060208201905061320e60008301846131ea565b92915050565b60008060006060848603121561322d5761322c612dae565b5b600061323b86828701613195565b935050602061324c86828701613195565b925050604061325d86828701612dd9565b9150509250925092565b60006020828403121561327d5761327c612dae565b5b600061328b84828501613195565b91505092915050565b6000602082840312156132aa576132a9612dae565b5b600082013567ffffffffffffffff8111156132c8576132c7612db3565b5b6132d484828501612f06565b91505092915050565b600081519050919050565b600082825260208201905092915050565b6000819050602082019050919050565b61331281612db8565b82525050565b60006133248383613309565b60208301905092915050565b6000602082019050919050565b6000613348826132dd565b61335281856132e8565b935061335d836132f9565b8060005b8381101561338e5781516133758882613318565b975061338083613330565b925050600181019050613361565b5085935050505092915050565b600060208201905081810360008301526133b5818461333d565b905092915050565b6133c681613015565b81146133d157600080fd5b50565b6000813590506133e3816133bd565b92915050565b60008060408385031215613400576133ff612dae565b5b600061340e85828601613195565b925050602061341f858286016133d4565b9150509250929050565b600067ffffffffffffffff82111561344457613443612e09565b5b61344d82612df8565b9050602081019050919050565b600061346d61346884613429565b612e69565b90508281526020810184848401111561348957613488612df3565b5b613494848285612eb5565b509392505050565b600082601f8301126134b1576134b0612dee565b5b81356134c184826020860161345a565b91505092915050565b600080600080608085870312156134e4576134e3612dae565b5b60006134f287828801613195565b945050602061350387828801613195565b935050604061351487828801612dd9565b925050606085013567ffffffffffffffff81111561353557613534612db3565b5b6135418782880161349c565b91505092959194509250565b6000806040838503121561356457613563612dae565b5b600061357285828601613195565b925050602061358385828601613195565b9150509250929050565b7f4f776e61626c653a2063616c6c6572206973206e6f7420746865206f776e6572600082015250565b60006135c3602083613056565b91506135ce8261358d565b602082019050919050565b600060208201905081810360008301526135f2816135b6565b9050919050565b7f45524337323155524953746f726167653a2055524920736574206f66206e6f6e60008201527f6578697374656e7420746f6b656e000000000000000000000000000000000000602082015250565b6000613655602e83613056565b9150613660826135f9565b604082019050919050565b6000602082019050818103600083015261368481613648565b9050919050565b7f4e487b7100000000000000000000000000000000000000000000000000000000600052602260045260246000fd5b600060028204905060018216806136d257607f821691505b602082108114156136e6576136e561368b565b5b50919050565b7f4552433732313a20617070726f76656420717565727920666f72206e6f6e657860008201527f697374656e7420746f6b656e0000000000000000000000000000000000000000602082015250565b6000613748602c83613056565b9150613753826136ec565b604082019050919050565b600060208201905081810360008301526137778161373b565b9050919050565b7f4552433732313a20617070726f76616c20746f2063757272656e74206f776e6560008201527f7200000000000000000000000000000000000000000000000000000000000000602082015250565b60006137da602183613056565b91506137e58261377e565b604082019050919050565b60006020820190508181036000830152613809816137cd565b9050919050565b7f4552433732313a20617070726f76652063616c6c6572206973206e6f74206f7760008201527f6e6572206e6f7220617070726f76656420666f7220616c6c0000000000000000602082015250565b600061386c603883613056565b915061387782613810565b604082019050919050565b6000602082019050818103600083015261389b8161385f565b9050919050565b7f4552433732313a207472616e736665722063616c6c6572206973206e6f74206f60008201527f776e6572206e6f7220617070726f766564000000000000000000000000000000602082015250565b60006138fe603183613056565b9150613909826138a2565b604082019050919050565b6000602082019050818103600083015261392d816138f1565b9050919050565b7f61646472657373206d696e74657220616c6c6f77656420666f72206d696e746960008201527f6e67000000000000000000000000000000000000000000000000000000000000602082015250565b6000613990602283613056565b915061399b82613934565b604082019050919050565b600060208201905081810360008301526139bf81613983565b9050919050565b7f455243373231456e756d657261626c653a206f776e657220696e646578206f7560008201527f74206f6620626f756e6473000000000000000000000000000000000000000000602082015250565b6000613a22602b83613056565b9150613a2d826139c6565b604082019050919050565b60006020820190508181036000830152613a5181613a15565b9050919050565b6000604082019050613a6d60008301856131ea565b613a7a60208301846131ea565b9392505050565b7f455243373231456e756d657261626c653a20676c6f62616c20696e646578206f60008201527f7574206f6620626f756e64730000000000000000000000000000000000000000602082015250565b6000613add602c83613056565b9150613ae882613a81565b604082019050919050565b60006020820190508181036000830152613b0c81613ad0565b9050919050565b7f4e487b7100000000000000000000000000000000000000000000000000000000600052603260045260246000fd5b7f4552433732313a206f776e657220717565727920666f72206e6f6e657869737460008201527f656e7420746f6b656e0000000000000000000000000000000000000000000000602082015250565b6000613b9e602983613056565b9150613ba982613b42565b604082019050919050565b60006020820190508181036000830152613bcd81613b91565b9050919050565b7f596f7520646f6e27742061726520616c6c6f77656420666f72206d696e74696e60008201527f6700000000000000000000000000000000000000000000000000000000000000602082015250565b6000613c30602183613056565b9150613c3b82613bd4565b604082019050919050565b60006020820190508181036000830152613c5f81613c23565b9050919050565b7f4e487b7100000000000000000000000000000000000000000000000000000000600052601160045260246000fd5b6000613ca082612db8565b9150613cab83612db8565b9250827fffffffffffffffffffffffffffffffffffffffffffffffffffffffffffffffff03821115613ce057613cdf613c66565b5b828201905092915050565b7f4552433732313a2062616c616e636520717565727920666f7220746865207a6560008201527f726f206164647265737300000000000000000000000000000000000000000000602082015250565b6000613d47602a83613056565b9150613d5282613ceb565b604082019050919050565b60006020820190508181036000830152613d7681613d3a565b9050919050565b6000613d8882612db8565b91507fffffffffffffffffffffffffffffffffffffffffffffffffffffffffffffffff821415613dbb57613dba613c66565b5b600182019050919050565b7f61646472657373206d696e746572206e6f7420616c6c6f77656420666f72206d60008201527f696e74696e670000000000000000000000000000000000000000000000000000602082015250565b6000613e22602683613056565b9150613e2d82613dc6565b604082019050919050565b60006020820190508181036000830152613e5181613e15565b9050919050565b7f53616c65206d7573742062652061637469766520746f2062757920546f6b656e60008201527f7300000000000000000000000000000000000000000000000000000000000000602082015250565b6000613eb4602183613056565b9150613ebf82613e58565b604082019050919050565b60006020820190508181036000830152613ee381613ea7565b9050919050565b7f546865726520617265206e6f20746f6b656e7320746f20627579000000000000600082015250565b6000613f20601a83613056565b9150613f2b82613eea565b602082019050919050565b60006020820190508181036000830152613f4f81613f13565b9050919050565b7f76616c75652073656e74206e6565647320746f2062652061746c65617374207360008201527f616c652070726963650000000000000000000000000000000000000000000000602082015250565b6000613fb2602983613056565b9150613fbd82613f56565b604082019050919050565b60006020820190508181036000830152613fe181613fa5565b9050919050565b6000613ff382612db8565b9150613ffe83612db8565b92508282101561401157614010613c66565b5b828203905092915050565b7f45524337323155524953746f726167653a2055524920717565727920666f722060008201527f6e6f6e6578697374656e7420746f6b656e000000000000000000000000000000602082015250565b6000614078603183613056565b91506140838261401c565b604082019050919050565b600060208201905081810360008301526140a78161406b565b9050919050565b7f4f776e61626c653a206e6577206f776e657220697320746865207a65726f206160008201527f6464726573730000000000000000000000000000000000000000000000000000602082015250565b600061410a602683613056565b9150614115826140ae565b604082019050919050565b60006020820190508181036000830152614139816140fd565b9050919050565b7f4552433732313a206f70657261746f7220717565727920666f72206e6f6e657860008201527f697374656e7420746f6b656e0000000000000000000000000000000000000000602082015250565b600061419c602c83613056565b91506141a782614140565b604082019050919050565b600060208201905081810360008301526141cb8161418f565b9050919050565b7f4552433732313a207472616e73666572206f6620746f6b656e2074686174206960008201527f73206e6f74206f776e0000000000000000000000000000000000000000000000602082015250565b600061422e602983613056565b9150614239826141d2565b604082019050919050565b6000602082019050818103600083015261425d81614221565b9050919050565b7f4552433732313a207472616e7366657220746f20746865207a65726f2061646460008201527f7265737300000000000000000000000000000000000000000000000000000000602082015250565b60006142c0602483613056565b91506142cb82614264565b604082019050919050565b600060208201905081810360008301526142ef816142b3565b9050919050565b7f4552433732313a20617070726f766520746f2063616c6c657200000000000000600082015250565b600061432c601983613056565b9150614337826142f6565b602082019050919050565b6000602082019050818103600083015261435b8161431f565b9050919050565b7f4552433732313a207472616e7366657220746f206e6f6e20455243373231526560008201527f63656976657220696d706c656d656e7465720000000000000000000000000000602082015250565b60006143be603283613056565b91506143c982614362565b604082019050919050565b600060208201905081810360008301526143ed816143b1565b9050919050565b600081519050919050565b600082825260208201905092915050565b600061441b826143f4565b61442581856143ff565b9350614435818560208601613067565b61443e81612df8565b840191505092915050565b600060808201905061445e6000830187613154565b61446b6020830186613154565b61447860408301856131ea565b818103606083015261448a8184614410565b905095945050505050565b6000815190506144a481612fbc565b92915050565b6000602082840312156144c0576144bf612dae565b5b60006144ce84828501614495565b91505092915050565b7f4e487b7100000000000000000000000000000000000000000000000000000000600052603160045260246000fd5b7f4552433732313a206d696e7420746f20746865207a65726f2061646472657373600082015250565b600061453c602083613056565b915061454782614506565b602082019050919050565b6000602082019050818103600083015261456b8161452f565b9050919050565b7f4552433732313a20746f6b656e20616c7265616479206d696e74656400000000600082015250565b60006145a8601c83613056565b91506145b382614572565b602082019050919050565b600060208201905081810360008301526145d78161459b565b905091905056fea2646970667358221220ca5e17cf97983ff4d5d9d6e251408958d0f5723c80c6572802120a633121183c64736f6c634300080c0033",
  "immutableReferences": {},
  "source": "//SPDX-License-Identifier: UNLICENSED\r\npragma solidity ^0.8.0;\r\n\r\n/**\r\n * dev: https://cainuriel.github.io/\r\n /$$      /$$           /$$                      /$$$$$$   /$$                    /$$           /$$                              \r\n| $$$    /$$$          | $$                     /$$__  $$ | $$                   | $$          |__/                              \r\n| $$$$  /$$$$  /$$$$$$ | $$  /$$$$$$  /$$$$$$$ | $$  \\__//$$$$$$   /$$$$$$$  /$$$$$$$  /$$$$$$  /$$ /$$$$$$$   /$$$$$$   /$$$$$$ \r\n| $$ $$/$$ $$ |____  $$| $$ |____  $$| $$__  $$| $$$$   |_  $$_/  /$$_____/ /$$__  $$ /$$__  $$| $$| $$__  $$ /$$__  $$ /$$__  $$\r\n| $$  $$$| $$  /$$$$$$$| $$  /$$$$$$$| $$  \\ $$| $$_/     | $$   |  $$$$$$ | $$  | $$| $$  \\__/| $$| $$  \\ $$| $$$$$$$$| $$  \\__/\r\n| $$\\  $ | $$ /$$__  $$| $$ /$$__  $$| $$  | $$| $$       | $$ /$$\\____  $$| $$  | $$| $$      | $$| $$  | $$| $$_____/| $$      \r\n| $$ \\/  | $$|  $$$$$$$| $$|  $$$$$$$| $$  | $$| $$       |  $$$$//$$$$$$$/|  $$$$$$$| $$      | $$| $$  | $$|  $$$$$$$| $$      \r\n|__/     |__/ \\_______/|__/ \\_______/|__/  |__/|__/        \\___/ |_______/  \\_______/|__/      |__/|__/  |__/ \\_______/|__/      \r\n * \r\n **/\r\n\r\n // 0xEC2b1F41E90590cfc44c090DFdeed9DCb55eE000 in testnet \r\n\r\n /** Delete tokenURIs array from original contract\r\n* @global []TokenURIs\r\n* \r\n*/\r\n\r\nimport \"@openzeppelin/contracts/token/ERC721/extensions/ERC721Enumerable.sol\";\r\nimport \"@openzeppelin/contracts/access/Ownable.sol\";\r\n\r\n\r\ncontract BNBCollection is ERC721Enumerable, Ownable  \r\n{   \r\n    mapping(address => bool) private  _minters;\r\n    mapping(uint => string) _tokenIdToTokenURI;\r\n    uint256 public alreadySold;\r\n    uint256 public onSale;\r\n    bool public saleIsActive;\r\n     uint256 public tokenPrice = 300000000000000000; //0.3 BNB\r\n\r\n    \r\n      /**\r\n   * Event for token purchase logging\r\n   * @param purchaser who paid for the tokens\r\n   * @param beneficiary who got the tokens\r\n   * @param value weis paid for purchase\r\n   * @param idToken NFT purchased\r\n   */\r\n  event TokenPurchase(\r\n    address indexed purchaser,\r\n    address indexed beneficiary,\r\n    uint256 value,\r\n    uint256 idToken\r\n  );\r\n  \r\n   /**\r\n   * Event for token purchase logging\r\n   * @param minter who minted tokens\r\n   * @param id of token minted\r\n   */\r\n  event Mint(\r\n    address indexed minter,\r\n    uint256 id,\r\n    uint256 date\r\n  );\r\n  \r\n   /**\r\n   * Event for token purchase logging\r\n   * @param amount total sale balance\r\n   * @param date collection date\r\n   */\r\n  event WithdrawTime(\r\n    uint256 amount,\r\n    uint256 date\r\n  );\r\n    \r\n    constructor() \r\n    ERC721(\"Malanftdriner Collection\", \"MLNFT\") \r\n    {\r\n        _minters[msg.sender] = true;\r\n\r\n    }\r\n\r\n    function withdraw() public onlyOwner \r\n    {\r\n        uint256 amount = address(this).balance;\r\n        payable(msg.sender).transfer(amount);\r\n        flipSaleState();\r\n        emit WithdrawTime(amount, block.timestamp);\r\n        \r\n    }\r\n    \r\n         function saleMintToken(address buyer) public payable \r\n    {\r\n          \r\n        require(saleIsActive, \"Sale must be active to buy Tokens\");\r\n        require(onSale != 0, \"There are no tokens to buy\");\r\n        require(msg.value >= tokenPrice, \"value sent needs to be atleast sale price\");\r\n         uint256[] memory tokenId = tokensOfOwner(owner());\r\n        _transfer(owner(), buyer, tokenId[0]);\r\n        onSale = onSale - 1;\r\n        alreadySold = alreadySold + 1;\r\n\r\n       emit TokenPurchase(owner(), buyer, msg.value, tokenId[0]);\r\n    }\r\n\r\n\r\n        function safeMint(string memory _tokenURI) public  \r\n        {\r\n        require(_minters[msg.sender] || balanceOf(msg.sender) != 0, \"You don't are allowed for minting\");\r\n        uint256 supply = totalSupply();\r\n        uint _id = supply + 1;\r\n        _tokenIdToTokenURI[_id] = _tokenURI;\r\n\r\n        _safeMint(msg.sender, _id);\r\n\r\n        emit Mint(msg.sender, _id, block.timestamp);\r\n\r\n        }\r\n\r\n           /**\r\n         * @dev approve an account for mint\r\n         */\r\n         function setMinterApproved(address minter) public onlyOwner \r\n    {   require(!_minters[minter], \"address minter allowed for minting\");\r\n        _minters[minter] = true;\r\n    }\r\n    \r\n        /**\r\n         * @dev disapprove an account for mint\r\n         */\r\n         function setMinterDisapproved(address minter) public onlyOwner \r\n    {\r\n         require(_minters[minter], \"address minter not allowed for minting\");\r\n        _minters[minter] = false;\r\n    }\r\n    \r\n      /**\r\n     * @dev show all the tokens of the owner.\r\n     */\r\n    function tokensOfOwner(address owner) public view returns (uint256[] memory)\r\n    {\r\n        uint256 ownerTokenCount = balanceOf(owner);\r\n        uint256[] memory tokenIds = new uint256[](ownerTokenCount);\r\n\r\n        for (uint256 i; i < ownerTokenCount; i++) {\r\n            tokenIds[i] = tokenOfOwnerByIndex(owner, i);\r\n        }\r\n        return tokenIds;\r\n    }\r\n    \r\n     function setTokenPrice(uint256 _tokenPrice) public onlyOwner \r\n    {\r\n        tokenPrice = _tokenPrice;\r\n    }\r\n\r\n    function getBalance() public view onlyOwner returns(uint256)  \r\n    {\r\n        return address(this).balance;\r\n    }\r\n    \r\n\r\n    function tokenURI(uint256 tokenId) public view override returns (string memory) \r\n    {\r\n        require(_exists(tokenId), \"ERC721URIStorage: URI query for nonexistent token\");\r\n\r\n            return _tokenIdToTokenURI[tokenId];\r\n    }\r\n\r\n    /**\r\n     * @dev Sets `tokenURI` as the tokenURI of `tokenId`.\r\n     *\r\n     * Requirements:\r\n     *\r\n     * - `tokenId` must exist.\r\n     */\r\n    function _setTokenURI(uint256 _tokenId, string memory _tokenURI) public onlyOwner\r\n    {\r\n        require(_exists(_tokenId), \"ERC721URIStorage: URI set of nonexistent token\");\r\n        _tokenIdToTokenURI[_tokenId] = _tokenURI;\r\n    }\r\n    \r\n      /*\r\n    * Pause sale if active, make active if paused\r\n    */\r\n    function flipSaleState() public onlyOwner \r\n    {\r\n        saleIsActive = !saleIsActive;\r\n    }\r\n\r\n    /*\r\n    *  Preparation amount of Tokens for sale in malandriner app. Only owner can sale.\r\n    */\r\n    function prepareSale() public onlyOwner \r\n    {   onSale = balanceOf(owner());\r\n        \r\n    }\r\n\r\n}",
  "sourcePath": "C:\\Users\\cainu\\Documents\\Programacion\\solidity\\2021\\BNBMarketplace\\src\\contracts\\BNBCollection.sol",
  "compiler": {
    "name": "solc",
    "version": "0.8.12+commit.f00d7308.Emscripten.clang"
  },
  "schemaVersion": "3.4.3",
  "updatedAt": "2022-02-19T12:56:24.159Z",
  "networkType": "ethereum",
  "devdoc": {
    "events": {
      "Mint(address,uint256,uint256)": {
        "params": {
          "id": "of token minted",
          "minter": "who minted tokens"
        }
      },
      "TokenPurchase(address,address,uint256,uint256)": {
        "params": {
          "beneficiary": "who got the tokens",
          "idToken": "NFT purchased",
          "purchaser": "who paid for the tokens",
          "value": "weis paid for purchase"
        }
      },
      "WithdrawTime(uint256,uint256)": {
        "params": {
          "amount": "total sale balance",
          "date": "collection date"
        }
      }
    },
    "kind": "dev",
    "methods": {
      "_setTokenURI(uint256,string)": {
        "details": "Sets `tokenURI` as the tokenURI of `tokenId`. Requirements: - `tokenId` must exist."
      },
      "approve(address,uint256)": {
        "details": "See {IERC721-approve}."
      },
      "balanceOf(address)": {
        "details": "See {IERC721-balanceOf}."
      },
      "getApproved(uint256)": {
        "details": "See {IERC721-getApproved}."
      },
      "isApprovedForAll(address,address)": {
        "details": "See {IERC721-isApprovedForAll}."
      },
      "name()": {
        "details": "See {IERC721Metadata-name}."
      },
      "owner()": {
        "details": "Returns the address of the current owner."
      },
      "ownerOf(uint256)": {
        "details": "See {IERC721-ownerOf}."
      },
      "renounceOwnership()": {
        "details": "Leaves the contract without owner. It will not be possible to call `onlyOwner` functions anymore. Can only be called by the current owner. NOTE: Renouncing ownership will leave the contract without an owner, thereby removing any functionality that is only available to the owner."
      },
      "safeTransferFrom(address,address,uint256)": {
        "details": "See {IERC721-safeTransferFrom}."
      },
      "safeTransferFrom(address,address,uint256,bytes)": {
        "details": "See {IERC721-safeTransferFrom}."
      },
      "setApprovalForAll(address,bool)": {
        "details": "See {IERC721-setApprovalForAll}."
      },
      "setMinterApproved(address)": {
        "details": "approve an account for mint"
      },
      "setMinterDisapproved(address)": {
        "details": "disapprove an account for mint"
      },
      "supportsInterface(bytes4)": {
        "details": "See {IERC165-supportsInterface}."
      },
      "symbol()": {
        "details": "See {IERC721Metadata-symbol}."
      },
      "tokenByIndex(uint256)": {
        "details": "See {IERC721Enumerable-tokenByIndex}."
      },
      "tokenOfOwnerByIndex(address,uint256)": {
        "details": "See {IERC721Enumerable-tokenOfOwnerByIndex}."
      },
      "tokenURI(uint256)": {
        "details": "See {IERC721Metadata-tokenURI}."
      },
      "tokensOfOwner(address)": {
        "details": "show all the tokens of the owner."
      },
      "totalSupply()": {
        "details": "See {IERC721Enumerable-totalSupply}."
      },
      "transferFrom(address,address,uint256)": {
        "details": "See {IERC721-transferFrom}."
      },
      "transferOwnership(address)": {
        "details": "Transfers ownership of the contract to a new account (`newOwner`). Can only be called by the current owner."
      }
    },
    "version": 1
  },
  "userdoc": {
    "events": {
      "Mint(address,uint256,uint256)": {
        "notice": "Event for token purchase logging"
      },
      "TokenPurchase(address,address,uint256,uint256)": {
        "notice": "Event for token purchase logging"
      },
      "WithdrawTime(uint256,uint256)": {
        "notice": "Event for token purchase logging"
      }
    },
    "kind": "user",
    "methods": {},
    "version": 1
  }
}