{
  "contractName": "BNBCollection",
  "abi": [
    {
      "inputs": [],
      "stateMutability": "nonpayable",
      "type": "constructor"
    },
    {
      "anonymous": false,
      "inputs": [
        {
          "indexed": true,
          "internalType": "address",
          "name": "owner",
          "type": "address"
        },
        {
          "indexed": true,
          "internalType": "address",
          "name": "approved",
          "type": "address"
        },
        {
          "indexed": true,
          "internalType": "uint256",
          "name": "tokenId",
          "type": "uint256"
        }
      ],
      "name": "Approval",
      "type": "event"
    },
    {
      "anonymous": false,
      "inputs": [
        {
          "indexed": true,
          "internalType": "address",
          "name": "owner",
          "type": "address"
        },
        {
          "indexed": true,
          "internalType": "address",
          "name": "operator",
          "type": "address"
        },
        {
          "indexed": false,
          "internalType": "bool",
          "name": "approved",
          "type": "bool"
        }
      ],
      "name": "ApprovalForAll",
      "type": "event"
    },
    {
      "anonymous": false,
      "inputs": [
        {
          "indexed": true,
          "internalType": "address",
          "name": "minter",
          "type": "address"
        },
        {
          "indexed": false,
          "internalType": "uint256",
          "name": "id",
          "type": "uint256"
        },
        {
          "indexed": false,
          "internalType": "uint256",
          "name": "date",
          "type": "uint256"
        }
      ],
      "name": "Mint",
      "type": "event"
    },
    {
      "anonymous": false,
      "inputs": [
        {
          "indexed": true,
          "internalType": "address",
          "name": "previousOwner",
          "type": "address"
        },
        {
          "indexed": true,
          "internalType": "address",
          "name": "newOwner",
          "type": "address"
        }
      ],
      "name": "OwnershipTransferred",
      "type": "event"
    },
    {
      "anonymous": false,
      "inputs": [
        {
          "indexed": true,
          "internalType": "address",
          "name": "purchaser",
          "type": "address"
        },
        {
          "indexed": true,
          "internalType": "address",
          "name": "beneficiary",
          "type": "address"
        },
        {
          "indexed": false,
          "internalType": "uint256",
          "name": "value",
          "type": "uint256"
        },
        {
          "indexed": false,
          "internalType": "uint256",
          "name": "idToken",
          "type": "uint256"
        }
      ],
      "name": "TokenPurchase",
      "type": "event"
    },
    {
      "anonymous": false,
      "inputs": [
        {
          "indexed": true,
          "internalType": "address",
          "name": "from",
          "type": "address"
        },
        {
          "indexed": true,
          "internalType": "address",
          "name": "to",
          "type": "address"
        },
        {
          "indexed": true,
          "internalType": "uint256",
          "name": "tokenId",
          "type": "uint256"
        }
      ],
      "name": "Transfer",
      "type": "event"
    },
    {
      "anonymous": false,
      "inputs": [
        {
          "indexed": false,
          "internalType": "uint256",
          "name": "amount",
          "type": "uint256"
        },
        {
          "indexed": false,
          "internalType": "uint256",
          "name": "date",
          "type": "uint256"
        }
      ],
      "name": "WithdrawTime",
      "type": "event"
    },
    {
      "inputs": [],
      "name": "alreadySold",
      "outputs": [
        {
          "internalType": "uint256",
          "name": "",
          "type": "uint256"
        }
      ],
      "stateMutability": "view",
      "type": "function"
    },
    {
      "inputs": [
        {
          "internalType": "address",
          "name": "to",
          "type": "address"
        },
        {
          "internalType": "uint256",
          "name": "tokenId",
          "type": "uint256"
        }
      ],
      "name": "approve",
      "outputs": [],
      "stateMutability": "nonpayable",
      "type": "function"
    },
    {
      "inputs": [
        {
          "internalType": "address",
          "name": "owner",
          "type": "address"
        }
      ],
      "name": "balanceOf",
      "outputs": [
        {
          "internalType": "uint256",
          "name": "",
          "type": "uint256"
        }
      ],
      "stateMutability": "view",
      "type": "function"
    },
    {
      "inputs": [
        {
          "internalType": "uint256",
          "name": "tokenId",
          "type": "uint256"
        }
      ],
      "name": "getApproved",
      "outputs": [
        {
          "internalType": "address",
          "name": "",
          "type": "address"
        }
      ],
      "stateMutability": "view",
      "type": "function"
    },
    {
      "inputs": [
        {
          "internalType": "address",
          "name": "owner",
          "type": "address"
        },
        {
          "internalType": "address",
          "name": "operator",
          "type": "address"
        }
      ],
      "name": "isApprovedForAll",
      "outputs": [
        {
          "internalType": "bool",
          "name": "",
          "type": "bool"
        }
      ],
      "stateMutability": "view",
      "type": "function"
    },
    {
      "inputs": [],
      "name": "name",
      "outputs": [
        {
          "internalType": "string",
          "name": "",
          "type": "string"
        }
      ],
      "stateMutability": "view",
      "type": "function"
    },
    {
      "inputs": [],
      "name": "onSale",
      "outputs": [
        {
          "internalType": "uint256",
          "name": "",
          "type": "uint256"
        }
      ],
      "stateMutability": "view",
      "type": "function"
    },
    {
      "inputs": [],
      "name": "owner",
      "outputs": [
        {
          "internalType": "address",
          "name": "",
          "type": "address"
        }
      ],
      "stateMutability": "view",
      "type": "function"
    },
    {
      "inputs": [
        {
          "internalType": "uint256",
          "name": "tokenId",
          "type": "uint256"
        }
      ],
      "name": "ownerOf",
      "outputs": [
        {
          "internalType": "address",
          "name": "",
          "type": "address"
        }
      ],
      "stateMutability": "view",
      "type": "function"
    },
    {
      "inputs": [],
      "name": "renounceOwnership",
      "outputs": [],
      "stateMutability": "nonpayable",
      "type": "function"
    },
    {
      "inputs": [
        {
          "internalType": "address",
          "name": "from",
          "type": "address"
        },
        {
          "internalType": "address",
          "name": "to",
          "type": "address"
        },
        {
          "internalType": "uint256",
          "name": "tokenId",
          "type": "uint256"
        }
      ],
      "name": "safeTransferFrom",
      "outputs": [],
      "stateMutability": "nonpayable",
      "type": "function"
    },
    {
      "inputs": [
        {
          "internalType": "address",
          "name": "from",
          "type": "address"
        },
        {
          "internalType": "address",
          "name": "to",
          "type": "address"
        },
        {
          "internalType": "uint256",
          "name": "tokenId",
          "type": "uint256"
        },
        {
          "internalType": "bytes",
          "name": "_data",
          "type": "bytes"
        }
      ],
      "name": "safeTransferFrom",
      "outputs": [],
      "stateMutability": "nonpayable",
      "type": "function"
    },
    {
      "inputs": [],
      "name": "saleIsActive",
      "outputs": [
        {
          "internalType": "bool",
          "name": "",
          "type": "bool"
        }
      ],
      "stateMutability": "view",
      "type": "function"
    },
    {
      "inputs": [
        {
          "internalType": "address",
          "name": "operator",
          "type": "address"
        },
        {
          "internalType": "bool",
          "name": "approved",
          "type": "bool"
        }
      ],
      "name": "setApprovalForAll",
      "outputs": [],
      "stateMutability": "nonpayable",
      "type": "function"
    },
    {
      "inputs": [
        {
          "internalType": "bytes4",
          "name": "interfaceId",
          "type": "bytes4"
        }
      ],
      "name": "supportsInterface",
      "outputs": [
        {
          "internalType": "bool",
          "name": "",
          "type": "bool"
        }
      ],
      "stateMutability": "view",
      "type": "function"
    },
    {
      "inputs": [],
      "name": "symbol",
      "outputs": [
        {
          "internalType": "string",
          "name": "",
          "type": "string"
        }
      ],
      "stateMutability": "view",
      "type": "function"
    },
    {
      "inputs": [
        {
          "internalType": "uint256",
          "name": "index",
          "type": "uint256"
        }
      ],
      "name": "tokenByIndex",
      "outputs": [
        {
          "internalType": "uint256",
          "name": "",
          "type": "uint256"
        }
      ],
      "stateMutability": "view",
      "type": "function"
    },
    {
      "inputs": [
        {
          "internalType": "address",
          "name": "owner",
          "type": "address"
        },
        {
          "internalType": "uint256",
          "name": "index",
          "type": "uint256"
        }
      ],
      "name": "tokenOfOwnerByIndex",
      "outputs": [
        {
          "internalType": "uint256",
          "name": "",
          "type": "uint256"
        }
      ],
      "stateMutability": "view",
      "type": "function"
    },
    {
      "inputs": [],
      "name": "tokenPrice",
      "outputs": [
        {
          "internalType": "uint256",
          "name": "",
          "type": "uint256"
        }
      ],
      "stateMutability": "view",
      "type": "function"
    },
    {
      "inputs": [
        {
          "internalType": "uint256",
          "name": "",
          "type": "uint256"
        }
      ],
      "name": "tokenURIs",
      "outputs": [
        {
          "internalType": "string",
          "name": "",
          "type": "string"
        }
      ],
      "stateMutability": "view",
      "type": "function"
    },
    {
      "inputs": [],
      "name": "totalSupply",
      "outputs": [
        {
          "internalType": "uint256",
          "name": "",
          "type": "uint256"
        }
      ],
      "stateMutability": "view",
      "type": "function"
    },
    {
      "inputs": [
        {
          "internalType": "address",
          "name": "from",
          "type": "address"
        },
        {
          "internalType": "address",
          "name": "to",
          "type": "address"
        },
        {
          "internalType": "uint256",
          "name": "tokenId",
          "type": "uint256"
        }
      ],
      "name": "transferFrom",
      "outputs": [],
      "stateMutability": "nonpayable",
      "type": "function"
    },
    {
      "inputs": [
        {
          "internalType": "address",
          "name": "newOwner",
          "type": "address"
        }
      ],
      "name": "transferOwnership",
      "outputs": [],
      "stateMutability": "nonpayable",
      "type": "function"
    },
    {
      "inputs": [],
      "name": "withdraw",
      "outputs": [],
      "stateMutability": "nonpayable",
      "type": "function"
    },
    {
      "inputs": [
        {
          "internalType": "address",
          "name": "buyer",
          "type": "address"
        }
      ],
      "name": "saleMintToken",
      "outputs": [],
      "stateMutability": "payable",
      "type": "function"
    },
    {
      "inputs": [
        {
          "internalType": "string",
          "name": "_tokenURI",
          "type": "string"
        }
      ],
      "name": "safeMint",
      "outputs": [],
      "stateMutability": "nonpayable",
      "type": "function"
    },
    {
      "inputs": [
        {
          "internalType": "address",
          "name": "minter",
          "type": "address"
        }
      ],
      "name": "setMinterApproved",
      "outputs": [],
      "stateMutability": "nonpayable",
      "type": "function"
    },
    {
      "inputs": [
        {
          "internalType": "address",
          "name": "minter",
          "type": "address"
        }
      ],
      "name": "setMinterDisapproved",
      "outputs": [],
      "stateMutability": "nonpayable",
      "type": "function"
    },
    {
      "inputs": [
        {
          "internalType": "address",
          "name": "owner",
          "type": "address"
        }
      ],
      "name": "tokensOfOwner",
      "outputs": [
        {
          "internalType": "uint256[]",
          "name": "",
          "type": "uint256[]"
        }
      ],
      "stateMutability": "view",
      "type": "function"
    },
    {
      "inputs": [
        {
          "internalType": "uint256",
          "name": "_tokenPrice",
          "type": "uint256"
        }
      ],
      "name": "setTokenPrice",
      "outputs": [],
      "stateMutability": "nonpayable",
      "type": "function"
    },
    {
      "inputs": [],
      "name": "getBalance",
      "outputs": [
        {
          "internalType": "uint256",
          "name": "",
          "type": "uint256"
        }
      ],
      "stateMutability": "view",
      "type": "function"
    },
    {
      "inputs": [
        {
          "internalType": "uint256",
          "name": "tokenId",
          "type": "uint256"
        }
      ],
      "name": "tokenURI",
      "outputs": [
        {
          "internalType": "string",
          "name": "",
          "type": "string"
        }
      ],
      "stateMutability": "view",
      "type": "function"
    },
    {
      "inputs": [
        {
          "internalType": "uint256",
          "name": "_tokenId",
          "type": "uint256"
        },
        {
          "internalType": "string",
          "name": "_tokenURI",
          "type": "string"
        }
      ],
      "name": "_setTokenURI",
      "outputs": [],
      "stateMutability": "nonpayable",
      "type": "function"
    },
    {
      "inputs": [],
      "name": "flipSaleState",
      "outputs": [],
      "stateMutability": "nonpayable",
      "type": "function"
    },
    {
      "inputs": [],
      "name": "prepareSale",
      "outputs": [],
      "stateMutability": "nonpayable",
      "type": "function"
    }
  ],
  "bytecode": "0x6080604052670429d069189e00006011553480156200001d57600080fd5b506040518060400160405280601881526020017f4d616c616e66746472696e657220436f6c6c656374696f6e00000000000000008152506040518060400160405280600581526020017f4d4c4e465400000000000000000000000000000000000000000000000000000081525081600090816200009b919062000476565b508060019081620000ad919062000476565b505050620000d0620000c46200012e60201b60201c565b6200013660201b60201c565b6001600b60003373ffffffffffffffffffffffffffffffffffffffff1673ffffffffffffffffffffffffffffffffffffffff16815260200190815260200160002060006101000a81548160ff0219169083151502179055506200055d565b600033905090565b6000600a60009054906101000a900473ffffffffffffffffffffffffffffffffffffffff16905081600a60006101000a81548173ffffffffffffffffffffffffffffffffffffffff021916908373ffffffffffffffffffffffffffffffffffffffff1602179055508173ffffffffffffffffffffffffffffffffffffffff168173ffffffffffffffffffffffffffffffffffffffff167f8be0079c531659141344cd1fd0a4f28419497f9722a3daafe3b4186f6b6457e060405160405180910390a35050565b600081519050919050565b7f4e487b7100000000000000000000000000000000000000000000000000000000600052604160045260246000fd5b7f4e487b7100000000000000000000000000000000000000000000000000000000600052602260045260246000fd5b600060028204905060018216806200027e57607f821691505b60208210810362000294576200029362000236565b5b50919050565b60008190508160005260206000209050919050565b60006020601f8301049050919050565b600082821b905092915050565b600060088302620002fe7fffffffffffffffffffffffffffffffffffffffffffffffffffffffffffffffff82620002bf565b6200030a8683620002bf565b95508019841693508086168417925050509392505050565b6000819050919050565b6000819050919050565b600062000357620003516200034b8462000322565b6200032c565b62000322565b9050919050565b6000819050919050565b620003738362000336565b6200038b62000382826200035e565b848454620002cc565b825550505050565b600090565b620003a262000393565b620003af81848462000368565b505050565b5b81811015620003d757620003cb60008262000398565b600181019050620003b5565b5050565b601f8211156200042657620003f0816200029a565b620003fb84620002af565b810160208510156200040b578190505b620004236200041a85620002af565b830182620003b4565b50505b505050565b600082821c905092915050565b60006200044b600019846008026200042b565b1980831691505092915050565b600062000466838362000438565b9150826002028217905092915050565b6200048182620001fc565b67ffffffffffffffff8111156200049d576200049c62000207565b5b620004a9825462000265565b620004b6828285620003db565b600060209050601f831160018114620004ee5760008415620004d9578287015190505b620004e5858262000458565b86555062000555565b601f198416620004fe866200029a565b60005b82811015620005285784890151825560018201915060208501945060208101905062000501565b8683101562000548578489015162000544601f89168262000438565b8355505b6001600288020188555050505b505050505050565b614884806200056d6000396000f3fe6080604052600436106102045760003560e01c80636352211e11610118578063931c8bc4116100a0578063b88d4fde1161006f578063b88d4fde14610732578063c87b56dd1461075b578063e985e9c514610798578063eb8d2444146107d5578063f2fde38b1461080057610204565b8063931c8bc41461069957806395d89b41146106c2578063a22cb465146106ed578063a9b3b0c11461071657610204565b806370a08231116100e757806370a08231146105b2578063715018a6146105ef5780637ff9b596146106065780638462151c146106315780638da5cb5b1461066e57610204565b80636352211e146104e6578063695850fb146105235780636a61e5fc1461054c5780636c8b703f1461057557610204565b80632d1f1b911161019b5780633ccfd60b1161016a5780633ccfd60b1461042757806342842e0e1461043e5780634d2db81f146104675780634f6ccce71461049257806350017e5e146104cf57610204565b80632d1f1b911461037f5780632f745c59146103a8578063326687b9146103e557806334918dfd1461041057610204565b8063095ea7b3116101d7578063095ea7b3146102d757806312065fe01461030057806318160ddd1461032b57806323b872dd1461035657610204565b8063015388681461020957806301ffc9a71461023257806306fdde031461026f578063081812fc1461029a575b600080fd5b34801561021557600080fd5b50610230600480360381019061022b9190612f9b565b610829565b005b34801561023e57600080fd5b506102596004803603810190610254919061304f565b610912565b6040516102669190613097565b60405180910390f35b34801561027b57600080fd5b5061028461098c565b6040516102919190613131565b60405180910390f35b3480156102a657600080fd5b506102c160048036038101906102bc9190613153565b610a1e565b6040516102ce91906131c1565b60405180910390f35b3480156102e357600080fd5b506102fe60048036038101906102f99190613208565b610aa3565b005b34801561030c57600080fd5b50610315610bba565b6040516103229190613257565b60405180910390f35b34801561033757600080fd5b50610340610c3e565b60405161034d9190613257565b60405180910390f35b34801561036257600080fd5b5061037d60048036038101906103789190613272565b610c4b565b005b34801561038b57600080fd5b506103a660048036038101906103a191906132c5565b610cab565b005b3480156103b457600080fd5b506103cf60048036038101906103ca9190613208565b610e0f565b6040516103dc9190613257565b60405180910390f35b3480156103f157600080fd5b506103fa610eb4565b6040516104079190613257565b60405180910390f35b34801561041c57600080fd5b50610425610eba565b005b34801561043357600080fd5b5061043c610f62565b005b34801561044a57600080fd5b5061046560048036038101906104609190613272565b61106e565b005b34801561047357600080fd5b5061047c61108e565b6040516104899190613257565b60405180910390f35b34801561049e57600080fd5b506104b960048036038101906104b49190613153565b611094565b6040516104c69190613257565b60405180910390f35b3480156104db57600080fd5b506104e4611105565b005b3480156104f257600080fd5b5061050d60048036038101906105089190613153565b611199565b60405161051a91906131c1565b60405180910390f35b34801561052f57600080fd5b5061054a600480360381019061054591906132f2565b61124a565b005b34801561055857600080fd5b50610573600480360381019061056e9190613153565b6113bc565b005b34801561058157600080fd5b5061059c60048036038101906105979190613153565b611442565b6040516105a99190613131565b60405180910390f35b3480156105be57600080fd5b506105d960048036038101906105d491906132c5565b6114ee565b6040516105e69190613257565b60405180910390f35b3480156105fb57600080fd5b506106046115a5565b005b34801561061257600080fd5b5061061b61162d565b6040516106289190613257565b60405180910390f35b34801561063d57600080fd5b50610658600480360381019061065391906132c5565b611633565b60405161066591906133f9565b60405180910390f35b34801561067a57600080fd5b506106836116db565b60405161069091906131c1565b60405180910390f35b3480156106a557600080fd5b506106c060048036038101906106bb91906132c5565b611705565b005b3480156106ce57600080fd5b506106d7611868565b6040516106e49190613131565b60405180910390f35b3480156106f957600080fd5b50610714600480360381019061070f9190613447565b6118fa565b005b610730600480360381019061072b91906132c5565b611910565b005b34801561073e57600080fd5b5061075960048036038101906107549190613528565b611ae1565b005b34801561076757600080fd5b50610782600480360381019061077d9190613153565b611b43565b60405161078f9190613131565b60405180910390f35b3480156107a457600080fd5b506107bf60048036038101906107ba91906135ab565b611c30565b6040516107cc9190613097565b60405180910390f35b3480156107e157600080fd5b506107ea611cc4565b6040516107f79190613097565b60405180910390f35b34801561080c57600080fd5b50610827600480360381019061082291906132c5565b611cd7565b005b610831611dce565b73ffffffffffffffffffffffffffffffffffffffff1661084f6116db565b73ffffffffffffffffffffffffffffffffffffffff16146108a5576040517f08c379a000000000000000000000000000000000000000000000000000000000815260040161089c90613637565b60405180910390fd5b6108ae82611dd6565b6108ed576040517f08c379a00000000000000000000000000000000000000000000000000000000081526004016108e4906136c9565b60405180910390fd5b80600d6000848152602001908152602001600020908161090d91906138f5565b505050565b60007f780e9d63000000000000000000000000000000000000000000000000000000007bffffffffffffffffffffffffffffffffffffffffffffffffffffffff1916827bffffffffffffffffffffffffffffffffffffffffffffffffffffffff19161480610985575061098482611e42565b5b9050919050565b60606000805461099b90613718565b80601f01602080910402602001604051908101604052809291908181526020018280546109c790613718565b8015610a145780601f106109e957610100808354040283529160200191610a14565b820191906000526020600020905b8154815290600101906020018083116109f757829003601f168201915b5050505050905090565b6000610a2982611dd6565b610a68576040517f08c379a0000000000000000000000000000000000000000000000000000000008152600401610a5f90613a39565b60405180910390fd5b6004600083815260200190815260200160002060009054906101000a900473ffffffffffffffffffffffffffffffffffffffff169050919050565b6000610aae82611199565b90508073ffffffffffffffffffffffffffffffffffffffff168373ffffffffffffffffffffffffffffffffffffffff1603610b1e576040517f08c379a0000000000000000000000000000000000000000000000000000000008152600401610b1590613acb565b60405180910390fd5b8073ffffffffffffffffffffffffffffffffffffffff16610b3d611dce565b73ffffffffffffffffffffffffffffffffffffffff161480610b6c5750610b6b81610b66611dce565b611c30565b5b610bab576040517f08c379a0000000000000000000000000000000000000000000000000000000008152600401610ba290613b5d565b60405180910390fd5b610bb58383611f24565b505050565b6000610bc4611dce565b73ffffffffffffffffffffffffffffffffffffffff16610be26116db565b73ffffffffffffffffffffffffffffffffffffffff1614610c38576040517f08c379a0000000000000000000000000000000000000000000000000000000008152600401610c2f90613637565b60405180910390fd5b47905090565b6000600880549050905090565b610c5c610c56611dce565b82611fdd565b610c9b576040517f08c379a0000000000000000000000000000000000000000000000000000000008152600401610c9290613bef565b60405180910390fd5b610ca68383836120bb565b505050565b610cb3611dce565b73ffffffffffffffffffffffffffffffffffffffff16610cd16116db565b73ffffffffffffffffffffffffffffffffffffffff1614610d27576040517f08c379a0000000000000000000000000000000000000000000000000000000008152600401610d1e90613637565b60405180910390fd5b600b60008273ffffffffffffffffffffffffffffffffffffffff1673ffffffffffffffffffffffffffffffffffffffff16815260200190815260200160002060009054906101000a900460ff1615610db4576040517f08c379a0000000000000000000000000000000000000000000000000000000008152600401610dab90613c81565b60405180910390fd5b6001600b60008373ffffffffffffffffffffffffffffffffffffffff1673ffffffffffffffffffffffffffffffffffffffff16815260200190815260200160002060006101000a81548160ff02191690831515021790555050565b6000610e1a836114ee565b8210610e5b576040517f08c379a0000000000000000000000000000000000000000000000000000000008152600401610e5290613d13565b60405180910390fd5b600660008473ffffffffffffffffffffffffffffffffffffffff1673ffffffffffffffffffffffffffffffffffffffff168152602001908152602001600020600083815260200190815260200160002054905092915050565b600f5481565b610ec2611dce565b73ffffffffffffffffffffffffffffffffffffffff16610ee06116db565b73ffffffffffffffffffffffffffffffffffffffff1614610f36576040517f08c379a0000000000000000000000000000000000000000000000000000000008152600401610f2d90613637565b60405180910390fd5b601060009054906101000a900460ff1615601060006101000a81548160ff021916908315150217905550565b610f6a611dce565b73ffffffffffffffffffffffffffffffffffffffff16610f886116db565b73ffffffffffffffffffffffffffffffffffffffff1614610fde576040517f08c379a0000000000000000000000000000000000000000000000000000000008152600401610fd590613637565b60405180910390fd5b60004790503373ffffffffffffffffffffffffffffffffffffffff166108fc829081150290604051600060405180830381858888f19350505050158015611029573d6000803e3d6000fd5b50611032610eba565b7f340eda84c45ce2835fc1d07babdc92122b7d0c5ebf24b5065984e2d2f38dfbcf8142604051611063929190613d33565b60405180910390a150565b61108983838360405180602001604052806000815250611ae1565b505050565b600e5481565b600061109e610c3e565b82106110df576040517f08c379a00000000000000000000000000000000000000000000000000000000081526004016110d690613dce565b60405180910390fd5b600882815481106110f3576110f2613dee565b5b90600052602060002001549050919050565b61110d611dce565b73ffffffffffffffffffffffffffffffffffffffff1661112b6116db565b73ffffffffffffffffffffffffffffffffffffffff1614611181576040517f08c379a000000000000000000000000000000000000000000000000000000000815260040161117890613637565b60405180910390fd5b61119161118c6116db565b6114ee565b600f81905550565b6000806002600084815260200190815260200160002060009054906101000a900473ffffffffffffffffffffffffffffffffffffffff169050600073ffffffffffffffffffffffffffffffffffffffff168173ffffffffffffffffffffffffffffffffffffffff1603611241576040517f08c379a000000000000000000000000000000000000000000000000000000000815260040161123890613e8f565b60405180910390fd5b80915050919050565b600b60003373ffffffffffffffffffffffffffffffffffffffff1673ffffffffffffffffffffffffffffffffffffffff16815260200190815260200160002060009054906101000a900460ff16806112ab575060006112a8336114ee565b14155b6112ea576040517f08c379a00000000000000000000000000000000000000000000000000000000081526004016112e190613f21565b60405180910390fd5b60006112f4610c3e565b9050600c8290806001815401808255809150506001900390600052602060002001600090919091909150908161132a91906138f5565b50600060018261133a9190613f70565b905082600d6000838152602001908152602001600020908161135c91906138f5565b506113673382612316565b3373ffffffffffffffffffffffffffffffffffffffff167f4c209b5fc8ad50758f13e2e1088ba56a560dff690a1c6fef26394f4c03821c4f82426040516113af929190613d33565b60405180910390a2505050565b6113c4611dce565b73ffffffffffffffffffffffffffffffffffffffff166113e26116db565b73ffffffffffffffffffffffffffffffffffffffff1614611438576040517f08c379a000000000000000000000000000000000000000000000000000000000815260040161142f90613637565b60405180910390fd5b8060118190555050565b600c818154811061145257600080fd5b90600052602060002001600091509050805461146d90613718565b80601f016020809104026020016040519081016040528092919081815260200182805461149990613718565b80156114e65780601f106114bb576101008083540402835291602001916114e6565b820191906000526020600020905b8154815290600101906020018083116114c957829003601f168201915b505050505081565b60008073ffffffffffffffffffffffffffffffffffffffff168273ffffffffffffffffffffffffffffffffffffffff160361155e576040517f08c379a000000000000000000000000000000000000000000000000000000000815260040161155590614016565b60405180910390fd5b600360008373ffffffffffffffffffffffffffffffffffffffff1673ffffffffffffffffffffffffffffffffffffffff168152602001908152602001600020549050919050565b6115ad611dce565b73ffffffffffffffffffffffffffffffffffffffff166115cb6116db565b73ffffffffffffffffffffffffffffffffffffffff1614611621576040517f08c379a000000000000000000000000000000000000000000000000000000000815260040161161890613637565b60405180910390fd5b61162b6000612334565b565b60115481565b60606000611640836114ee565b905060008167ffffffffffffffff81111561165e5761165d612e70565b5b60405190808252806020026020018201604052801561168c5781602001602082028036833780820191505090505b50905060005b828110156116d0576116a48582610e0f565b8282815181106116b7576116b6613dee565b5b6020026020010181815250508080600101915050611692565b508092505050919050565b6000600a60009054906101000a900473ffffffffffffffffffffffffffffffffffffffff16905090565b61170d611dce565b73ffffffffffffffffffffffffffffffffffffffff1661172b6116db565b73ffffffffffffffffffffffffffffffffffffffff1614611781576040517f08c379a000000000000000000000000000000000000000000000000000000000815260040161177890613637565b60405180910390fd5b600b60008273ffffffffffffffffffffffffffffffffffffffff1673ffffffffffffffffffffffffffffffffffffffff16815260200190815260200160002060009054906101000a900460ff1661180d576040517f08c379a0000000000000000000000000000000000000000000000000000000008152600401611804906140a8565b60405180910390fd5b6000600b60008373ffffffffffffffffffffffffffffffffffffffff1673ffffffffffffffffffffffffffffffffffffffff16815260200190815260200160002060006101000a81548160ff02191690831515021790555050565b60606001805461187790613718565b80601f01602080910402602001604051908101604052809291908181526020018280546118a390613718565b80156118f05780601f106118c5576101008083540402835291602001916118f0565b820191906000526020600020905b8154815290600101906020018083116118d357829003601f168201915b5050505050905090565b61190c611905611dce565b83836123fa565b5050565b601060009054906101000a900460ff1661195f576040517f08c379a00000000000000000000000000000000000000000000000000000000081526004016119569061413a565b60405180910390fd5b6000600f54036119a4576040517f08c379a000000000000000000000000000000000000000000000000000000000815260040161199b906141a6565b60405180910390fd5b6011543410156119e9576040517f08c379a00000000000000000000000000000000000000000000000000000000081526004016119e090614238565b60405180910390fd5b60006119fb6119f66116db565b611633565b9050611a2a611a086116db565b8383600081518110611a1d57611a1c613dee565b5b60200260200101516120bb565b6001600f54611a399190614258565b600f819055506001600e54611a4e9190613f70565b600e819055508173ffffffffffffffffffffffffffffffffffffffff16611a736116db565b73ffffffffffffffffffffffffffffffffffffffff167f623b3804fa71d67900d064613da8f94b9617215ee90799290593e1745087ad183484600081518110611abf57611abe613dee565b5b6020026020010151604051611ad5929190613d33565b60405180910390a35050565b611af2611aec611dce565b83611fdd565b611b31576040517f08c379a0000000000000000000000000000000000000000000000000000000008152600401611b2890613bef565b60405180910390fd5b611b3d84848484612566565b50505050565b6060611b4e82611dd6565b611b8d576040517f08c379a0000000000000000000000000000000000000000000000000000000008152600401611b84906142fe565b60405180910390fd5b600d60008381526020019081526020016000208054611bab90613718565b80601f0160208091040260200160405190810160405280929190818152602001828054611bd790613718565b8015611c245780601f10611bf957610100808354040283529160200191611c24565b820191906000526020600020905b815481529060010190602001808311611c0757829003601f168201915b50505050509050919050565b6000600560008473ffffffffffffffffffffffffffffffffffffffff1673ffffffffffffffffffffffffffffffffffffffff16815260200190815260200160002060008373ffffffffffffffffffffffffffffffffffffffff1673ffffffffffffffffffffffffffffffffffffffff16815260200190815260200160002060009054906101000a900460ff16905092915050565b601060009054906101000a900460ff1681565b611cdf611dce565b73ffffffffffffffffffffffffffffffffffffffff16611cfd6116db565b73ffffffffffffffffffffffffffffffffffffffff1614611d53576040517f08c379a0000000000000000000000000000000000000000000000000000000008152600401611d4a90613637565b60405180910390fd5b600073ffffffffffffffffffffffffffffffffffffffff168173ffffffffffffffffffffffffffffffffffffffff1603611dc2576040517f08c379a0000000000000000000000000000000000000000000000000000000008152600401611db990614390565b60405180910390fd5b611dcb81612334565b50565b600033905090565b60008073ffffffffffffffffffffffffffffffffffffffff166002600084815260200190815260200160002060009054906101000a900473ffffffffffffffffffffffffffffffffffffffff1673ffffffffffffffffffffffffffffffffffffffff1614159050919050565b60007f80ac58cd000000000000000000000000000000000000000000000000000000007bffffffffffffffffffffffffffffffffffffffffffffffffffffffff1916827bffffffffffffffffffffffffffffffffffffffffffffffffffffffff19161480611f0d57507f5b5e139f000000000000000000000000000000000000000000000000000000007bffffffffffffffffffffffffffffffffffffffffffffffffffffffff1916827bffffffffffffffffffffffffffffffffffffffffffffffffffffffff1916145b80611f1d5750611f1c826125c2565b5b9050919050565b816004600083815260200190815260200160002060006101000a81548173ffffffffffffffffffffffffffffffffffffffff021916908373ffffffffffffffffffffffffffffffffffffffff160217905550808273ffffffffffffffffffffffffffffffffffffffff16611f9783611199565b73ffffffffffffffffffffffffffffffffffffffff167f8c5be1e5ebec7d5bd14f71427d1e84f3dd0314c0f7b2291e5b200ac8c7c3b92560405160405180910390a45050565b6000611fe882611dd6565b612027576040517f08c379a000000000000000000000000000000000000000000000000000000000815260040161201e90614422565b60405180910390fd5b600061203283611199565b90508073ffffffffffffffffffffffffffffffffffffffff168473ffffffffffffffffffffffffffffffffffffffff1614806120a157508373ffffffffffffffffffffffffffffffffffffffff1661208984610a1e565b73ffffffffffffffffffffffffffffffffffffffff16145b806120b257506120b18185611c30565b5b91505092915050565b8273ffffffffffffffffffffffffffffffffffffffff166120db82611199565b73ffffffffffffffffffffffffffffffffffffffff1614612131576040517f08c379a0000000000000000000000000000000000000000000000000000000008152600401612128906144b4565b60405180910390fd5b600073ffffffffffffffffffffffffffffffffffffffff168273ffffffffffffffffffffffffffffffffffffffff16036121a0576040517f08c379a000000000000000000000000000000000000000000000000000000000815260040161219790614546565b60405180910390fd5b6121ab83838361262c565b6121b6600082611f24565b6001600360008573ffffffffffffffffffffffffffffffffffffffff1673ffffffffffffffffffffffffffffffffffffffff16815260200190815260200160002060008282546122069190614258565b925050819055506001600360008473ffffffffffffffffffffffffffffffffffffffff1673ffffffffffffffffffffffffffffffffffffffff168152602001908152602001600020600082825461225d9190613f70565b92505081905550816002600083815260200190815260200160002060006101000a81548173ffffffffffffffffffffffffffffffffffffffff021916908373ffffffffffffffffffffffffffffffffffffffff160217905550808273ffffffffffffffffffffffffffffffffffffffff168473ffffffffffffffffffffffffffffffffffffffff167fddf252ad1be2c89b69c2b068fc378daa952ba7f163c4a11628f55a4df523b3ef60405160405180910390a4505050565b61233082826040518060200160405280600081525061273e565b5050565b6000600a60009054906101000a900473ffffffffffffffffffffffffffffffffffffffff16905081600a60006101000a81548173ffffffffffffffffffffffffffffffffffffffff021916908373ffffffffffffffffffffffffffffffffffffffff1602179055508173ffffffffffffffffffffffffffffffffffffffff168173ffffffffffffffffffffffffffffffffffffffff167f8be0079c531659141344cd1fd0a4f28419497f9722a3daafe3b4186f6b6457e060405160405180910390a35050565b8173ffffffffffffffffffffffffffffffffffffffff168373ffffffffffffffffffffffffffffffffffffffff1603612468576040517f08c379a000000000000000000000000000000000000000000000000000000000815260040161245f906145b2565b60405180910390fd5b80600560008573ffffffffffffffffffffffffffffffffffffffff1673ffffffffffffffffffffffffffffffffffffffff16815260200190815260200160002060008473ffffffffffffffffffffffffffffffffffffffff1673ffffffffffffffffffffffffffffffffffffffff16815260200190815260200160002060006101000a81548160ff0219169083151502179055508173ffffffffffffffffffffffffffffffffffffffff168373ffffffffffffffffffffffffffffffffffffffff167f17307eab39ab6107e8899845ad3d59bd9653f200f220920489ca2b5937696c31836040516125599190613097565b60405180910390a3505050565b6125718484846120bb565b61257d84848484612799565b6125bc576040517f08c379a00000000000000000000000000000000000000000000000000000000081526004016125b390614644565b60405180910390fd5b50505050565b60007f01ffc9a7000000000000000000000000000000000000000000000000000000007bffffffffffffffffffffffffffffffffffffffffffffffffffffffff1916827bffffffffffffffffffffffffffffffffffffffffffffffffffffffff1916149050919050565b612637838383612920565b600073ffffffffffffffffffffffffffffffffffffffff168373ffffffffffffffffffffffffffffffffffffffff16036126795761267481612925565b6126b8565b8173ffffffffffffffffffffffffffffffffffffffff168373ffffffffffffffffffffffffffffffffffffffff16146126b7576126b6838261296e565b5b5b600073ffffffffffffffffffffffffffffffffffffffff168273ffffffffffffffffffffffffffffffffffffffff16036126fa576126f581612adb565b612739565b8273ffffffffffffffffffffffffffffffffffffffff168273ffffffffffffffffffffffffffffffffffffffff1614612738576127378282612bac565b5b5b505050565b6127488383612c2b565b6127556000848484612799565b612794576040517f08c379a000000000000000000000000000000000000000000000000000000000815260040161278b90614644565b60405180910390fd5b505050565b60006127ba8473ffffffffffffffffffffffffffffffffffffffff16612df8565b15612913578373ffffffffffffffffffffffffffffffffffffffff1663150b7a026127e3611dce565b8786866040518563ffffffff1660e01b815260040161280594939291906146b9565b6020604051808303816000875af192505050801561284157506040513d601f19601f8201168201806040525081019061283e919061471a565b60015b6128c3573d8060008114612871576040519150601f19603f3d011682016040523d82523d6000602084013e612876565b606091505b5060008151036128bb576040517f08c379a00000000000000000000000000000000000000000000000000000000081526004016128b290614644565b60405180910390fd5b805181602001fd5b63150b7a0260e01b7bffffffffffffffffffffffffffffffffffffffffffffffffffffffff1916817bffffffffffffffffffffffffffffffffffffffffffffffffffffffff191614915050612918565b600190505b949350505050565b505050565b6008805490506009600083815260200190815260200160002081905550600881908060018154018082558091505060019003906000526020600020016000909190919091505550565b6000600161297b846114ee565b6129859190614258565b9050600060076000848152602001908152602001600020549050818114612a6a576000600660008673ffffffffffffffffffffffffffffffffffffffff1673ffffffffffffffffffffffffffffffffffffffff168152602001908152602001600020600084815260200190815260200160002054905080600660008773ffffffffffffffffffffffffffffffffffffffff1673ffffffffffffffffffffffffffffffffffffffff168152602001908152602001600020600084815260200190815260200160002081905550816007600083815260200190815260200160002081905550505b6007600084815260200190815260200160002060009055600660008573ffffffffffffffffffffffffffffffffffffffff1673ffffffffffffffffffffffffffffffffffffffff16815260200190815260200160002060008381526020019081526020016000206000905550505050565b60006001600880549050612aef9190614258565b9050600060096000848152602001908152602001600020549050600060088381548110612b1f57612b1e613dee565b5b906000526020600020015490508060088381548110612b4157612b40613dee565b5b906000526020600020018190555081600960008381526020019081526020016000208190555060096000858152602001908152602001600020600090556008805480612b9057612b8f614747565b5b6001900381819060005260206000200160009055905550505050565b6000612bb7836114ee565b905081600660008573ffffffffffffffffffffffffffffffffffffffff1673ffffffffffffffffffffffffffffffffffffffff168152602001908152602001600020600083815260200190815260200160002081905550806007600084815260200190815260200160002081905550505050565b600073ffffffffffffffffffffffffffffffffffffffff168273ffffffffffffffffffffffffffffffffffffffff1603612c9a576040517f08c379a0000000000000000000000000000000000000000000000000000000008152600401612c91906147c2565b60405180910390fd5b612ca381611dd6565b15612ce3576040517f08c379a0000000000000000000000000000000000000000000000000000000008152600401612cda9061482e565b60405180910390fd5b612cef6000838361262c565b6001600360008473ffffffffffffffffffffffffffffffffffffffff1673ffffffffffffffffffffffffffffffffffffffff1681526020019081526020016000206000828254612d3f9190613f70565b92505081905550816002600083815260200190815260200160002060006101000a81548173ffffffffffffffffffffffffffffffffffffffff021916908373ffffffffffffffffffffffffffffffffffffffff160217905550808273ffffffffffffffffffffffffffffffffffffffff16600073ffffffffffffffffffffffffffffffffffffffff167fddf252ad1be2c89b69c2b068fc378daa952ba7f163c4a11628f55a4df523b3ef60405160405180910390a45050565b600080823b905060008111915050919050565b6000604051905090565b600080fd5b600080fd5b6000819050919050565b612e3281612e1f565b8114612e3d57600080fd5b50565b600081359050612e4f81612e29565b92915050565b600080fd5b600080fd5b6000601f19601f8301169050919050565b7f4e487b7100000000000000000000000000000000000000000000000000000000600052604160045260246000fd5b612ea882612e5f565b810181811067ffffffffffffffff82111715612ec757612ec6612e70565b5b80604052505050565b6000612eda612e0b565b9050612ee68282612e9f565b919050565b600067ffffffffffffffff821115612f0657612f05612e70565b5b612f0f82612e5f565b9050602081019050919050565b82818337600083830152505050565b6000612f3e612f3984612eeb565b612ed0565b905082815260208101848484011115612f5a57612f59612e5a565b5b612f65848285612f1c565b509392505050565b600082601f830112612f8257612f81612e55565b5b8135612f92848260208601612f2b565b91505092915050565b60008060408385031215612fb257612fb1612e15565b5b6000612fc085828601612e40565b925050602083013567ffffffffffffffff811115612fe157612fe0612e1a565b5b612fed85828601612f6d565b9150509250929050565b60007fffffffff0000000000000000000000000000000000000000000000000000000082169050919050565b61302c81612ff7565b811461303757600080fd5b50565b60008135905061304981613023565b92915050565b60006020828403121561306557613064612e15565b5b60006130738482850161303a565b91505092915050565b60008115159050919050565b6130918161307c565b82525050565b60006020820190506130ac6000830184613088565b92915050565b600081519050919050565b600082825260208201905092915050565b60005b838110156130ec5780820151818401526020810190506130d1565b60008484015250505050565b6000613103826130b2565b61310d81856130bd565b935061311d8185602086016130ce565b61312681612e5f565b840191505092915050565b6000602082019050818103600083015261314b81846130f8565b905092915050565b60006020828403121561316957613168612e15565b5b600061317784828501612e40565b91505092915050565b600073ffffffffffffffffffffffffffffffffffffffff82169050919050565b60006131ab82613180565b9050919050565b6131bb816131a0565b82525050565b60006020820190506131d660008301846131b2565b92915050565b6131e5816131a0565b81146131f057600080fd5b50565b600081359050613202816131dc565b92915050565b6000806040838503121561321f5761321e612e15565b5b600061322d858286016131f3565b925050602061323e85828601612e40565b9150509250929050565b61325181612e1f565b82525050565b600060208201905061326c6000830184613248565b92915050565b60008060006060848603121561328b5761328a612e15565b5b6000613299868287016131f3565b93505060206132aa868287016131f3565b92505060406132bb86828701612e40565b9150509250925092565b6000602082840312156132db576132da612e15565b5b60006132e9848285016131f3565b91505092915050565b60006020828403121561330857613307612e15565b5b600082013567ffffffffffffffff81111561332657613325612e1a565b5b61333284828501612f6d565b91505092915050565b600081519050919050565b600082825260208201905092915050565b6000819050602082019050919050565b61337081612e1f565b82525050565b60006133828383613367565b60208301905092915050565b6000602082019050919050565b60006133a68261333b565b6133b08185613346565b93506133bb83613357565b8060005b838110156133ec5781516133d38882613376565b97506133de8361338e565b9250506001810190506133bf565b5085935050505092915050565b60006020820190508181036000830152613413818461339b565b905092915050565b6134248161307c565b811461342f57600080fd5b50565b6000813590506134418161341b565b92915050565b6000806040838503121561345e5761345d612e15565b5b600061346c858286016131f3565b925050602061347d85828601613432565b9150509250929050565b600067ffffffffffffffff8211156134a2576134a1612e70565b5b6134ab82612e5f565b9050602081019050919050565b60006134cb6134c684613487565b612ed0565b9050828152602081018484840111156134e7576134e6612e5a565b5b6134f2848285612f1c565b509392505050565b600082601f83011261350f5761350e612e55565b5b813561351f8482602086016134b8565b91505092915050565b6000806000806080858703121561354257613541612e15565b5b6000613550878288016131f3565b9450506020613561878288016131f3565b935050604061357287828801612e40565b925050606085013567ffffffffffffffff81111561359357613592612e1a565b5b61359f878288016134fa565b91505092959194509250565b600080604083850312156135c2576135c1612e15565b5b60006135d0858286016131f3565b92505060206135e1858286016131f3565b9150509250929050565b7f4f776e61626c653a2063616c6c6572206973206e6f7420746865206f776e6572600082015250565b60006136216020836130bd565b915061362c826135eb565b602082019050919050565b6000602082019050818103600083015261365081613614565b9050919050565b7f45524337323155524953746f726167653a2055524920736574206f66206e6f6e60008201527f6578697374656e7420746f6b656e000000000000000000000000000000000000602082015250565b60006136b3602e836130bd565b91506136be82613657565b604082019050919050565b600060208201905081810360008301526136e2816136a6565b9050919050565b7f4e487b7100000000000000000000000000000000000000000000000000000000600052602260045260246000fd5b6000600282049050600182168061373057607f821691505b602082108103613743576137426136e9565b5b50919050565b60008190508160005260206000209050919050565b60006020601f8301049050919050565b600082821b905092915050565b6000600883026137ab7fffffffffffffffffffffffffffffffffffffffffffffffffffffffffffffffff8261376e565b6137b5868361376e565b95508019841693508086168417925050509392505050565b6000819050919050565b60006137f26137ed6137e884612e1f565b6137cd565b612e1f565b9050919050565b6000819050919050565b61380c836137d7565b613820613818826137f9565b84845461377b565b825550505050565b600090565b613835613828565b613840818484613803565b505050565b5b818110156138645761385960008261382d565b600181019050613846565b5050565b601f8211156138a95761387a81613749565b6138838461375e565b81016020851015613892578190505b6138a661389e8561375e565b830182613845565b50505b505050565b600082821c905092915050565b60006138cc600019846008026138ae565b1980831691505092915050565b60006138e583836138bb565b9150826002028217905092915050565b6138fe826130b2565b67ffffffffffffffff81111561391757613916612e70565b5b6139218254613718565b61392c828285613868565b600060209050601f83116001811461395f576000841561394d578287015190505b61395785826138d9565b8655506139bf565b601f19841661396d86613749565b60005b8281101561399557848901518255600182019150602085019450602081019050613970565b868310156139b257848901516139ae601f8916826138bb565b8355505b6001600288020188555050505b505050505050565b7f4552433732313a20617070726f76656420717565727920666f72206e6f6e657860008201527f697374656e7420746f6b656e0000000000000000000000000000000000000000602082015250565b6000613a23602c836130bd565b9150613a2e826139c7565b604082019050919050565b60006020820190508181036000830152613a5281613a16565b9050919050565b7f4552433732313a20617070726f76616c20746f2063757272656e74206f776e6560008201527f7200000000000000000000000000000000000000000000000000000000000000602082015250565b6000613ab56021836130bd565b9150613ac082613a59565b604082019050919050565b60006020820190508181036000830152613ae481613aa8565b9050919050565b7f4552433732313a20617070726f76652063616c6c6572206973206e6f74206f7760008201527f6e6572206e6f7220617070726f76656420666f7220616c6c0000000000000000602082015250565b6000613b476038836130bd565b9150613b5282613aeb565b604082019050919050565b60006020820190508181036000830152613b7681613b3a565b9050919050565b7f4552433732313a207472616e736665722063616c6c6572206973206e6f74206f60008201527f776e6572206e6f7220617070726f766564000000000000000000000000000000602082015250565b6000613bd96031836130bd565b9150613be482613b7d565b604082019050919050565b60006020820190508181036000830152613c0881613bcc565b9050919050565b7f61646472657373206d696e74657220616c6c6f77656420666f72206d696e746960008201527f6e67000000000000000000000000000000000000000000000000000000000000602082015250565b6000613c6b6022836130bd565b9150613c7682613c0f565b604082019050919050565b60006020820190508181036000830152613c9a81613c5e565b9050919050565b7f455243373231456e756d657261626c653a206f776e657220696e646578206f7560008201527f74206f6620626f756e6473000000000000000000000000000000000000000000602082015250565b6000613cfd602b836130bd565b9150613d0882613ca1565b604082019050919050565b60006020820190508181036000830152613d2c81613cf0565b9050919050565b6000604082019050613d486000830185613248565b613d556020830184613248565b9392505050565b7f455243373231456e756d657261626c653a20676c6f62616c20696e646578206f60008201527f7574206f6620626f756e64730000000000000000000000000000000000000000602082015250565b6000613db8602c836130bd565b9150613dc382613d5c565b604082019050919050565b60006020820190508181036000830152613de781613dab565b9050919050565b7f4e487b7100000000000000000000000000000000000000000000000000000000600052603260045260246000fd5b7f4552433732313a206f776e657220717565727920666f72206e6f6e657869737460008201527f656e7420746f6b656e0000000000000000000000000000000000000000000000602082015250565b6000613e796029836130bd565b9150613e8482613e1d565b604082019050919050565b60006020820190508181036000830152613ea881613e6c565b9050919050565b7f596f7520646f6e27742061726520616c6c6f77656420666f72206d696e74696e60008201527f6700000000000000000000000000000000000000000000000000000000000000602082015250565b6000613f0b6021836130bd565b9150613f1682613eaf565b604082019050919050565b60006020820190508181036000830152613f3a81613efe565b9050919050565b7f4e487b7100000000000000000000000000000000000000000000000000000000600052601160045260246000fd5b6000613f7b82612e1f565b9150613f8683612e1f565b9250828201905080821115613f9e57613f9d613f41565b5b92915050565b7f4552433732313a2062616c616e636520717565727920666f7220746865207a6560008201527f726f206164647265737300000000000000000000000000000000000000000000602082015250565b6000614000602a836130bd565b915061400b82613fa4565b604082019050919050565b6000602082019050818103600083015261402f81613ff3565b9050919050565b7f61646472657373206d696e746572206e6f7420616c6c6f77656420666f72206d60008201527f696e74696e670000000000000000000000000000000000000000000000000000602082015250565b60006140926026836130bd565b915061409d82614036565b604082019050919050565b600060208201905081810360008301526140c181614085565b9050919050565b7f53616c65206d7573742062652061637469766520746f2062757920546f6b656e60008201527f7300000000000000000000000000000000000000000000000000000000000000602082015250565b60006141246021836130bd565b915061412f826140c8565b604082019050919050565b6000602082019050818103600083015261415381614117565b9050919050565b7f546865726520617265206e6f20746f6b656e7320746f20627579000000000000600082015250565b6000614190601a836130bd565b915061419b8261415a565b602082019050919050565b600060208201905081810360008301526141bf81614183565b9050919050565b7f76616c75652073656e74206e6565647320746f2062652061746c65617374207360008201527f616c652070726963650000000000000000000000000000000000000000000000602082015250565b60006142226029836130bd565b915061422d826141c6565b604082019050919050565b6000602082019050818103600083015261425181614215565b9050919050565b600061426382612e1f565b915061426e83612e1f565b925082820390508181111561428657614285613f41565b5b92915050565b7f45524337323155524953746f726167653a2055524920717565727920666f722060008201527f6e6f6e6578697374656e7420746f6b656e000000000000000000000000000000602082015250565b60006142e86031836130bd565b91506142f38261428c565b604082019050919050565b60006020820190508181036000830152614317816142db565b9050919050565b7f4f776e61626c653a206e6577206f776e657220697320746865207a65726f206160008201527f6464726573730000000000000000000000000000000000000000000000000000602082015250565b600061437a6026836130bd565b91506143858261431e565b604082019050919050565b600060208201905081810360008301526143a98161436d565b9050919050565b7f4552433732313a206f70657261746f7220717565727920666f72206e6f6e657860008201527f697374656e7420746f6b656e0000000000000000000000000000000000000000602082015250565b600061440c602c836130bd565b9150614417826143b0565b604082019050919050565b6000602082019050818103600083015261443b816143ff565b9050919050565b7f4552433732313a207472616e73666572206f6620746f6b656e2074686174206960008201527f73206e6f74206f776e0000000000000000000000000000000000000000000000602082015250565b600061449e6029836130bd565b91506144a982614442565b604082019050919050565b600060208201905081810360008301526144cd81614491565b9050919050565b7f4552433732313a207472616e7366657220746f20746865207a65726f2061646460008201527f7265737300000000000000000000000000000000000000000000000000000000602082015250565b60006145306024836130bd565b915061453b826144d4565b604082019050919050565b6000602082019050818103600083015261455f81614523565b9050919050565b7f4552433732313a20617070726f766520746f2063616c6c657200000000000000600082015250565b600061459c6019836130bd565b91506145a782614566565b602082019050919050565b600060208201905081810360008301526145cb8161458f565b9050919050565b7f4552433732313a207472616e7366657220746f206e6f6e20455243373231526560008201527f63656976657220696d706c656d656e7465720000000000000000000000000000602082015250565b600061462e6032836130bd565b9150614639826145d2565b604082019050919050565b6000602082019050818103600083015261465d81614621565b9050919050565b600081519050919050565b600082825260208201905092915050565b600061468b82614664565b614695818561466f565b93506146a58185602086016130ce565b6146ae81612e5f565b840191505092915050565b60006080820190506146ce60008301876131b2565b6146db60208301866131b2565b6146e86040830185613248565b81810360608301526146fa8184614680565b905095945050505050565b60008151905061471481613023565b92915050565b6000602082840312156147305761472f612e15565b5b600061473e84828501614705565b91505092915050565b7f4e487b7100000000000000000000000000000000000000000000000000000000600052603160045260246000fd5b7f4552433732313a206d696e7420746f20746865207a65726f2061646472657373600082015250565b60006147ac6020836130bd565b91506147b782614776565b602082019050919050565b600060208201905081810360008301526147db8161479f565b9050919050565b7f4552433732313a20746f6b656e20616c7265616479206d696e74656400000000600082015250565b6000614818601c836130bd565b9150614823826147e2565b602082019050919050565b600060208201905081810360008301526148478161480b565b905091905056fea26469706673582212200350ffd3d9e359f4ac33c5d52d79d4843cc48f3a95ffc0abfabd6bba1e8d11fd64736f6c63430008170033",
  "immutableReferences": {},
  "source": "//SPDX-License-Identifier: UNLICENSED\r\npragma solidity ^0.8.0;\r\n\r\n/**\r\n * dev: https://cainuriel.github.io/\r\n /$$      /$$           /$$                      /$$$$$$   /$$                    /$$           /$$                              \r\n| $$$    /$$$          | $$                     /$$__  $$ | $$                   | $$          |__/                              \r\n| $$$$  /$$$$  /$$$$$$ | $$  /$$$$$$  /$$$$$$$ | $$  \\__//$$$$$$   /$$$$$$$  /$$$$$$$  /$$$$$$  /$$ /$$$$$$$   /$$$$$$   /$$$$$$ \r\n| $$ $$/$$ $$ |____  $$| $$ |____  $$| $$__  $$| $$$$   |_  $$_/  /$$_____/ /$$__  $$ /$$__  $$| $$| $$__  $$ /$$__  $$ /$$__  $$\r\n| $$  $$$| $$  /$$$$$$$| $$  /$$$$$$$| $$  \\ $$| $$_/     | $$   |  $$$$$$ | $$  | $$| $$  \\__/| $$| $$  \\ $$| $$$$$$$$| $$  \\__/\r\n| $$\\  $ | $$ /$$__  $$| $$ /$$__  $$| $$  | $$| $$       | $$ /$$\\____  $$| $$  | $$| $$      | $$| $$  | $$| $$_____/| $$      \r\n| $$ \\/  | $$|  $$$$$$$| $$|  $$$$$$$| $$  | $$| $$       |  $$$$//$$$$$$$/|  $$$$$$$| $$      | $$| $$  | $$|  $$$$$$$| $$      \r\n|__/     |__/ \\_______/|__/ \\_______/|__/  |__/|__/        \\___/ |_______/  \\_______/|__/      |__/|__/  |__/ \\_______/|__/      \r\n * \r\n **/\r\n\r\n // 0xEC2b1F41E90590cfc44c090DFdeed9DCb55eE000 in testnet \r\n\r\nimport \"@openzeppelin/contracts/token/ERC721/extensions/ERC721Enumerable.sol\";\r\nimport \"@openzeppelin/contracts/access/Ownable.sol\";\r\n\r\n\r\ncontract BNBCollection is ERC721Enumerable, Ownable  \r\n{   \r\n    \r\n\r\n    mapping(address => bool) private  _minters;\r\n    string[] public tokenURIs; // to listing\r\n    mapping(uint => string) _tokenIdToTokenURI;\r\n    uint256 public alreadySold;\r\n    uint256 public onSale;\r\n    bool public saleIsActive;\r\n     uint256 public tokenPrice = 300000000000000000; //0.3 BNB\r\n\r\n    \r\n      /**\r\n   * Event for token purchase logging\r\n   * @param purchaser who paid for the tokens\r\n   * @param beneficiary who got the tokens\r\n   * @param value weis paid for purchase\r\n   * @param idToken NFT purchased\r\n   */\r\n  event TokenPurchase(\r\n    address indexed purchaser,\r\n    address indexed beneficiary,\r\n    uint256 value,\r\n    uint256 idToken\r\n  );\r\n  \r\n   /**\r\n   * Event for token purchase logging\r\n   * @param minter who minted tokens\r\n   * @param id of token minted\r\n   */\r\n  event Mint(\r\n    address indexed minter,\r\n    uint256 id,\r\n    uint256 date\r\n  );\r\n  \r\n   /**\r\n   * Event for token purchase logging\r\n   * @param amount total sale balance\r\n   * @param date collection date\r\n   */\r\n  event WithdrawTime(\r\n    uint256 amount,\r\n    uint256 date\r\n  );\r\n    \r\n    constructor() \r\n    ERC721(\"Malanftdriner Collection\", \"MLNFT\") \r\n    {\r\n        _minters[msg.sender] = true;\r\n\r\n    }\r\n\r\n    function withdraw() public onlyOwner \r\n    {\r\n        uint256 amount = address(this).balance;\r\n        payable(msg.sender).transfer(amount);\r\n        flipSaleState();\r\n        emit WithdrawTime(amount, block.timestamp);\r\n        \r\n    }\r\n    \r\n         function saleMintToken(address buyer) public payable \r\n    {\r\n          \r\n        require(saleIsActive, \"Sale must be active to buy Tokens\");\r\n        require(onSale != 0, \"There are no tokens to buy\");\r\n        require(msg.value >= tokenPrice, \"value sent needs to be atleast sale price\");\r\n         uint256[] memory tokenId = tokensOfOwner(owner());\r\n        _transfer(owner(), buyer, tokenId[0]);\r\n        onSale = onSale - 1;\r\n        alreadySold = alreadySold + 1;\r\n\r\n       emit TokenPurchase(owner(), buyer, msg.value, tokenId[0]);\r\n    }\r\n\r\n\r\n        function safeMint(string memory _tokenURI) public  \r\n        {\r\n        require(_minters[msg.sender] || balanceOf(msg.sender) != 0, \"You don't are allowed for minting\");\r\n        uint256 supply = totalSupply();\r\n         tokenURIs.push(_tokenURI);\r\n        uint _id = supply + 1;\r\n        _tokenIdToTokenURI[_id] = _tokenURI;\r\n\r\n        _safeMint(msg.sender, _id);\r\n\r\n        emit Mint(msg.sender, _id, block.timestamp);\r\n\r\n        }\r\n\r\n           /**\r\n         * @dev approve an account for mint\r\n         */\r\n         function setMinterApproved(address minter) public onlyOwner \r\n    {   require(!_minters[minter], \"address minter allowed for minting\");\r\n        _minters[minter] = true;\r\n    }\r\n    \r\n        /**\r\n         * @dev disapprove an account for mint\r\n         */\r\n         function setMinterDisapproved(address minter) public onlyOwner \r\n    {\r\n         require(_minters[minter], \"address minter not allowed for minting\");\r\n        _minters[minter] = false;\r\n    }\r\n    \r\n      /**\r\n     * @dev show all the tokens of the owner.\r\n     */\r\n    function tokensOfOwner(address owner) public view returns (uint256[] memory)\r\n    {\r\n        uint256 ownerTokenCount = balanceOf(owner);\r\n        uint256[] memory tokenIds = new uint256[](ownerTokenCount);\r\n\r\n        for (uint256 i; i < ownerTokenCount; i++) {\r\n            tokenIds[i] = tokenOfOwnerByIndex(owner, i);\r\n        }\r\n        return tokenIds;\r\n    }\r\n    \r\n     function setTokenPrice(uint256 _tokenPrice) public onlyOwner \r\n    {\r\n        tokenPrice = _tokenPrice;\r\n    }\r\n\r\n    function getBalance() public view onlyOwner returns(uint256)  \r\n    {\r\n        return address(this).balance;\r\n    }\r\n    \r\n\r\n    function tokenURI(uint256 tokenId) public view override returns (string memory) \r\n    {\r\n        require(_exists(tokenId), \"ERC721URIStorage: URI query for nonexistent token\");\r\n\r\n            return _tokenIdToTokenURI[tokenId];\r\n    }\r\n\r\n    /**\r\n     * @dev Sets `tokenURI` as the tokenURI of `tokenId`.\r\n     *\r\n     * Requirements:\r\n     *\r\n     * - `tokenId` must exist.\r\n     */\r\n    function _setTokenURI(uint256 _tokenId, string memory _tokenURI) public onlyOwner\r\n    {\r\n        require(_exists(_tokenId), \"ERC721URIStorage: URI set of nonexistent token\");\r\n        _tokenIdToTokenURI[_tokenId] = _tokenURI;\r\n    }\r\n    \r\n      /*\r\n    * Pause sale if active, make active if paused\r\n    */\r\n    function flipSaleState() public onlyOwner \r\n    {\r\n        saleIsActive = !saleIsActive;\r\n    }\r\n\r\n    /*\r\n    *  Preparation amount of Tokens for sale in malandriner app. Only owner can sale.\r\n    */\r\n    function prepareSale() public onlyOwner \r\n    {   onSale = balanceOf(owner());\r\n        \r\n    }\r\n\r\n}",
  "sourcePath": "C:\\Users\\Fernando\\Documents\\solidity\\BNBMarketplace\\src\\contracts\\BNBCollection.sol",
  "compiler": {
    "name": "solc",
    "version": "0.8.23+commit.f704f362.Emscripten.clang"
  },
  "schemaVersion": "3.4.16",
  "updatedAt": "2023-12-14T01:17:48.254Z",
  "devdoc": {
    "events": {
      "Approval(address,address,uint256)": {
        "details": "Emitted when `owner` enables `approved` to manage the `tokenId` token."
      },
      "ApprovalForAll(address,address,bool)": {
        "details": "Emitted when `owner` enables or disables (`approved`) `operator` to manage all of its assets."
      },
      "Mint(address,uint256,uint256)": {
        "params": {
          "id": "of token minted",
          "minter": "who minted tokens"
        }
      },
      "TokenPurchase(address,address,uint256,uint256)": {
        "params": {
          "beneficiary": "who got the tokens",
          "idToken": "NFT purchased",
          "purchaser": "who paid for the tokens",
          "value": "weis paid for purchase"
        }
      },
      "Transfer(address,address,uint256)": {
        "details": "Emitted when `tokenId` token is transferred from `from` to `to`."
      },
      "WithdrawTime(uint256,uint256)": {
        "params": {
          "amount": "total sale balance",
          "date": "collection date"
        }
      }
    },
    "kind": "dev",
    "methods": {
      "_setTokenURI(uint256,string)": {
        "details": "Sets `tokenURI` as the tokenURI of `tokenId`. Requirements: - `tokenId` must exist."
      },
      "approve(address,uint256)": {
        "details": "See {IERC721-approve}."
      },
      "balanceOf(address)": {
        "details": "See {IERC721-balanceOf}."
      },
      "getApproved(uint256)": {
        "details": "See {IERC721-getApproved}."
      },
      "isApprovedForAll(address,address)": {
        "details": "See {IERC721-isApprovedForAll}."
      },
      "name()": {
        "details": "See {IERC721Metadata-name}."
      },
      "owner()": {
        "details": "Returns the address of the current owner."
      },
      "ownerOf(uint256)": {
        "details": "See {IERC721-ownerOf}."
      },
      "renounceOwnership()": {
        "details": "Leaves the contract without owner. It will not be possible to call `onlyOwner` functions anymore. Can only be called by the current owner. NOTE: Renouncing ownership will leave the contract without an owner, thereby removing any functionality that is only available to the owner."
      },
      "safeTransferFrom(address,address,uint256)": {
        "details": "See {IERC721-safeTransferFrom}."
      },
      "safeTransferFrom(address,address,uint256,bytes)": {
        "details": "See {IERC721-safeTransferFrom}."
      },
      "setApprovalForAll(address,bool)": {
        "details": "See {IERC721-setApprovalForAll}."
      },
      "setMinterApproved(address)": {
        "details": "approve an account for mint"
      },
      "setMinterDisapproved(address)": {
        "details": "disapprove an account for mint"
      },
      "supportsInterface(bytes4)": {
        "details": "See {IERC165-supportsInterface}."
      },
      "symbol()": {
        "details": "See {IERC721Metadata-symbol}."
      },
      "tokenByIndex(uint256)": {
        "details": "See {IERC721Enumerable-tokenByIndex}."
      },
      "tokenOfOwnerByIndex(address,uint256)": {
        "details": "See {IERC721Enumerable-tokenOfOwnerByIndex}."
      },
      "tokenURI(uint256)": {
        "details": "See {IERC721Metadata-tokenURI}."
      },
      "tokensOfOwner(address)": {
        "details": "show all the tokens of the owner."
      },
      "totalSupply()": {
        "details": "See {IERC721Enumerable-totalSupply}."
      },
      "transferFrom(address,address,uint256)": {
        "details": "See {IERC721-transferFrom}."
      },
      "transferOwnership(address)": {
        "details": "Transfers ownership of the contract to a new account (`newOwner`). Can only be called by the current owner."
      }
    },
    "version": 1
  },
  "userdoc": {
    "events": {
      "Mint(address,uint256,uint256)": {
        "notice": "Event for token purchase logging"
      },
      "TokenPurchase(address,address,uint256,uint256)": {
        "notice": "Event for token purchase logging"
      },
      "WithdrawTime(uint256,uint256)": {
        "notice": "Event for token purchase logging"
      }
    },
    "kind": "user",
    "methods": {},
    "version": 1
  }
}